{
	"contracts/SecuritizeRedemption.sol": {
		"SecuritizeRedemption": {
			"abi": [
				{
					"inputs": [],
					"name": "asset",
					"outputs": [
						{
							"internalType": "contract ERC20",
							"name": "",
							"type": "address"
						}
					],
					"stateMutability": "view",
					"type": "function"
				},
				{
					"inputs": [],
					"name": "calculateOrig",
					"outputs": [
						{
							"internalType": "uint256",
							"name": "",
							"type": "uint256"
						}
					],
					"stateMutability": "view",
					"type": "function"
				},
				{
					"inputs": [],
					"name": "calculateWithCachedDecimals",
					"outputs": [
						{
							"internalType": "uint256",
							"name": "",
							"type": "uint256"
						}
					],
					"stateMutability": "view",
					"type": "function"
				},
				{
					"inputs": [],
					"name": "calculateWithScalingFactor",
					"outputs": [
						{
							"internalType": "uint256",
							"name": "",
							"type": "uint256"
						}
					],
					"stateMutability": "view",
					"type": "function"
				},
				{
					"inputs": [],
					"name": "liquidityProvider",
					"outputs": [
						{
							"internalType": "contract ILiquidityProvider",
							"name": "",
							"type": "address"
						}
					],
					"stateMutability": "view",
					"type": "function"
				},
				{
					"inputs": [
						{
							"internalType": "address",
							"name": "_asset",
							"type": "address"
						}
					],
					"name": "updateAsset",
					"outputs": [],
					"stateMutability": "nonpayable",
					"type": "function"
				},
				{
					"inputs": [
						{
							"internalType": "address",
							"name": "_liquidityProvider",
							"type": "address"
						}
					],
					"name": "updateLiquidityProvider",
					"outputs": [],
					"stateMutability": "nonpayable",
					"type": "function"
				}
			],
			"devdoc": {
				"kind": "dev",
				"methods": {},
				"version": 1
			},
			"evm": {
				"assembly": "    /* \"contracts/SecuritizeRedemption.sol\":900:4186  contract SecuritizeRedemption {... */\n  mstore(0x40, 0x80)\n  callvalue\n  dup1\n  iszero\n  tag_1\n  jumpi\n  0x00\n  dup1\n  revert\ntag_1:\n  pop\n  dataSize(sub_0)\n  dup1\n  dataOffset(sub_0)\n  0x00\n  codecopy\n  0x00\n  return\nstop\n\nsub_0: assembly {\n        /* \"contracts/SecuritizeRedemption.sol\":900:4186  contract SecuritizeRedemption {... */\n      mstore(0x40, 0x80)\n      callvalue\n      dup1\n      iszero\n      tag_1\n      jumpi\n      0x00\n      dup1\n      revert\n    tag_1:\n      pop\n      jumpi(tag_2, lt(calldatasize, 0x04))\n      shr(0xe0, calldataload(0x00))\n      dup1\n      0x83781fa9\n      gt\n      tag_10\n      jumpi\n      dup1\n      0x83781fa9\n      eq\n      tag_6\n      jumpi\n      dup1\n      0x9b3e9ab8\n      eq\n      tag_7\n      jumpi\n      dup1\n      0xcd5c645c\n      eq\n      tag_8\n      jumpi\n      dup1\n      0xf141b52b\n      eq\n      tag_9\n      jumpi\n      jump(tag_2)\n    tag_10:\n      dup1\n      0x38d52e0f\n      eq\n      tag_3\n      jumpi\n      dup1\n      0x5b8bec55\n      eq\n      tag_4\n      jumpi\n      dup1\n      0x5d0b41f8\n      eq\n      tag_5\n      jumpi\n    tag_2:\n      0x00\n      dup1\n      revert\n        /* \"contracts/SecuritizeRedemption.sol\":985:1003  ERC20 public asset */\n    tag_3:\n      tag_11\n      tag_12\n      jump\t// in\n    tag_11:\n      mload(0x40)\n      tag_13\n      swap2\n      swap1\n      tag_14\n      jump\t// in\n    tag_13:\n      mload(0x40)\n      dup1\n      swap2\n      sub\n      swap1\n      return\n        /* \"contracts/SecuritizeRedemption.sol\":936:979  ILiquidityProvider public liquidityProvider */\n    tag_4:\n      tag_15\n      tag_16\n      jump\t// in\n    tag_15:\n      mload(0x40)\n      tag_17\n      swap2\n      swap1\n      tag_18\n      jump\t// in\n    tag_17:\n      mload(0x40)\n      dup1\n      swap2\n      sub\n      swap1\n      return\n        /* \"contracts/SecuritizeRedemption.sol\":2452:3361  function calculateWithScalingFactor() public view returns (uint256) {... */\n    tag_5:\n      tag_19\n      tag_20\n      jump\t// in\n    tag_19:\n      mload(0x40)\n      tag_21\n      swap2\n      swap1\n      tag_22\n      jump\t// in\n    tag_21:\n      mload(0x40)\n      dup1\n      swap2\n      sub\n      swap1\n      return\n        /* \"contracts/SecuritizeRedemption.sol\":1583:2446  function calculateOrig() public view returns (uint256) {... */\n    tag_6:\n      tag_23\n      tag_24\n      jump\t// in\n    tag_23:\n      mload(0x40)\n      tag_25\n      swap2\n      swap1\n      tag_22\n      jump\t// in\n    tag_25:\n      mload(0x40)\n      dup1\n      swap2\n      sub\n      swap1\n      return\n        /* \"contracts/SecuritizeRedemption.sol\":3380:4184  function calculateWithCachedDecimals() public view returns (uint256) {... */\n    tag_7:\n      tag_26\n      tag_27\n      jump\t// in\n    tag_26:\n      mload(0x40)\n      tag_28\n      swap2\n      swap1\n      tag_22\n      jump\t// in\n    tag_28:\n      mload(0x40)\n      dup1\n      swap2\n      sub\n      swap1\n      return\n        /* \"contracts/SecuritizeRedemption.sol\":1081:1474  function updateLiquidityProvider(address _liquidityProvider) external {... */\n    tag_8:\n      tag_29\n      0x04\n      dup1\n      calldatasize\n      sub\n      dup2\n      add\n      swap1\n      tag_30\n      swap2\n      swap1\n      tag_31\n      jump\t// in\n    tag_30:\n      tag_32\n      jump\t// in\n    tag_29:\n      stop\n        /* \"contracts/SecuritizeRedemption.sol\":1480:1564  function updateAsset(address _asset) external {... */\n    tag_9:\n      tag_33\n      0x04\n      dup1\n      calldatasize\n      sub\n      dup2\n      add\n      swap1\n      tag_34\n      swap2\n      swap1\n      tag_31\n      jump\t// in\n    tag_34:\n      tag_35\n      jump\t// in\n    tag_33:\n      stop\n        /* \"contracts/SecuritizeRedemption.sol\":985:1003  ERC20 public asset */\n    tag_12:\n      0x01\n      0x00\n      swap1\n      sload\n      swap1\n      0x0100\n      exp\n      swap1\n      div\n      0xffffffffffffffffffffffffffffffffffffffff\n      and\n      dup2\n      jump\t// out\n        /* \"contracts/SecuritizeRedemption.sol\":936:979  ILiquidityProvider public liquidityProvider */\n    tag_16:\n      0x00\n      dup1\n      sload\n      swap1\n      0x0100\n      exp\n      swap1\n      div\n      0xffffffffffffffffffffffffffffffffffffffff\n      and\n      dup2\n      jump\t// out\n        /* \"contracts/SecuritizeRedemption.sol\":2452:3361  function calculateWithScalingFactor() public view returns (uint256) {... */\n    tag_20:\n        /* \"contracts/SecuritizeRedemption.sol\":2511:2518  uint256 */\n      0x00\n        /* \"contracts/SecuritizeRedemption.sol\":2530:2545  uint256 _amount */\n      dup1\n        /* \"contracts/SecuritizeRedemption.sol\":2548:2567  1000000000000000000 */\n      0x0de0b6b3a7640000\n        /* \"contracts/SecuritizeRedemption.sol\":2530:2567  uint256 _amount = 1000000000000000000 */\n      swap1\n      pop\n        /* \"contracts/SecuritizeRedemption.sol\":2577:2589  uint256 rate */\n      0x00\n        /* \"contracts/SecuritizeRedemption.sol\":2592:2599  2000000 */\n      0x1e8480\n        /* \"contracts/SecuritizeRedemption.sol\":2577:2599  uint256 rate = 2000000 */\n      swap1\n      pop\n        /* \"contracts/SecuritizeRedemption.sol\":2610:2639  address liquidityTokenAddress */\n      0x00\n        /* \"contracts/SecuritizeRedemption.sol\":2663:2680  liquidityProvider */\n      dup1\n      0x00\n      swap1\n      sload\n      swap1\n      0x0100\n      exp\n      swap1\n      div\n      0xffffffffffffffffffffffffffffffffffffffff\n      and\n        /* \"contracts/SecuritizeRedemption.sol\":2663:2695  liquidityProvider.liquidityToken */\n      0xffffffffffffffffffffffffffffffffffffffff\n      and\n      0x43cd8f7e\n        /* \"contracts/SecuritizeRedemption.sol\":2663:2697  liquidityProvider.liquidityToken() */\n      mload(0x40)\n      dup2\n      0xffffffff\n      and\n      0xe0\n      shl\n      dup2\n      mstore\n      0x04\n      add\n      0x20\n      mload(0x40)\n      dup1\n      dup4\n      sub\n      dup2\n      dup7\n      gas\n      staticcall\n      iszero\n      dup1\n      iszero\n      tag_38\n      jumpi\n      returndatasize\n      0x00\n      dup1\n      returndatacopy\n      revert(0x00, returndatasize)\n    tag_38:\n      pop\n      pop\n      pop\n      pop\n      mload(0x40)\n      returndatasize\n      not(0x1f)\n      0x1f\n      dup3\n      add\n      and\n      dup3\n      add\n      dup1\n      0x40\n      mstore\n      pop\n      dup2\n      add\n      swap1\n      tag_39\n      swap2\n      swap1\n      tag_40\n      jump\t// in\n    tag_39:\n        /* \"contracts/SecuritizeRedemption.sol\":2610:2707  address liquidityTokenAddress = address(... */\n      swap1\n      pop\n        /* \"contracts/SecuritizeRedemption.sol\":2717:2742  uint256 liquidityDecimals */\n      0x00\n        /* \"contracts/SecuritizeRedemption.sol\":2751:2772  liquidityTokenAddress */\n      dup2\n        /* \"contracts/SecuritizeRedemption.sol\":2745:2782  ERC20(liquidityTokenAddress).decimals */\n      0xffffffffffffffffffffffffffffffffffffffff\n      and\n      0x313ce567\n        /* \"contracts/SecuritizeRedemption.sol\":2745:2784  ERC20(liquidityTokenAddress).decimals() */\n      mload(0x40)\n      dup2\n      0xffffffff\n      and\n      0xe0\n      shl\n      dup2\n      mstore\n      0x04\n      add\n      0x20\n      mload(0x40)\n      dup1\n      dup4\n      sub\n      dup2\n      dup7\n      gas\n      staticcall\n      iszero\n      dup1\n      iszero\n      tag_42\n      jumpi\n      returndatasize\n      0x00\n      dup1\n      returndatacopy\n      revert(0x00, returndatasize)\n    tag_42:\n      pop\n      pop\n      pop\n      pop\n      mload(0x40)\n      returndatasize\n      not(0x1f)\n      0x1f\n      dup3\n      add\n      and\n      dup3\n      add\n      dup1\n      0x40\n      mstore\n      pop\n      dup2\n      add\n      swap1\n      tag_43\n      swap2\n      swap1\n      tag_44\n      jump\t// in\n    tag_43:\n        /* \"contracts/SecuritizeRedemption.sol\":2717:2784  uint256 liquidityDecimals = ERC20(liquidityTokenAddress).decimals() */\n      0xff\n      and\n      swap1\n      pop\n        /* \"contracts/SecuritizeRedemption.sol\":2795:2816  uint256 assetDecimals */\n      0x00\n        /* \"contracts/SecuritizeRedemption.sol\":2833:2838  asset */\n      0x01\n      0x00\n      swap1\n      sload\n      swap1\n      0x0100\n      exp\n      swap1\n      div\n      0xffffffffffffffffffffffffffffffffffffffff\n      and\n        /* \"contracts/SecuritizeRedemption.sol\":2819:2849  ERC20(address(asset)).decimals */\n      0xffffffffffffffffffffffffffffffffffffffff\n      and\n      0x313ce567\n        /* \"contracts/SecuritizeRedemption.sol\":2819:2851  ERC20(address(asset)).decimals() */\n      mload(0x40)\n      dup2\n      0xffffffff\n      and\n      0xe0\n      shl\n      dup2\n      mstore\n      0x04\n      add\n      0x20\n      mload(0x40)\n      dup1\n      dup4\n      sub\n      dup2\n      dup7\n      gas\n      staticcall\n      iszero\n      dup1\n      iszero\n      tag_46\n      jumpi\n      returndatasize\n      0x00\n      dup1\n      returndatacopy\n      revert(0x00, returndatasize)\n    tag_46:\n      pop\n      pop\n      pop\n      pop\n      mload(0x40)\n      returndatasize\n      not(0x1f)\n      0x1f\n      dup3\n      add\n      and\n      dup3\n      add\n      dup1\n      0x40\n      mstore\n      pop\n      dup2\n      add\n      swap1\n      tag_47\n      swap2\n      swap1\n      tag_44\n      jump\t// in\n    tag_47:\n        /* \"contracts/SecuritizeRedemption.sol\":2795:2851  uint256 assetDecimals = ERC20(address(asset)).decimals() */\n      0xff\n      and\n      swap1\n      pop\n        /* \"contracts/SecuritizeRedemption.sol\":2862:2883  uint256 scalingFactor */\n      0x00\n        /* \"contracts/SecuritizeRedemption.sol\":2917:2930  assetDecimals */\n      dup2\n        /* \"contracts/SecuritizeRedemption.sol\":2897:2914  liquidityDecimals */\n      dup4\n        /* \"contracts/SecuritizeRedemption.sol\":2897:2930  liquidityDecimals > assetDecimals */\n      gt\n        /* \"contracts/SecuritizeRedemption.sol\":2893:3093  if (liquidityDecimals > assetDecimals) {... */\n      iszero\n      tag_48\n      jumpi\n        /* \"contracts/SecuritizeRedemption.sol\":2987:3000  assetDecimals */\n      dup2\n        /* \"contracts/SecuritizeRedemption.sol\":2967:2984  liquidityDecimals */\n      dup4\n        /* \"contracts/SecuritizeRedemption.sol\":2967:3000  liquidityDecimals - assetDecimals */\n      tag_49\n      swap2\n      swap1\n      tag_50\n      jump\t// in\n    tag_49:\n        /* \"contracts/SecuritizeRedemption.sol\":2962:2964  10 */\n      0x0a\n        /* \"contracts/SecuritizeRedemption.sol\":2962:3001  10**(liquidityDecimals - assetDecimals) */\n      tag_51\n      swap2\n      swap1\n      tag_52\n      jump\t// in\n    tag_51:\n        /* \"contracts/SecuritizeRedemption.sol\":2946:3001  scalingFactor = 10**(liquidityDecimals - assetDecimals) */\n      swap1\n      pop\n        /* \"contracts/SecuritizeRedemption.sol\":3064:3081  liquidityDecimals */\n      dup3\n        /* \"contracts/SecuritizeRedemption.sol\":3060:3062  10 */\n      0x0a\n        /* \"contracts/SecuritizeRedemption.sol\":3060:3081  10**liquidityDecimals */\n      tag_53\n      swap2\n      swap1\n      tag_52\n      jump\t// in\n    tag_53:\n        /* \"contracts/SecuritizeRedemption.sol\":3042:3055  scalingFactor */\n      dup2\n        /* \"contracts/SecuritizeRedemption.sol\":3034:3038  rate */\n      dup7\n        /* \"contracts/SecuritizeRedemption.sol\":3024:3031  _amount */\n      dup9\n        /* \"contracts/SecuritizeRedemption.sol\":3024:3038  _amount * rate */\n      tag_54\n      swap2\n      swap1\n      tag_55\n      jump\t// in\n    tag_54:\n        /* \"contracts/SecuritizeRedemption.sol\":3023:3055  (_amount * rate) * scalingFactor */\n      tag_56\n      swap2\n      swap1\n      tag_55\n      jump\t// in\n    tag_56:\n        /* \"contracts/SecuritizeRedemption.sol\":3022:3082  ((_amount * rate) * scalingFactor) / (10**liquidityDecimals) */\n      tag_57\n      swap2\n      swap1\n      tag_58\n      jump\t// in\n    tag_57:\n        /* \"contracts/SecuritizeRedemption.sol\":3015:3082  return ((_amount * rate) * scalingFactor) / (10**liquidityDecimals) */\n      swap7\n      pop\n      pop\n      pop\n      pop\n      pop\n      pop\n      pop\n      jump(tag_36)\n        /* \"contracts/SecuritizeRedemption.sol\":2893:3093  if (liquidityDecimals > assetDecimals) {... */\n    tag_48:\n        /* \"contracts/SecuritizeRedemption.sol\":3126:3139  assetDecimals */\n      dup2\n        /* \"contracts/SecuritizeRedemption.sol\":3106:3123  liquidityDecimals */\n      dup4\n        /* \"contracts/SecuritizeRedemption.sol\":3106:3139  liquidityDecimals < assetDecimals */\n      lt\n        /* \"contracts/SecuritizeRedemption.sol\":3102:3300  if (liquidityDecimals < assetDecimals) {... */\n      iszero\n      tag_59\n      jumpi\n        /* \"contracts/SecuritizeRedemption.sol\":3192:3209  liquidityDecimals */\n      dup3\n        /* \"contracts/SecuritizeRedemption.sol\":3176:3189  assetDecimals */\n      dup3\n        /* \"contracts/SecuritizeRedemption.sol\":3176:3209  assetDecimals - liquidityDecimals */\n      tag_60\n      swap2\n      swap1\n      tag_50\n      jump\t// in\n    tag_60:\n        /* \"contracts/SecuritizeRedemption.sol\":3171:3173  10 */\n      0x0a\n        /* \"contracts/SecuritizeRedemption.sol\":3171:3210  10**(assetDecimals - liquidityDecimals) */\n      tag_61\n      swap2\n      swap1\n      tag_52\n      jump\t// in\n    tag_61:\n        /* \"contracts/SecuritizeRedemption.sol\":3155:3210  scalingFactor = 10**(assetDecimals - liquidityDecimals) */\n      swap1\n      pop\n        /* \"contracts/SecuritizeRedemption.sol\":3271:3288  liquidityDecimals */\n      dup3\n        /* \"contracts/SecuritizeRedemption.sol\":3267:3269  10 */\n      0x0a\n        /* \"contracts/SecuritizeRedemption.sol\":3267:3288  10**liquidityDecimals */\n      tag_62\n      swap2\n      swap1\n      tag_52\n      jump\t// in\n    tag_62:\n        /* \"contracts/SecuritizeRedemption.sol\":3250:3263  scalingFactor */\n      dup2\n        /* \"contracts/SecuritizeRedemption.sol\":3242:3246  rate */\n      dup7\n        /* \"contracts/SecuritizeRedemption.sol\":3232:3239  _amount */\n      dup9\n        /* \"contracts/SecuritizeRedemption.sol\":3232:3246  _amount * rate */\n      tag_63\n      swap2\n      swap1\n      tag_55\n      jump\t// in\n    tag_63:\n        /* \"contracts/SecuritizeRedemption.sol\":3231:3263  (_amount * rate) / scalingFactor */\n      tag_64\n      swap2\n      swap1\n      tag_58\n      jump\t// in\n    tag_64:\n        /* \"contracts/SecuritizeRedemption.sol\":3231:3289  (_amount * rate) / scalingFactor / (10**liquidityDecimals) */\n      tag_65\n      swap2\n      swap1\n      tag_58\n      jump\t// in\n    tag_65:\n        /* \"contracts/SecuritizeRedemption.sol\":3224:3289  return (_amount * rate) / scalingFactor / (10**liquidityDecimals) */\n      swap7\n      pop\n      pop\n      pop\n      pop\n      pop\n      pop\n      pop\n      jump(tag_36)\n        /* \"contracts/SecuritizeRedemption.sol\":3102:3300  if (liquidityDecimals < assetDecimals) {... */\n    tag_59:\n        /* \"contracts/SecuritizeRedemption.sol\":3340:3353  assetDecimals */\n      dup2\n        /* \"contracts/SecuritizeRedemption.sol\":3336:3338  10 */\n      0x0a\n        /* \"contracts/SecuritizeRedemption.sol\":3336:3353  10**assetDecimals */\n      tag_66\n      swap2\n      swap1\n      tag_52\n      jump\t// in\n    tag_66:\n        /* \"contracts/SecuritizeRedemption.sol\":3327:3331  rate */\n      dup6\n        /* \"contracts/SecuritizeRedemption.sol\":3317:3324  _amount */\n      dup8\n        /* \"contracts/SecuritizeRedemption.sol\":3317:3331  _amount * rate */\n      tag_67\n      swap2\n      swap1\n      tag_55\n      jump\t// in\n    tag_67:\n        /* \"contracts/SecuritizeRedemption.sol\":3316:3354  (_amount * rate) / (10**assetDecimals) */\n      tag_68\n      swap2\n      swap1\n      tag_58\n      jump\t// in\n    tag_68:\n        /* \"contracts/SecuritizeRedemption.sol\":3309:3354  return (_amount * rate) / (10**assetDecimals) */\n      swap7\n      pop\n      pop\n      pop\n      pop\n      pop\n      pop\n      pop\n        /* \"contracts/SecuritizeRedemption.sol\":2452:3361  function calculateWithScalingFactor() public view returns (uint256) {... */\n    tag_36:\n      swap1\n      jump\t// out\n        /* \"contracts/SecuritizeRedemption.sol\":1583:2446  function calculateOrig() public view returns (uint256) {... */\n    tag_24:\n        /* \"contracts/SecuritizeRedemption.sol\":1629:1636  uint256 */\n      0x00\n        /* \"contracts/SecuritizeRedemption.sol\":1648:1663  uint256 _amount */\n      dup1\n        /* \"contracts/SecuritizeRedemption.sol\":1666:1685  1000000000000000000 */\n      0x0de0b6b3a7640000\n        /* \"contracts/SecuritizeRedemption.sol\":1648:1685  uint256 _amount = 1000000000000000000 */\n      swap1\n      pop\n        /* \"contracts/SecuritizeRedemption.sol\":1695:1707  uint256 rate */\n      0x00\n        /* \"contracts/SecuritizeRedemption.sol\":1710:1717  2000000 */\n      0x1e8480\n        /* \"contracts/SecuritizeRedemption.sol\":1695:1717  uint256 rate = 2000000 */\n      swap1\n      pop\n        /* \"contracts/SecuritizeRedemption.sol\":1728:1757  address liquidityTokenAddress */\n      0x00\n        /* \"contracts/SecuritizeRedemption.sol\":1781:1798  liquidityProvider */\n      dup1\n      0x00\n      swap1\n      sload\n      swap1\n      0x0100\n      exp\n      swap1\n      div\n      0xffffffffffffffffffffffffffffffffffffffff\n      and\n        /* \"contracts/SecuritizeRedemption.sol\":1781:1813  liquidityProvider.liquidityToken */\n      0xffffffffffffffffffffffffffffffffffffffff\n      and\n      0x43cd8f7e\n        /* \"contracts/SecuritizeRedemption.sol\":1781:1815  liquidityProvider.liquidityToken() */\n      mload(0x40)\n      dup2\n      0xffffffff\n      and\n      0xe0\n      shl\n      dup2\n      mstore\n      0x04\n      add\n      0x20\n      mload(0x40)\n      dup1\n      dup4\n      sub\n      dup2\n      dup7\n      gas\n      staticcall\n      iszero\n      dup1\n      iszero\n      tag_71\n      jumpi\n      returndatasize\n      0x00\n      dup1\n      returndatacopy\n      revert(0x00, returndatasize)\n    tag_71:\n      pop\n      pop\n      pop\n      pop\n      mload(0x40)\n      returndatasize\n      not(0x1f)\n      0x1f\n      dup3\n      add\n      and\n      dup3\n      add\n      dup1\n      0x40\n      mstore\n      pop\n      dup2\n      add\n      swap1\n      tag_72\n      swap2\n      swap1\n      tag_40\n      jump\t// in\n    tag_72:\n        /* \"contracts/SecuritizeRedemption.sol\":1728:1825  address liquidityTokenAddress = address(... */\n      swap1\n      pop\n        /* \"contracts/SecuritizeRedemption.sol\":1835:1860  uint256 liquidityDecimals */\n      0x00\n        /* \"contracts/SecuritizeRedemption.sol\":1869:1890  liquidityTokenAddress */\n      dup2\n        /* \"contracts/SecuritizeRedemption.sol\":1863:1900  ERC20(liquidityTokenAddress).decimals */\n      0xffffffffffffffffffffffffffffffffffffffff\n      and\n      0x313ce567\n        /* \"contracts/SecuritizeRedemption.sol\":1863:1902  ERC20(liquidityTokenAddress).decimals() */\n      mload(0x40)\n      dup2\n      0xffffffff\n      and\n      0xe0\n      shl\n      dup2\n      mstore\n      0x04\n      add\n      0x20\n      mload(0x40)\n      dup1\n      dup4\n      sub\n      dup2\n      dup7\n      gas\n      staticcall\n      iszero\n      dup1\n      iszero\n      tag_74\n      jumpi\n      returndatasize\n      0x00\n      dup1\n      returndatacopy\n      revert(0x00, returndatasize)\n    tag_74:\n      pop\n      pop\n      pop\n      pop\n      mload(0x40)\n      returndatasize\n      not(0x1f)\n      0x1f\n      dup3\n      add\n      and\n      dup3\n      add\n      dup1\n      0x40\n      mstore\n      pop\n      dup2\n      add\n      swap1\n      tag_75\n      swap2\n      swap1\n      tag_44\n      jump\t// in\n    tag_75:\n        /* \"contracts/SecuritizeRedemption.sol\":1835:1902  uint256 liquidityDecimals = ERC20(liquidityTokenAddress).decimals() */\n      0xff\n      and\n      swap1\n      pop\n        /* \"contracts/SecuritizeRedemption.sol\":1913:1934  uint256 assetDecimals */\n      0x00\n        /* \"contracts/SecuritizeRedemption.sol\":1951:1956  asset */\n      0x01\n      0x00\n      swap1\n      sload\n      swap1\n      0x0100\n      exp\n      swap1\n      div\n      0xffffffffffffffffffffffffffffffffffffffff\n      and\n        /* \"contracts/SecuritizeRedemption.sol\":1937:1967  ERC20(address(asset)).decimals */\n      0xffffffffffffffffffffffffffffffffffffffff\n      and\n      0x313ce567\n        /* \"contracts/SecuritizeRedemption.sol\":1937:1969  ERC20(address(asset)).decimals() */\n      mload(0x40)\n      dup2\n      0xffffffff\n      and\n      0xe0\n      shl\n      dup2\n      mstore\n      0x04\n      add\n      0x20\n      mload(0x40)\n      dup1\n      dup4\n      sub\n      dup2\n      dup7\n      gas\n      staticcall\n      iszero\n      dup1\n      iszero\n      tag_77\n      jumpi\n      returndatasize\n      0x00\n      dup1\n      returndatacopy\n      revert(0x00, returndatasize)\n    tag_77:\n      pop\n      pop\n      pop\n      pop\n      mload(0x40)\n      returndatasize\n      not(0x1f)\n      0x1f\n      dup3\n      add\n      and\n      dup3\n      add\n      dup1\n      0x40\n      mstore\n      pop\n      dup2\n      add\n      swap1\n      tag_78\n      swap2\n      swap1\n      tag_44\n      jump\t// in\n    tag_78:\n        /* \"contracts/SecuritizeRedemption.sol\":1913:1969  uint256 assetDecimals = ERC20(address(asset)).decimals() */\n      0xff\n      and\n      swap1\n      pop\n        /* \"contracts/SecuritizeRedemption.sol\":2004:2017  assetDecimals */\n      dup1\n        /* \"contracts/SecuritizeRedemption.sol\":1984:2001  liquidityDecimals */\n      dup3\n        /* \"contracts/SecuritizeRedemption.sol\":1984:2017  liquidityDecimals > assetDecimals */\n      gt\n        /* \"contracts/SecuritizeRedemption.sol\":1980:2171  if (liquidityDecimals > assetDecimals) {... */\n      iszero\n      tag_79\n      jumpi\n        /* \"contracts/SecuritizeRedemption.sol\":2142:2159  liquidityDecimals */\n      dup2\n        /* \"contracts/SecuritizeRedemption.sol\":2138:2140  10 */\n      0x0a\n        /* \"contracts/SecuritizeRedemption.sol\":2138:2159  10**liquidityDecimals */\n      tag_80\n      swap2\n      swap1\n      tag_52\n      jump\t// in\n    tag_80:\n        /* \"contracts/SecuritizeRedemption.sol\":2102:2115  assetDecimals */\n      dup2\n        /* \"contracts/SecuritizeRedemption.sol\":2082:2099  liquidityDecimals */\n      dup4\n        /* \"contracts/SecuritizeRedemption.sol\":2082:2115  liquidityDecimals - assetDecimals */\n      tag_81\n      swap2\n      swap1\n      tag_50\n      jump\t// in\n    tag_81:\n        /* \"contracts/SecuritizeRedemption.sol\":2077:2079  10 */\n      0x0a\n        /* \"contracts/SecuritizeRedemption.sol\":2077:2116  10**(liquidityDecimals - assetDecimals) */\n      tag_82\n      swap2\n      swap1\n      tag_52\n      jump\t// in\n    tag_82:\n        /* \"contracts/SecuritizeRedemption.sol\":2068:2072  rate */\n      dup6\n        /* \"contracts/SecuritizeRedemption.sol\":2058:2065  _amount */\n      dup8\n        /* \"contracts/SecuritizeRedemption.sol\":2058:2072  _amount * rate */\n      tag_83\n      swap2\n      swap1\n      tag_55\n      jump\t// in\n    tag_83:\n        /* \"contracts/SecuritizeRedemption.sol\":2057:2117  (_amount * rate) * (10**(liquidityDecimals - assetDecimals)) */\n      tag_84\n      swap2\n      swap1\n      tag_55\n      jump\t// in\n    tag_84:\n        /* \"contracts/SecuritizeRedemption.sol\":2056:2160  ((_amount * rate) * (10**(liquidityDecimals - assetDecimals))) /... */\n      tag_85\n      swap2\n      swap1\n      tag_58\n      jump\t// in\n    tag_85:\n        /* \"contracts/SecuritizeRedemption.sol\":2033:2160  return... */\n      swap6\n      pop\n      pop\n      pop\n      pop\n      pop\n      pop\n      jump(tag_69)\n        /* \"contracts/SecuritizeRedemption.sol\":1980:2171  if (liquidityDecimals > assetDecimals) {... */\n    tag_79:\n        /* \"contracts/SecuritizeRedemption.sol\":2204:2217  assetDecimals */\n      dup1\n        /* \"contracts/SecuritizeRedemption.sol\":2184:2201  liquidityDecimals */\n      dup3\n        /* \"contracts/SecuritizeRedemption.sol\":2184:2217  liquidityDecimals < assetDecimals */\n      lt\n        /* \"contracts/SecuritizeRedemption.sol\":2180:2385  if (liquidityDecimals < assetDecimals) {... */\n      iszero\n      tag_86\n      jumpi\n        /* \"contracts/SecuritizeRedemption.sol\":2356:2373  liquidityDecimals */\n      dup2\n        /* \"contracts/SecuritizeRedemption.sol\":2352:2354  10 */\n      0x0a\n        /* \"contracts/SecuritizeRedemption.sol\":2352:2373  10**liquidityDecimals */\n      tag_87\n      swap2\n      swap1\n      tag_52\n      jump\t// in\n    tag_87:\n        /* \"contracts/SecuritizeRedemption.sol\":2313:2330  liquidityDecimals */\n      dup3\n        /* \"contracts/SecuritizeRedemption.sol\":2297:2310  assetDecimals */\n      dup3\n        /* \"contracts/SecuritizeRedemption.sol\":2297:2330  assetDecimals - liquidityDecimals */\n      tag_88\n      swap2\n      swap1\n      tag_50\n      jump\t// in\n    tag_88:\n        /* \"contracts/SecuritizeRedemption.sol\":2292:2294  10 */\n      0x0a\n        /* \"contracts/SecuritizeRedemption.sol\":2292:2331  10**(assetDecimals - liquidityDecimals) */\n      tag_89\n      swap2\n      swap1\n      tag_52\n      jump\t// in\n    tag_89:\n        /* \"contracts/SecuritizeRedemption.sol\":2267:2271  rate */\n      dup6\n        /* \"contracts/SecuritizeRedemption.sol\":2257:2264  _amount */\n      dup8\n        /* \"contracts/SecuritizeRedemption.sol\":2257:2271  _amount * rate */\n      tag_90\n      swap2\n      swap1\n      tag_55\n      jump\t// in\n    tag_90:\n        /* \"contracts/SecuritizeRedemption.sol\":2256:2332  (_amount * rate) /... */\n      tag_91\n      swap2\n      swap1\n      tag_58\n      jump\t// in\n    tag_91:\n        /* \"contracts/SecuritizeRedemption.sol\":2256:2374  (_amount * rate) /... */\n      tag_92\n      swap2\n      swap1\n      tag_58\n      jump\t// in\n    tag_92:\n        /* \"contracts/SecuritizeRedemption.sol\":2233:2374  return... */\n      swap6\n      pop\n      pop\n      pop\n      pop\n      pop\n      pop\n      jump(tag_69)\n        /* \"contracts/SecuritizeRedemption.sol\":2180:2385  if (liquidityDecimals < assetDecimals) {... */\n    tag_86:\n        /* \"contracts/SecuritizeRedemption.sol\":2425:2438  assetDecimals */\n      dup1\n        /* \"contracts/SecuritizeRedemption.sol\":2421:2423  10 */\n      0x0a\n        /* \"contracts/SecuritizeRedemption.sol\":2421:2438  10**assetDecimals */\n      tag_93\n      swap2\n      swap1\n      tag_52\n      jump\t// in\n    tag_93:\n        /* \"contracts/SecuritizeRedemption.sol\":2412:2416  rate */\n      dup5\n        /* \"contracts/SecuritizeRedemption.sol\":2402:2409  _amount */\n      dup7\n        /* \"contracts/SecuritizeRedemption.sol\":2402:2416  _amount * rate */\n      tag_94\n      swap2\n      swap1\n      tag_55\n      jump\t// in\n    tag_94:\n        /* \"contracts/SecuritizeRedemption.sol\":2401:2439  (_amount * rate) / (10**assetDecimals) */\n      tag_95\n      swap2\n      swap1\n      tag_58\n      jump\t// in\n    tag_95:\n        /* \"contracts/SecuritizeRedemption.sol\":2394:2439  return (_amount * rate) / (10**assetDecimals) */\n      swap6\n      pop\n      pop\n      pop\n      pop\n      pop\n      pop\n        /* \"contracts/SecuritizeRedemption.sol\":1583:2446  function calculateOrig() public view returns (uint256) {... */\n    tag_69:\n      swap1\n      jump\t// out\n        /* \"contracts/SecuritizeRedemption.sol\":3380:4184  function calculateWithCachedDecimals() public view returns (uint256) {... */\n    tag_27:\n        /* \"contracts/SecuritizeRedemption.sol\":3440:3447  uint256 */\n      0x00\n        /* \"contracts/SecuritizeRedemption.sol\":3459:3474  uint256 _amount */\n      dup1\n        /* \"contracts/SecuritizeRedemption.sol\":3477:3496  1000000000000000000 */\n      0x0de0b6b3a7640000\n        /* \"contracts/SecuritizeRedemption.sol\":3459:3496  uint256 _amount = 1000000000000000000 */\n      swap1\n      pop\n        /* \"contracts/SecuritizeRedemption.sol\":3506:3518  uint256 rate */\n      0x00\n        /* \"contracts/SecuritizeRedemption.sol\":3521:3528  2000000 */\n      0x1e8480\n        /* \"contracts/SecuritizeRedemption.sol\":3506:3528  uint256 rate = 2000000 */\n      swap1\n      pop\n        /* \"contracts/SecuritizeRedemption.sol\":3539:3560  uint256 scalingFactor */\n      0x00\n        /* \"contracts/SecuritizeRedemption.sol\":3600:3619  cachedAssetDecimals */\n      sload(0x03)\n        /* \"contracts/SecuritizeRedemption.sol\":3574:3597  cachedLiquidityDecimals */\n      sload(0x02)\n        /* \"contracts/SecuritizeRedemption.sol\":3574:3619  cachedLiquidityDecimals > cachedAssetDecimals */\n      gt\n        /* \"contracts/SecuritizeRedemption.sol\":3570:3832  if (cachedLiquidityDecimals > cachedAssetDecimals) {... */\n      iszero\n      tag_97\n      jumpi\n        /* \"contracts/SecuritizeRedemption.sol\":3682:3701  cachedAssetDecimals */\n      sload(0x03)\n        /* \"contracts/SecuritizeRedemption.sol\":3656:3679  cachedLiquidityDecimals */\n      sload(0x02)\n        /* \"contracts/SecuritizeRedemption.sol\":3656:3701  cachedLiquidityDecimals - cachedAssetDecimals */\n      tag_98\n      swap2\n      swap1\n      tag_50\n      jump\t// in\n    tag_98:\n        /* \"contracts/SecuritizeRedemption.sol\":3651:3653  10 */\n      0x0a\n        /* \"contracts/SecuritizeRedemption.sol\":3651:3702  10**(cachedLiquidityDecimals - cachedAssetDecimals) */\n      tag_99\n      swap2\n      swap1\n      tag_52\n      jump\t// in\n    tag_99:\n        /* \"contracts/SecuritizeRedemption.sol\":3635:3702  scalingFactor = 10**(cachedLiquidityDecimals - cachedAssetDecimals) */\n      swap1\n      pop\n        /* \"contracts/SecuritizeRedemption.sol\":3797:3820  cachedLiquidityDecimals */\n      sload(0x02)\n        /* \"contracts/SecuritizeRedemption.sol\":3793:3795  10 */\n      0x0a\n        /* \"contracts/SecuritizeRedemption.sol\":3793:3820  10**cachedLiquidityDecimals */\n      tag_100\n      swap2\n      swap1\n      tag_52\n      jump\t// in\n    tag_100:\n        /* \"contracts/SecuritizeRedemption.sol\":3759:3772  scalingFactor */\n      dup2\n        /* \"contracts/SecuritizeRedemption.sol\":3751:3755  rate */\n      dup4\n        /* \"contracts/SecuritizeRedemption.sol\":3741:3748  _amount */\n      dup6\n        /* \"contracts/SecuritizeRedemption.sol\":3741:3755  _amount * rate */\n      tag_101\n      swap2\n      swap1\n      tag_55\n      jump\t// in\n    tag_101:\n        /* \"contracts/SecuritizeRedemption.sol\":3740:3772  (_amount * rate) * scalingFactor */\n      tag_102\n      swap2\n      swap1\n      tag_55\n      jump\t// in\n    tag_102:\n        /* \"contracts/SecuritizeRedemption.sol\":3739:3821  ((_amount * rate) * scalingFactor) /... */\n      tag_103\n      swap2\n      swap1\n      tag_58\n      jump\t// in\n    tag_103:\n        /* \"contracts/SecuritizeRedemption.sol\":3716:3821  return... */\n      swap4\n      pop\n      pop\n      pop\n      pop\n      jump(tag_96)\n        /* \"contracts/SecuritizeRedemption.sol\":3570:3832  if (cachedLiquidityDecimals > cachedAssetDecimals) {... */\n    tag_97:\n        /* \"contracts/SecuritizeRedemption.sol\":3871:3890  cachedAssetDecimals */\n      sload(0x03)\n        /* \"contracts/SecuritizeRedemption.sol\":3845:3868  cachedLiquidityDecimals */\n      sload(0x02)\n        /* \"contracts/SecuritizeRedemption.sol\":3845:3890  cachedLiquidityDecimals < cachedAssetDecimals */\n      lt\n        /* \"contracts/SecuritizeRedemption.sol\":3841:4117  if (cachedLiquidityDecimals < cachedAssetDecimals) {... */\n      iszero\n      tag_104\n      jumpi\n        /* \"contracts/SecuritizeRedemption.sol\":3949:3972  cachedLiquidityDecimals */\n      sload(0x02)\n        /* \"contracts/SecuritizeRedemption.sol\":3927:3946  cachedAssetDecimals */\n      sload(0x03)\n        /* \"contracts/SecuritizeRedemption.sol\":3927:3972  cachedAssetDecimals - cachedLiquidityDecimals */\n      tag_105\n      swap2\n      swap1\n      tag_50\n      jump\t// in\n    tag_105:\n        /* \"contracts/SecuritizeRedemption.sol\":3922:3924  10 */\n      0x0a\n        /* \"contracts/SecuritizeRedemption.sol\":3922:3973  10**(cachedAssetDecimals - cachedLiquidityDecimals) */\n      tag_106\n      swap2\n      swap1\n      tag_52\n      jump\t// in\n    tag_106:\n        /* \"contracts/SecuritizeRedemption.sol\":3906:3973  scalingFactor = 10**(cachedAssetDecimals - cachedLiquidityDecimals) */\n      swap1\n      pop\n        /* \"contracts/SecuritizeRedemption.sol\":4082:4105  cachedLiquidityDecimals */\n      sload(0x02)\n        /* \"contracts/SecuritizeRedemption.sol\":4078:4080  10 */\n      0x0a\n        /* \"contracts/SecuritizeRedemption.sol\":4078:4105  10**cachedLiquidityDecimals */\n      tag_107\n      swap2\n      swap1\n      tag_52\n      jump\t// in\n    tag_107:\n        /* \"contracts/SecuritizeRedemption.sol\":4045:4058  scalingFactor */\n      dup2\n        /* \"contracts/SecuritizeRedemption.sol\":4021:4025  rate */\n      dup4\n        /* \"contracts/SecuritizeRedemption.sol\":4011:4018  _amount */\n      dup6\n        /* \"contracts/SecuritizeRedemption.sol\":4011:4025  _amount * rate */\n      tag_108\n      swap2\n      swap1\n      tag_55\n      jump\t// in\n    tag_108:\n        /* \"contracts/SecuritizeRedemption.sol\":4010:4058  (_amount * rate) /... */\n      tag_109\n      swap2\n      swap1\n      tag_58\n      jump\t// in\n    tag_109:\n        /* \"contracts/SecuritizeRedemption.sol\":4010:4106  (_amount * rate) /... */\n      tag_110\n      swap2\n      swap1\n      tag_58\n      jump\t// in\n    tag_110:\n        /* \"contracts/SecuritizeRedemption.sol\":3987:4106  return... */\n      swap4\n      pop\n      pop\n      pop\n      pop\n      jump(tag_96)\n        /* \"contracts/SecuritizeRedemption.sol\":3841:4117  if (cachedLiquidityDecimals < cachedAssetDecimals) {... */\n    tag_104:\n        /* \"contracts/SecuritizeRedemption.sol\":4157:4176  cachedAssetDecimals */\n      sload(0x03)\n        /* \"contracts/SecuritizeRedemption.sol\":4153:4155  10 */\n      0x0a\n        /* \"contracts/SecuritizeRedemption.sol\":4153:4176  10**cachedAssetDecimals */\n      tag_111\n      swap2\n      swap1\n      tag_52\n      jump\t// in\n    tag_111:\n        /* \"contracts/SecuritizeRedemption.sol\":4144:4148  rate */\n      dup3\n        /* \"contracts/SecuritizeRedemption.sol\":4134:4141  _amount */\n      dup5\n        /* \"contracts/SecuritizeRedemption.sol\":4134:4148  _amount * rate */\n      tag_112\n      swap2\n      swap1\n      tag_55\n      jump\t// in\n    tag_112:\n        /* \"contracts/SecuritizeRedemption.sol\":4133:4177  (_amount * rate) / (10**cachedAssetDecimals) */\n      tag_113\n      swap2\n      swap1\n      tag_58\n      jump\t// in\n    tag_113:\n        /* \"contracts/SecuritizeRedemption.sol\":4126:4177  return (_amount * rate) / (10**cachedAssetDecimals) */\n      swap4\n      pop\n      pop\n      pop\n      pop\n        /* \"contracts/SecuritizeRedemption.sol\":3380:4184  function calculateWithCachedDecimals() public view returns (uint256) {... */\n    tag_96:\n      swap1\n      jump\t// out\n        /* \"contracts/SecuritizeRedemption.sol\":1081:1474  function updateLiquidityProvider(address _liquidityProvider) external {... */\n    tag_32:\n        /* \"contracts/SecuritizeRedemption.sol\":1200:1218  _liquidityProvider */\n      dup1\n        /* \"contracts/SecuritizeRedemption.sol\":1161:1178  liquidityProvider */\n      0x00\n      dup1\n        /* \"contracts/SecuritizeRedemption.sol\":1161:1219  liquidityProvider = ILiquidityProvider(_liquidityProvider) */\n      0x0100\n      exp\n      dup2\n      sload\n      dup2\n      0xffffffffffffffffffffffffffffffffffffffff\n      mul\n      not\n      and\n      swap1\n      dup4\n      0xffffffffffffffffffffffffffffffffffffffff\n      and\n      mul\n      or\n      swap1\n      sstore\n      pop\n        /* \"contracts/SecuritizeRedemption.sol\":1230:1259  address liquidityTokenAddress */\n      0x00\n        /* \"contracts/SecuritizeRedemption.sol\":1283:1300  liquidityProvider */\n      dup1\n      0x00\n      swap1\n      sload\n      swap1\n      0x0100\n      exp\n      swap1\n      div\n      0xffffffffffffffffffffffffffffffffffffffff\n      and\n        /* \"contracts/SecuritizeRedemption.sol\":1283:1315  liquidityProvider.liquidityToken */\n      0xffffffffffffffffffffffffffffffffffffffff\n      and\n      0x43cd8f7e\n        /* \"contracts/SecuritizeRedemption.sol\":1283:1317  liquidityProvider.liquidityToken() */\n      mload(0x40)\n      dup2\n      0xffffffff\n      and\n      0xe0\n      shl\n      dup2\n      mstore\n      0x04\n      add\n      0x20\n      mload(0x40)\n      dup1\n      dup4\n      sub\n      dup2\n      dup7\n      gas\n      staticcall\n      iszero\n      dup1\n      iszero\n      tag_116\n      jumpi\n      returndatasize\n      0x00\n      dup1\n      returndatacopy\n      revert(0x00, returndatasize)\n    tag_116:\n      pop\n      pop\n      pop\n      pop\n      mload(0x40)\n      returndatasize\n      not(0x1f)\n      0x1f\n      dup3\n      add\n      and\n      dup3\n      add\n      dup1\n      0x40\n      mstore\n      pop\n      dup2\n      add\n      swap1\n      tag_117\n      swap2\n      swap1\n      tag_40\n      jump\t// in\n    tag_117:\n        /* \"contracts/SecuritizeRedemption.sol\":1230:1327  address liquidityTokenAddress = address(... */\n      swap1\n      pop\n        /* \"contracts/SecuritizeRedemption.sol\":1370:1391  liquidityTokenAddress */\n      dup1\n        /* \"contracts/SecuritizeRedemption.sol\":1364:1401  ERC20(liquidityTokenAddress).decimals */\n      0xffffffffffffffffffffffffffffffffffffffff\n      and\n      0x313ce567\n        /* \"contracts/SecuritizeRedemption.sol\":1364:1403  ERC20(liquidityTokenAddress).decimals() */\n      mload(0x40)\n      dup2\n      0xffffffff\n      and\n      0xe0\n      shl\n      dup2\n      mstore\n      0x04\n      add\n      0x20\n      mload(0x40)\n      dup1\n      dup4\n      sub\n      dup2\n      dup7\n      gas\n      staticcall\n      iszero\n      dup1\n      iszero\n      tag_119\n      jumpi\n      returndatasize\n      0x00\n      dup1\n      returndatacopy\n      revert(0x00, returndatasize)\n    tag_119:\n      pop\n      pop\n      pop\n      pop\n      mload(0x40)\n      returndatasize\n      not(0x1f)\n      0x1f\n      dup3\n      add\n      and\n      dup3\n      add\n      dup1\n      0x40\n      mstore\n      pop\n      dup2\n      add\n      swap1\n      tag_120\n      swap2\n      swap1\n      tag_44\n      jump\t// in\n    tag_120:\n        /* \"contracts/SecuritizeRedemption.sol\":1338:1403  cachedLiquidityDecimals = ERC20(liquidityTokenAddress).decimals() */\n      0xff\n      and\n        /* \"contracts/SecuritizeRedemption.sol\":1338:1361  cachedLiquidityDecimals */\n      0x02\n        /* \"contracts/SecuritizeRedemption.sol\":1338:1403  cachedLiquidityDecimals = ERC20(liquidityTokenAddress).decimals() */\n      dup2\n      swap1\n      sstore\n      pop\n        /* \"contracts/SecuritizeRedemption.sol\":1449:1454  asset */\n      0x01\n      0x00\n      swap1\n      sload\n      swap1\n      0x0100\n      exp\n      swap1\n      div\n      0xffffffffffffffffffffffffffffffffffffffff\n      and\n        /* \"contracts/SecuritizeRedemption.sol\":1435:1465  ERC20(address(asset)).decimals */\n      0xffffffffffffffffffffffffffffffffffffffff\n      and\n      0x313ce567\n        /* \"contracts/SecuritizeRedemption.sol\":1435:1467  ERC20(address(asset)).decimals() */\n      mload(0x40)\n      dup2\n      0xffffffff\n      and\n      0xe0\n      shl\n      dup2\n      mstore\n      0x04\n      add\n      0x20\n      mload(0x40)\n      dup1\n      dup4\n      sub\n      dup2\n      dup7\n      gas\n      staticcall\n      iszero\n      dup1\n      iszero\n      tag_122\n      jumpi\n      returndatasize\n      0x00\n      dup1\n      returndatacopy\n      revert(0x00, returndatasize)\n    tag_122:\n      pop\n      pop\n      pop\n      pop\n      mload(0x40)\n      returndatasize\n      not(0x1f)\n      0x1f\n      dup3\n      add\n      and\n      dup3\n      add\n      dup1\n      0x40\n      mstore\n      pop\n      dup2\n      add\n      swap1\n      tag_123\n      swap2\n      swap1\n      tag_44\n      jump\t// in\n    tag_123:\n        /* \"contracts/SecuritizeRedemption.sol\":1413:1467  cachedAssetDecimals = ERC20(address(asset)).decimals() */\n      0xff\n      and\n        /* \"contracts/SecuritizeRedemption.sol\":1413:1432  cachedAssetDecimals */\n      0x03\n        /* \"contracts/SecuritizeRedemption.sol\":1413:1467  cachedAssetDecimals = ERC20(address(asset)).decimals() */\n      dup2\n      swap1\n      sstore\n      pop\n        /* \"contracts/SecuritizeRedemption.sol\":1151:1474  {... */\n      pop\n        /* \"contracts/SecuritizeRedemption.sol\":1081:1474  function updateLiquidityProvider(address _liquidityProvider) external {... */\n      pop\n      jump\t// out\n        /* \"contracts/SecuritizeRedemption.sol\":1480:1564  function updateAsset(address _asset) external {... */\n    tag_35:\n        /* \"contracts/SecuritizeRedemption.sol\":1550:1556  _asset */\n      dup1\n        /* \"contracts/SecuritizeRedemption.sol\":1536:1541  asset */\n      0x01\n      0x00\n        /* \"contracts/SecuritizeRedemption.sol\":1536:1557  asset = ERC20(_asset) */\n      0x0100\n      exp\n      dup2\n      sload\n      dup2\n      0xffffffffffffffffffffffffffffffffffffffff\n      mul\n      not\n      and\n      swap1\n      dup4\n      0xffffffffffffffffffffffffffffffffffffffff\n      and\n      mul\n      or\n      swap1\n      sstore\n      pop\n        /* \"contracts/SecuritizeRedemption.sol\":1480:1564  function updateAsset(address _asset) external {... */\n      pop\n      jump\t// out\n        /* \"#utility.yul\":7:133   */\n    tag_125:\n        /* \"#utility.yul\":44:51   */\n      0x00\n        /* \"#utility.yul\":84:126   */\n      0xffffffffffffffffffffffffffffffffffffffff\n        /* \"#utility.yul\":77:82   */\n      dup3\n        /* \"#utility.yul\":73:127   */\n      and\n        /* \"#utility.yul\":62:127   */\n      swap1\n      pop\n        /* \"#utility.yul\":7:133   */\n      swap2\n      swap1\n      pop\n      jump\t// out\n        /* \"#utility.yul\":139:199   */\n    tag_126:\n        /* \"#utility.yul\":167:170   */\n      0x00\n        /* \"#utility.yul\":188:193   */\n      dup2\n        /* \"#utility.yul\":181:193   */\n      swap1\n      pop\n        /* \"#utility.yul\":139:199   */\n      swap2\n      swap1\n      pop\n      jump\t// out\n        /* \"#utility.yul\":205:347   */\n    tag_127:\n        /* \"#utility.yul\":255:264   */\n      0x00\n        /* \"#utility.yul\":288:341   */\n      tag_156\n        /* \"#utility.yul\":306:340   */\n      tag_157\n        /* \"#utility.yul\":315:339   */\n      tag_158\n        /* \"#utility.yul\":333:338   */\n      dup5\n        /* \"#utility.yul\":315:339   */\n      tag_125\n      jump\t// in\n    tag_158:\n        /* \"#utility.yul\":306:340   */\n      tag_126\n      jump\t// in\n    tag_157:\n        /* \"#utility.yul\":288:341   */\n      tag_125\n      jump\t// in\n    tag_156:\n        /* \"#utility.yul\":275:341   */\n      swap1\n      pop\n        /* \"#utility.yul\":205:347   */\n      swap2\n      swap1\n      pop\n      jump\t// out\n        /* \"#utility.yul\":353:479   */\n    tag_128:\n        /* \"#utility.yul\":403:412   */\n      0x00\n        /* \"#utility.yul\":436:473   */\n      tag_160\n        /* \"#utility.yul\":467:472   */\n      dup3\n        /* \"#utility.yul\":436:473   */\n      tag_127\n      jump\t// in\n    tag_160:\n        /* \"#utility.yul\":423:473   */\n      swap1\n      pop\n        /* \"#utility.yul\":353:479   */\n      swap2\n      swap1\n      pop\n      jump\t// out\n        /* \"#utility.yul\":485:624   */\n    tag_129:\n        /* \"#utility.yul\":548:557   */\n      0x00\n        /* \"#utility.yul\":581:618   */\n      tag_162\n        /* \"#utility.yul\":612:617   */\n      dup3\n        /* \"#utility.yul\":581:618   */\n      tag_128\n      jump\t// in\n    tag_162:\n        /* \"#utility.yul\":568:618   */\n      swap1\n      pop\n        /* \"#utility.yul\":485:624   */\n      swap2\n      swap1\n      pop\n      jump\t// out\n        /* \"#utility.yul\":630:787   */\n    tag_130:\n        /* \"#utility.yul\":730:780   */\n      tag_164\n        /* \"#utility.yul\":774:779   */\n      dup2\n        /* \"#utility.yul\":730:780   */\n      tag_129\n      jump\t// in\n    tag_164:\n        /* \"#utility.yul\":725:728   */\n      dup3\n        /* \"#utility.yul\":718:781   */\n      mstore\n        /* \"#utility.yul\":630:787   */\n      pop\n      pop\n      jump\t// out\n        /* \"#utility.yul\":793:1041   */\n    tag_14:\n        /* \"#utility.yul\":899:903   */\n      0x00\n        /* \"#utility.yul\":937:939   */\n      0x20\n        /* \"#utility.yul\":926:935   */\n      dup3\n        /* \"#utility.yul\":922:940   */\n      add\n        /* \"#utility.yul\":914:940   */\n      swap1\n      pop\n        /* \"#utility.yul\":950:1034   */\n      tag_166\n        /* \"#utility.yul\":1031:1032   */\n      0x00\n        /* \"#utility.yul\":1020:1029   */\n      dup4\n        /* \"#utility.yul\":1016:1033   */\n      add\n        /* \"#utility.yul\":1007:1013   */\n      dup5\n        /* \"#utility.yul\":950:1034   */\n      tag_130\n      jump\t// in\n    tag_166:\n        /* \"#utility.yul\":793:1041   */\n      swap3\n      swap2\n      pop\n      pop\n      jump\t// out\n        /* \"#utility.yul\":1047:1199   */\n    tag_131:\n        /* \"#utility.yul\":1123:1132   */\n      0x00\n        /* \"#utility.yul\":1156:1193   */\n      tag_168\n        /* \"#utility.yul\":1187:1192   */\n      dup3\n        /* \"#utility.yul\":1156:1193   */\n      tag_128\n      jump\t// in\n    tag_168:\n        /* \"#utility.yul\":1143:1193   */\n      swap1\n      pop\n        /* \"#utility.yul\":1047:1199   */\n      swap2\n      swap1\n      pop\n      jump\t// out\n        /* \"#utility.yul\":1205:1388   */\n    tag_132:\n        /* \"#utility.yul\":1318:1381   */\n      tag_170\n        /* \"#utility.yul\":1375:1380   */\n      dup2\n        /* \"#utility.yul\":1318:1381   */\n      tag_131\n      jump\t// in\n    tag_170:\n        /* \"#utility.yul\":1313:1316   */\n      dup3\n        /* \"#utility.yul\":1306:1382   */\n      mstore\n        /* \"#utility.yul\":1205:1388   */\n      pop\n      pop\n      jump\t// out\n        /* \"#utility.yul\":1394:1668   */\n    tag_18:\n        /* \"#utility.yul\":1513:1517   */\n      0x00\n        /* \"#utility.yul\":1551:1553   */\n      0x20\n        /* \"#utility.yul\":1540:1549   */\n      dup3\n        /* \"#utility.yul\":1536:1554   */\n      add\n        /* \"#utility.yul\":1528:1554   */\n      swap1\n      pop\n        /* \"#utility.yul\":1564:1661   */\n      tag_172\n        /* \"#utility.yul\":1658:1659   */\n      0x00\n        /* \"#utility.yul\":1647:1656   */\n      dup4\n        /* \"#utility.yul\":1643:1660   */\n      add\n        /* \"#utility.yul\":1634:1640   */\n      dup5\n        /* \"#utility.yul\":1564:1661   */\n      tag_132\n      jump\t// in\n    tag_172:\n        /* \"#utility.yul\":1394:1668   */\n      swap3\n      swap2\n      pop\n      pop\n      jump\t// out\n        /* \"#utility.yul\":1674:1751   */\n    tag_133:\n        /* \"#utility.yul\":1711:1718   */\n      0x00\n        /* \"#utility.yul\":1740:1745   */\n      dup2\n        /* \"#utility.yul\":1729:1745   */\n      swap1\n      pop\n        /* \"#utility.yul\":1674:1751   */\n      swap2\n      swap1\n      pop\n      jump\t// out\n        /* \"#utility.yul\":1757:1875   */\n    tag_134:\n        /* \"#utility.yul\":1844:1868   */\n      tag_175\n        /* \"#utility.yul\":1862:1867   */\n      dup2\n        /* \"#utility.yul\":1844:1868   */\n      tag_133\n      jump\t// in\n    tag_175:\n        /* \"#utility.yul\":1839:1842   */\n      dup3\n        /* \"#utility.yul\":1832:1869   */\n      mstore\n        /* \"#utility.yul\":1757:1875   */\n      pop\n      pop\n      jump\t// out\n        /* \"#utility.yul\":1881:2103   */\n    tag_22:\n        /* \"#utility.yul\":1974:1978   */\n      0x00\n        /* \"#utility.yul\":2012:2014   */\n      0x20\n        /* \"#utility.yul\":2001:2010   */\n      dup3\n        /* \"#utility.yul\":1997:2015   */\n      add\n        /* \"#utility.yul\":1989:2015   */\n      swap1\n      pop\n        /* \"#utility.yul\":2025:2096   */\n      tag_177\n        /* \"#utility.yul\":2093:2094   */\n      0x00\n        /* \"#utility.yul\":2082:2091   */\n      dup4\n        /* \"#utility.yul\":2078:2095   */\n      add\n        /* \"#utility.yul\":2069:2075   */\n      dup5\n        /* \"#utility.yul\":2025:2096   */\n      tag_134\n      jump\t// in\n    tag_177:\n        /* \"#utility.yul\":1881:2103   */\n      swap3\n      swap2\n      pop\n      pop\n      jump\t// out\n        /* \"#utility.yul\":2190:2307   */\n    tag_136:\n        /* \"#utility.yul\":2299:2300   */\n      0x00\n        /* \"#utility.yul\":2296:2297   */\n      dup1\n        /* \"#utility.yul\":2289:2301   */\n      revert\n        /* \"#utility.yul\":2436:2532   */\n    tag_138:\n        /* \"#utility.yul\":2473:2480   */\n      0x00\n        /* \"#utility.yul\":2502:2526   */\n      tag_182\n        /* \"#utility.yul\":2520:2525   */\n      dup3\n        /* \"#utility.yul\":2502:2526   */\n      tag_125\n      jump\t// in\n    tag_182:\n        /* \"#utility.yul\":2491:2526   */\n      swap1\n      pop\n        /* \"#utility.yul\":2436:2532   */\n      swap2\n      swap1\n      pop\n      jump\t// out\n        /* \"#utility.yul\":2538:2660   */\n    tag_139:\n        /* \"#utility.yul\":2611:2635   */\n      tag_184\n        /* \"#utility.yul\":2629:2634   */\n      dup2\n        /* \"#utility.yul\":2611:2635   */\n      tag_138\n      jump\t// in\n    tag_184:\n        /* \"#utility.yul\":2604:2609   */\n      dup2\n        /* \"#utility.yul\":2601:2636   */\n      eq\n        /* \"#utility.yul\":2591:2654   */\n      tag_185\n      jumpi\n        /* \"#utility.yul\":2650:2651   */\n      0x00\n        /* \"#utility.yul\":2647:2648   */\n      dup1\n        /* \"#utility.yul\":2640:2652   */\n      revert\n        /* \"#utility.yul\":2591:2654   */\n    tag_185:\n        /* \"#utility.yul\":2538:2660   */\n      pop\n      jump\t// out\n        /* \"#utility.yul\":2666:2805   */\n    tag_140:\n        /* \"#utility.yul\":2712:2717   */\n      0x00\n        /* \"#utility.yul\":2750:2756   */\n      dup2\n        /* \"#utility.yul\":2737:2757   */\n      calldataload\n        /* \"#utility.yul\":2728:2757   */\n      swap1\n      pop\n        /* \"#utility.yul\":2766:2799   */\n      tag_187\n        /* \"#utility.yul\":2793:2798   */\n      dup2\n        /* \"#utility.yul\":2766:2799   */\n      tag_139\n      jump\t// in\n    tag_187:\n        /* \"#utility.yul\":2666:2805   */\n      swap3\n      swap2\n      pop\n      pop\n      jump\t// out\n        /* \"#utility.yul\":2811:3140   */\n    tag_31:\n        /* \"#utility.yul\":2870:2876   */\n      0x00\n        /* \"#utility.yul\":2919:2921   */\n      0x20\n        /* \"#utility.yul\":2907:2916   */\n      dup3\n        /* \"#utility.yul\":2898:2905   */\n      dup5\n        /* \"#utility.yul\":2894:2917   */\n      sub\n        /* \"#utility.yul\":2890:2922   */\n      slt\n        /* \"#utility.yul\":2887:3006   */\n      iszero\n      tag_189\n      jumpi\n        /* \"#utility.yul\":2925:3004   */\n      tag_190\n      tag_136\n      jump\t// in\n    tag_190:\n        /* \"#utility.yul\":2887:3006   */\n    tag_189:\n        /* \"#utility.yul\":3045:3046   */\n      0x00\n        /* \"#utility.yul\":3070:3123   */\n      tag_191\n        /* \"#utility.yul\":3115:3122   */\n      dup5\n        /* \"#utility.yul\":3106:3112   */\n      dup3\n        /* \"#utility.yul\":3095:3104   */\n      dup6\n        /* \"#utility.yul\":3091:3113   */\n      add\n        /* \"#utility.yul\":3070:3123   */\n      tag_140\n      jump\t// in\n    tag_191:\n        /* \"#utility.yul\":3060:3123   */\n      swap2\n      pop\n        /* \"#utility.yul\":3016:3133   */\n      pop\n        /* \"#utility.yul\":2811:3140   */\n      swap3\n      swap2\n      pop\n      pop\n      jump\t// out\n        /* \"#utility.yul\":3146:3255   */\n    tag_141:\n        /* \"#utility.yul\":3196:3203   */\n      0x00\n        /* \"#utility.yul\":3225:3249   */\n      tag_193\n        /* \"#utility.yul\":3243:3248   */\n      dup3\n        /* \"#utility.yul\":3225:3249   */\n      tag_138\n      jump\t// in\n    tag_193:\n        /* \"#utility.yul\":3214:3249   */\n      swap1\n      pop\n        /* \"#utility.yul\":3146:3255   */\n      swap2\n      swap1\n      pop\n      jump\t// out\n        /* \"#utility.yul\":3261:3409   */\n    tag_142:\n        /* \"#utility.yul\":3347:3384   */\n      tag_195\n        /* \"#utility.yul\":3378:3383   */\n      dup2\n        /* \"#utility.yul\":3347:3384   */\n      tag_141\n      jump\t// in\n    tag_195:\n        /* \"#utility.yul\":3340:3345   */\n      dup2\n        /* \"#utility.yul\":3337:3385   */\n      eq\n        /* \"#utility.yul\":3327:3403   */\n      tag_196\n      jumpi\n        /* \"#utility.yul\":3399:3400   */\n      0x00\n        /* \"#utility.yul\":3396:3397   */\n      dup1\n        /* \"#utility.yul\":3389:3401   */\n      revert\n        /* \"#utility.yul\":3327:3403   */\n    tag_196:\n        /* \"#utility.yul\":3261:3409   */\n      pop\n      jump\t// out\n        /* \"#utility.yul\":3415:3584   */\n    tag_143:\n        /* \"#utility.yul\":3485:3490   */\n      0x00\n        /* \"#utility.yul\":3516:3522   */\n      dup2\n        /* \"#utility.yul\":3510:3523   */\n      mload\n        /* \"#utility.yul\":3501:3523   */\n      swap1\n      pop\n        /* \"#utility.yul\":3532:3578   */\n      tag_198\n        /* \"#utility.yul\":3572:3577   */\n      dup2\n        /* \"#utility.yul\":3532:3578   */\n      tag_142\n      jump\t// in\n    tag_198:\n        /* \"#utility.yul\":3415:3584   */\n      swap3\n      swap2\n      pop\n      pop\n      jump\t// out\n        /* \"#utility.yul\":3590:3967   */\n    tag_40:\n        /* \"#utility.yul\":3673:3679   */\n      0x00\n        /* \"#utility.yul\":3722:3724   */\n      0x20\n        /* \"#utility.yul\":3710:3719   */\n      dup3\n        /* \"#utility.yul\":3701:3708   */\n      dup5\n        /* \"#utility.yul\":3697:3720   */\n      sub\n        /* \"#utility.yul\":3693:3725   */\n      slt\n        /* \"#utility.yul\":3690:3809   */\n      iszero\n      tag_200\n      jumpi\n        /* \"#utility.yul\":3728:3807   */\n      tag_201\n      tag_136\n      jump\t// in\n    tag_201:\n        /* \"#utility.yul\":3690:3809   */\n    tag_200:\n        /* \"#utility.yul\":3848:3849   */\n      0x00\n        /* \"#utility.yul\":3873:3950   */\n      tag_202\n        /* \"#utility.yul\":3942:3949   */\n      dup5\n        /* \"#utility.yul\":3933:3939   */\n      dup3\n        /* \"#utility.yul\":3922:3931   */\n      dup6\n        /* \"#utility.yul\":3918:3940   */\n      add\n        /* \"#utility.yul\":3873:3950   */\n      tag_143\n      jump\t// in\n    tag_202:\n        /* \"#utility.yul\":3863:3950   */\n      swap2\n      pop\n        /* \"#utility.yul\":3819:3960   */\n      pop\n        /* \"#utility.yul\":3590:3967   */\n      swap3\n      swap2\n      pop\n      pop\n      jump\t// out\n        /* \"#utility.yul\":3973:4059   */\n    tag_144:\n        /* \"#utility.yul\":4008:4015   */\n      0x00\n        /* \"#utility.yul\":4048:4052   */\n      0xff\n        /* \"#utility.yul\":4041:4046   */\n      dup3\n        /* \"#utility.yul\":4037:4053   */\n      and\n        /* \"#utility.yul\":4026:4053   */\n      swap1\n      pop\n        /* \"#utility.yul\":3973:4059   */\n      swap2\n      swap1\n      pop\n      jump\t// out\n        /* \"#utility.yul\":4065:4183   */\n    tag_145:\n        /* \"#utility.yul\":4136:4158   */\n      tag_205\n        /* \"#utility.yul\":4152:4157   */\n      dup2\n        /* \"#utility.yul\":4136:4158   */\n      tag_144\n      jump\t// in\n    tag_205:\n        /* \"#utility.yul\":4129:4134   */\n      dup2\n        /* \"#utility.yul\":4126:4159   */\n      eq\n        /* \"#utility.yul\":4116:4177   */\n      tag_206\n      jumpi\n        /* \"#utility.yul\":4173:4174   */\n      0x00\n        /* \"#utility.yul\":4170:4171   */\n      dup1\n        /* \"#utility.yul\":4163:4175   */\n      revert\n        /* \"#utility.yul\":4116:4177   */\n    tag_206:\n        /* \"#utility.yul\":4065:4183   */\n      pop\n      jump\t// out\n        /* \"#utility.yul\":4189:4328   */\n    tag_146:\n        /* \"#utility.yul\":4244:4249   */\n      0x00\n        /* \"#utility.yul\":4275:4281   */\n      dup2\n        /* \"#utility.yul\":4269:4282   */\n      mload\n        /* \"#utility.yul\":4260:4282   */\n      swap1\n      pop\n        /* \"#utility.yul\":4291:4322   */\n      tag_208\n        /* \"#utility.yul\":4316:4321   */\n      dup2\n        /* \"#utility.yul\":4291:4322   */\n      tag_145\n      jump\t// in\n    tag_208:\n        /* \"#utility.yul\":4189:4328   */\n      swap3\n      swap2\n      pop\n      pop\n      jump\t// out\n        /* \"#utility.yul\":4334:4681   */\n    tag_44:\n        /* \"#utility.yul\":4402:4408   */\n      0x00\n        /* \"#utility.yul\":4451:4453   */\n      0x20\n        /* \"#utility.yul\":4439:4448   */\n      dup3\n        /* \"#utility.yul\":4430:4437   */\n      dup5\n        /* \"#utility.yul\":4426:4449   */\n      sub\n        /* \"#utility.yul\":4422:4454   */\n      slt\n        /* \"#utility.yul\":4419:4538   */\n      iszero\n      tag_210\n      jumpi\n        /* \"#utility.yul\":4457:4536   */\n      tag_211\n      tag_136\n      jump\t// in\n    tag_211:\n        /* \"#utility.yul\":4419:4538   */\n    tag_210:\n        /* \"#utility.yul\":4577:4578   */\n      0x00\n        /* \"#utility.yul\":4602:4664   */\n      tag_212\n        /* \"#utility.yul\":4656:4663   */\n      dup5\n        /* \"#utility.yul\":4647:4653   */\n      dup3\n        /* \"#utility.yul\":4636:4645   */\n      dup6\n        /* \"#utility.yul\":4632:4654   */\n      add\n        /* \"#utility.yul\":4602:4664   */\n      tag_146\n      jump\t// in\n    tag_212:\n        /* \"#utility.yul\":4592:4664   */\n      swap2\n      pop\n        /* \"#utility.yul\":4548:4674   */\n      pop\n        /* \"#utility.yul\":4334:4681   */\n      swap3\n      swap2\n      pop\n      pop\n      jump\t// out\n        /* \"#utility.yul\":4687:4867   */\n    tag_147:\n        /* \"#utility.yul\":4735:4812   */\n      0x4e487b7100000000000000000000000000000000000000000000000000000000\n        /* \"#utility.yul\":4732:4733   */\n      0x00\n        /* \"#utility.yul\":4725:4813   */\n      mstore\n        /* \"#utility.yul\":4832:4836   */\n      0x11\n        /* \"#utility.yul\":4829:4830   */\n      0x04\n        /* \"#utility.yul\":4822:4837   */\n      mstore\n        /* \"#utility.yul\":4856:4860   */\n      0x24\n        /* \"#utility.yul\":4853:4854   */\n      0x00\n        /* \"#utility.yul\":4846:4861   */\n      revert\n        /* \"#utility.yul\":4873:5067   */\n    tag_50:\n        /* \"#utility.yul\":4913:4917   */\n      0x00\n        /* \"#utility.yul\":4933:4953   */\n      tag_215\n        /* \"#utility.yul\":4951:4952   */\n      dup3\n        /* \"#utility.yul\":4933:4953   */\n      tag_133\n      jump\t// in\n    tag_215:\n        /* \"#utility.yul\":4928:4953   */\n      swap2\n      pop\n        /* \"#utility.yul\":4967:4987   */\n      tag_216\n        /* \"#utility.yul\":4985:4986   */\n      dup4\n        /* \"#utility.yul\":4967:4987   */\n      tag_133\n      jump\t// in\n    tag_216:\n        /* \"#utility.yul\":4962:4987   */\n      swap3\n      pop\n        /* \"#utility.yul\":5011:5012   */\n      dup3\n        /* \"#utility.yul\":5008:5009   */\n      dup3\n        /* \"#utility.yul\":5004:5013   */\n      sub\n        /* \"#utility.yul\":4996:5013   */\n      swap1\n      pop\n        /* \"#utility.yul\":5035:5036   */\n      dup2\n        /* \"#utility.yul\":5029:5033   */\n      dup2\n        /* \"#utility.yul\":5026:5037   */\n      gt\n        /* \"#utility.yul\":5023:5060   */\n      iszero\n      tag_217\n      jumpi\n        /* \"#utility.yul\":5040:5058   */\n      tag_218\n      tag_147\n      jump\t// in\n    tag_218:\n        /* \"#utility.yul\":5023:5060   */\n    tag_217:\n        /* \"#utility.yul\":4873:5067   */\n      swap3\n      swap2\n      pop\n      pop\n      jump\t// out\n        /* \"#utility.yul\":5073:5175   */\n    tag_148:\n        /* \"#utility.yul\":5115:5123   */\n      0x00\n        /* \"#utility.yul\":5162:5167   */\n      dup2\n        /* \"#utility.yul\":5159:5160   */\n      0x01\n        /* \"#utility.yul\":5155:5168   */\n      shr\n        /* \"#utility.yul\":5134:5168   */\n      swap1\n      pop\n        /* \"#utility.yul\":5073:5175   */\n      swap2\n      swap1\n      pop\n      jump\t// out\n        /* \"#utility.yul\":5181:6029   */\n    tag_149:\n        /* \"#utility.yul\":5242:5247   */\n      0x00\n        /* \"#utility.yul\":5249:5253   */\n      dup1\n        /* \"#utility.yul\":5273:5279   */\n      dup3\n        /* \"#utility.yul\":5264:5279   */\n      swap2\n      pop\n        /* \"#utility.yul\":5297:5302   */\n      dup4\n        /* \"#utility.yul\":5288:5302   */\n      swap1\n      pop\n        /* \"#utility.yul\":5311:6023   */\n    tag_221:\n        /* \"#utility.yul\":5332:5333   */\n      0x01\n        /* \"#utility.yul\":5322:5330   */\n      dup6\n        /* \"#utility.yul\":5319:5334   */\n      gt\n        /* \"#utility.yul\":5311:6023   */\n      iszero\n      tag_223\n      jumpi\n        /* \"#utility.yul\":5427:5431   */\n      dup1\n        /* \"#utility.yul\":5422:5425   */\n      dup7\n        /* \"#utility.yul\":5418:5432   */\n      div\n        /* \"#utility.yul\":5412:5416   */\n      dup2\n        /* \"#utility.yul\":5409:5433   */\n      gt\n        /* \"#utility.yul\":5406:5456   */\n      iszero\n      tag_224\n      jumpi\n        /* \"#utility.yul\":5436:5454   */\n      tag_225\n      tag_147\n      jump\t// in\n    tag_225:\n        /* \"#utility.yul\":5406:5456   */\n    tag_224:\n        /* \"#utility.yul\":5486:5487   */\n      0x01\n        /* \"#utility.yul\":5476:5484   */\n      dup6\n        /* \"#utility.yul\":5472:5488   */\n      and\n        /* \"#utility.yul\":5469:5920   */\n      iszero\n      tag_226\n      jumpi\n        /* \"#utility.yul\":5901:5905   */\n      dup1\n        /* \"#utility.yul\":5894:5899   */\n      dup3\n        /* \"#utility.yul\":5890:5906   */\n      mul\n        /* \"#utility.yul\":5881:5906   */\n      swap2\n      pop\n        /* \"#utility.yul\":5469:5920   */\n    tag_226:\n        /* \"#utility.yul\":5951:5955   */\n      dup1\n        /* \"#utility.yul\":5945:5949   */\n      dup2\n        /* \"#utility.yul\":5941:5956   */\n      mul\n        /* \"#utility.yul\":5933:5956   */\n      swap1\n      pop\n        /* \"#utility.yul\":5981:6013   */\n      tag_227\n        /* \"#utility.yul\":6004:6012   */\n      dup6\n        /* \"#utility.yul\":5981:6013   */\n      tag_148\n      jump\t// in\n    tag_227:\n        /* \"#utility.yul\":5969:6013   */\n      swap5\n      pop\n        /* \"#utility.yul\":5311:6023   */\n      jump(tag_221)\n    tag_223:\n        /* \"#utility.yul\":5181:6029   */\n      swap5\n      pop\n      swap5\n      swap3\n      pop\n      pop\n      pop\n      jump\t// out\n        /* \"#utility.yul\":6035:7108   */\n    tag_150:\n        /* \"#utility.yul\":6089:6094   */\n      0x00\n        /* \"#utility.yul\":6280:6288   */\n      dup3\n        /* \"#utility.yul\":6270:6310   */\n      tag_229\n      jumpi\n        /* \"#utility.yul\":6301:6302   */\n      0x01\n        /* \"#utility.yul\":6292:6302   */\n      swap1\n      pop\n        /* \"#utility.yul\":6303:6308   */\n      jump(tag_228)\n        /* \"#utility.yul\":6270:6310   */\n    tag_229:\n        /* \"#utility.yul\":6329:6333   */\n      dup2\n        /* \"#utility.yul\":6319:6355   */\n      tag_230\n      jumpi\n        /* \"#utility.yul\":6346:6347   */\n      0x00\n        /* \"#utility.yul\":6337:6347   */\n      swap1\n      pop\n        /* \"#utility.yul\":6348:6353   */\n      jump(tag_228)\n        /* \"#utility.yul\":6319:6355   */\n    tag_230:\n        /* \"#utility.yul\":6415:6419   */\n      dup2\n        /* \"#utility.yul\":6463:6464   */\n      0x01\n        /* \"#utility.yul\":6458:6485   */\n      dup2\n      eq\n      tag_232\n      jumpi\n        /* \"#utility.yul\":6499:6500   */\n      0x02\n        /* \"#utility.yul\":6494:6685   */\n      dup2\n      eq\n      tag_233\n      jumpi\n        /* \"#utility.yul\":6408:6685   */\n      jump(tag_231)\n        /* \"#utility.yul\":6458:6485   */\n    tag_232:\n        /* \"#utility.yul\":6476:6477   */\n      0x01\n        /* \"#utility.yul\":6467:6477   */\n      swap2\n      pop\n        /* \"#utility.yul\":6478:6483   */\n      pop\n      jump(tag_228)\n        /* \"#utility.yul\":6494:6685   */\n    tag_233:\n        /* \"#utility.yul\":6539:6542   */\n      0xff\n        /* \"#utility.yul\":6529:6537   */\n      dup5\n        /* \"#utility.yul\":6526:6543   */\n      gt\n        /* \"#utility.yul\":6523:6566   */\n      iszero\n      tag_234\n      jumpi\n        /* \"#utility.yul\":6546:6564   */\n      tag_235\n      tag_147\n      jump\t// in\n    tag_235:\n        /* \"#utility.yul\":6523:6566   */\n    tag_234:\n        /* \"#utility.yul\":6595:6603   */\n      dup4\n        /* \"#utility.yul\":6592:6593   */\n      0x02\n        /* \"#utility.yul\":6588:6604   */\n      exp\n        /* \"#utility.yul\":6579:6604   */\n      swap2\n      pop\n        /* \"#utility.yul\":6630:6633   */\n      dup5\n        /* \"#utility.yul\":6623:6628   */\n      dup3\n        /* \"#utility.yul\":6620:6634   */\n      gt\n        /* \"#utility.yul\":6617:6657   */\n      iszero\n      tag_236\n      jumpi\n        /* \"#utility.yul\":6637:6655   */\n      tag_237\n      tag_147\n      jump\t// in\n    tag_237:\n        /* \"#utility.yul\":6617:6657   */\n    tag_236:\n        /* \"#utility.yul\":6670:6675   */\n      pop\n      jump(tag_228)\n        /* \"#utility.yul\":6408:6685   */\n    tag_231:\n      pop\n        /* \"#utility.yul\":6794:6796   */\n      0x20\n        /* \"#utility.yul\":6784:6792   */\n      dup4\n        /* \"#utility.yul\":6781:6797   */\n      lt\n        /* \"#utility.yul\":6775:6778   */\n      0x0133\n        /* \"#utility.yul\":6769:6773   */\n      dup4\n        /* \"#utility.yul\":6766:6779   */\n      lt\n        /* \"#utility.yul\":6762:6798   */\n      and\n        /* \"#utility.yul\":6744:6746   */\n      0x4e\n        /* \"#utility.yul\":6734:6742   */\n      dup5\n        /* \"#utility.yul\":6731:6747   */\n      lt\n        /* \"#utility.yul\":6726:6728   */\n      0x0b\n        /* \"#utility.yul\":6720:6724   */\n      dup5\n        /* \"#utility.yul\":6717:6729   */\n      lt\n        /* \"#utility.yul\":6713:6748   */\n      and\n        /* \"#utility.yul\":6697:6808   */\n      or\n        /* \"#utility.yul\":6694:6940   */\n      iszero\n      tag_238\n      jumpi\n        /* \"#utility.yul\":6850:6858   */\n      dup3\n        /* \"#utility.yul\":6844:6848   */\n      dup3\n        /* \"#utility.yul\":6840:6859   */\n      exp\n        /* \"#utility.yul\":6831:6859   */\n      swap1\n      pop\n        /* \"#utility.yul\":6885:6888   */\n      dup4\n        /* \"#utility.yul\":6878:6883   */\n      dup2\n        /* \"#utility.yul\":6875:6889   */\n      gt\n        /* \"#utility.yul\":6872:6912   */\n      iszero\n      tag_239\n      jumpi\n        /* \"#utility.yul\":6892:6910   */\n      tag_240\n      tag_147\n      jump\t// in\n    tag_240:\n        /* \"#utility.yul\":6872:6912   */\n    tag_239:\n        /* \"#utility.yul\":6925:6930   */\n      jump(tag_228)\n        /* \"#utility.yul\":6694:6940   */\n    tag_238:\n        /* \"#utility.yul\":6965:7007   */\n      tag_241\n        /* \"#utility.yul\":7003:7006   */\n      dup5\n        /* \"#utility.yul\":6993:7001   */\n      dup5\n        /* \"#utility.yul\":6987:6991   */\n      dup5\n        /* \"#utility.yul\":6984:6985   */\n      0x01\n        /* \"#utility.yul\":6965:7007   */\n      tag_149\n      jump\t// in\n    tag_241:\n        /* \"#utility.yul\":6950:7007   */\n      swap3\n      pop\n      swap1\n      pop\n        /* \"#utility.yul\":7039:7043   */\n      dup2\n        /* \"#utility.yul\":7034:7037   */\n      dup5\n        /* \"#utility.yul\":7030:7044   */\n      div\n        /* \"#utility.yul\":7023:7028   */\n      dup2\n        /* \"#utility.yul\":7020:7045   */\n      gt\n        /* \"#utility.yul\":7017:7068   */\n      iszero\n      tag_242\n      jumpi\n        /* \"#utility.yul\":7048:7066   */\n      tag_243\n      tag_147\n      jump\t// in\n    tag_243:\n        /* \"#utility.yul\":7017:7068   */\n    tag_242:\n        /* \"#utility.yul\":7097:7101   */\n      dup2\n        /* \"#utility.yul\":7090:7095   */\n      dup2\n        /* \"#utility.yul\":7086:7102   */\n      mul\n        /* \"#utility.yul\":7077:7102   */\n      swap1\n      pop\n        /* \"#utility.yul\":6035:7108   */\n    tag_228:\n      swap4\n      swap3\n      pop\n      pop\n      pop\n      jump\t// out\n        /* \"#utility.yul\":7114:7399   */\n    tag_52:\n        /* \"#utility.yul\":7174:7179   */\n      0x00\n        /* \"#utility.yul\":7198:7221   */\n      tag_245\n        /* \"#utility.yul\":7216:7220   */\n      dup3\n        /* \"#utility.yul\":7198:7221   */\n      tag_133\n      jump\t// in\n    tag_245:\n        /* \"#utility.yul\":7190:7221   */\n      swap2\n      pop\n        /* \"#utility.yul\":7242:7269   */\n      tag_246\n        /* \"#utility.yul\":7260:7268   */\n      dup4\n        /* \"#utility.yul\":7242:7269   */\n      tag_133\n      jump\t// in\n    tag_246:\n        /* \"#utility.yul\":7230:7269   */\n      swap3\n      pop\n        /* \"#utility.yul\":7288:7392   */\n      tag_247\n        /* \"#utility.yul\":7325:7391   */\n      0xffffffffffffffffffffffffffffffffffffffffffffffffffffffffffffffff\n        /* \"#utility.yul\":7315:7323   */\n      dup5\n        /* \"#utility.yul\":7309:7313   */\n      dup5\n        /* \"#utility.yul\":7288:7392   */\n      tag_150\n      jump\t// in\n    tag_247:\n        /* \"#utility.yul\":7279:7392   */\n      swap1\n      pop\n        /* \"#utility.yul\":7114:7399   */\n      swap3\n      swap2\n      pop\n      pop\n      jump\t// out\n        /* \"#utility.yul\":7405:7815   */\n    tag_55:\n        /* \"#utility.yul\":7445:7452   */\n      0x00\n        /* \"#utility.yul\":7468:7488   */\n      tag_249\n        /* \"#utility.yul\":7486:7487   */\n      dup3\n        /* \"#utility.yul\":7468:7488   */\n      tag_133\n      jump\t// in\n    tag_249:\n        /* \"#utility.yul\":7463:7488   */\n      swap2\n      pop\n        /* \"#utility.yul\":7502:7522   */\n      tag_250\n        /* \"#utility.yul\":7520:7521   */\n      dup4\n        /* \"#utility.yul\":7502:7522   */\n      tag_133\n      jump\t// in\n    tag_250:\n        /* \"#utility.yul\":7497:7522   */\n      swap3\n      pop\n        /* \"#utility.yul\":7557:7558   */\n      dup3\n        /* \"#utility.yul\":7554:7555   */\n      dup3\n        /* \"#utility.yul\":7550:7559   */\n      mul\n        /* \"#utility.yul\":7579:7609   */\n      tag_251\n        /* \"#utility.yul\":7597:7608   */\n      dup2\n        /* \"#utility.yul\":7579:7609   */\n      tag_133\n      jump\t// in\n    tag_251:\n        /* \"#utility.yul\":7568:7609   */\n      swap2\n      pop\n        /* \"#utility.yul\":7758:7759   */\n      dup3\n        /* \"#utility.yul\":7749:7756   */\n      dup3\n        /* \"#utility.yul\":7745:7760   */\n      div\n        /* \"#utility.yul\":7742:7743   */\n      dup5\n        /* \"#utility.yul\":7739:7761   */\n      eq\n        /* \"#utility.yul\":7719:7720   */\n      dup4\n        /* \"#utility.yul\":7712:7721   */\n      iszero\n        /* \"#utility.yul\":7692:7775   */\n      or\n        /* \"#utility.yul\":7669:7808   */\n      tag_252\n      jumpi\n        /* \"#utility.yul\":7788:7806   */\n      tag_253\n      tag_147\n      jump\t// in\n    tag_253:\n        /* \"#utility.yul\":7669:7808   */\n    tag_252:\n        /* \"#utility.yul\":7453:7815   */\n      pop\n        /* \"#utility.yul\":7405:7815   */\n      swap3\n      swap2\n      pop\n      pop\n      jump\t// out\n        /* \"#utility.yul\":7821:8001   */\n    tag_151:\n        /* \"#utility.yul\":7869:7946   */\n      0x4e487b7100000000000000000000000000000000000000000000000000000000\n        /* \"#utility.yul\":7866:7867   */\n      0x00\n        /* \"#utility.yul\":7859:7947   */\n      mstore\n        /* \"#utility.yul\":7966:7970   */\n      0x12\n        /* \"#utility.yul\":7963:7964   */\n      0x04\n        /* \"#utility.yul\":7956:7971   */\n      mstore\n        /* \"#utility.yul\":7990:7994   */\n      0x24\n        /* \"#utility.yul\":7987:7988   */\n      0x00\n        /* \"#utility.yul\":7980:7995   */\n      revert\n        /* \"#utility.yul\":8007:8192   */\n    tag_58:\n        /* \"#utility.yul\":8047:8048   */\n      0x00\n        /* \"#utility.yul\":8064:8084   */\n      tag_256\n        /* \"#utility.yul\":8082:8083   */\n      dup3\n        /* \"#utility.yul\":8064:8084   */\n      tag_133\n      jump\t// in\n    tag_256:\n        /* \"#utility.yul\":8059:8084   */\n      swap2\n      pop\n        /* \"#utility.yul\":8098:8118   */\n      tag_257\n        /* \"#utility.yul\":8116:8117   */\n      dup4\n        /* \"#utility.yul\":8098:8118   */\n      tag_133\n      jump\t// in\n    tag_257:\n        /* \"#utility.yul\":8093:8118   */\n      swap3\n      pop\n        /* \"#utility.yul\":8137:8138   */\n      dup3\n        /* \"#utility.yul\":8127:8162   */\n      tag_258\n      jumpi\n        /* \"#utility.yul\":8142:8160   */\n      tag_259\n      tag_151\n      jump\t// in\n    tag_259:\n        /* \"#utility.yul\":8127:8162   */\n    tag_258:\n        /* \"#utility.yul\":8184:8185   */\n      dup3\n        /* \"#utility.yul\":8181:8182   */\n      dup3\n        /* \"#utility.yul\":8177:8186   */\n      div\n        /* \"#utility.yul\":8172:8186   */\n      swap1\n      pop\n        /* \"#utility.yul\":8007:8192   */\n      swap3\n      swap2\n      pop\n      pop\n      jump\t// out\n\n    auxdata: 0xa2646970667358221220993d71bb92f2659513d94eb6777b50094a91e4f788410b28c954f5c761d903a164736f6c63430008140033\n}\n",
				"bytecode": {
					"linkReferences": {},
					"object": "608060405234801561000f575f80fd5b50610ebe8061001d5f395ff3fe608060405234801561000f575f80fd5b506004361061007b575f3560e01c806383781fa91161005957806383781fa9146100d95780639b3e9ab8146100f7578063cd5c645c14610115578063f141b52b146101315761007b565b806338d52e0f1461007f5780635b8bec551461009d5780635d0b41f8146100bb575b5f80fd5b61008761014d565b6040516100949190610a5d565b60405180910390f35b6100a5610172565b6040516100b29190610a96565b60405180910390f35b6100c3610195565b6040516100d09190610ac7565b60405180910390f35b6100e161042a565b6040516100ee9190610ac7565b60405180910390f35b6100ff6106b5565b60405161010c9190610ac7565b60405180910390f35b61012f600480360381019061012a9190610b1f565b6107c0565b005b61014b60048036038101906101469190610b1f565b6109a0565b005b60015f9054906101000a900473ffffffffffffffffffffffffffffffffffffffff1681565b5f8054906101000a900473ffffffffffffffffffffffffffffffffffffffff1681565b5f80670de0b6b3a764000090505f621e848090505f805f9054906101000a900473ffffffffffffffffffffffffffffffffffffffff1673ffffffffffffffffffffffffffffffffffffffff166343cd8f7e6040518163ffffffff1660e01b8152600401602060405180830381865afa158015610213573d5f803e3d5ffd5b505050506040513d601f19601f820116820180604052508101906102379190610b85565b90505f8173ffffffffffffffffffffffffffffffffffffffff1663313ce5676040518163ffffffff1660e01b8152600401602060405180830381865afa158015610283573d5f803e3d5ffd5b505050506040513d601f19601f820116820180604052508101906102a79190610be6565b60ff1690505f60015f9054906101000a900473ffffffffffffffffffffffffffffffffffffffff1673ffffffffffffffffffffffffffffffffffffffff1663313ce5676040518163ffffffff1660e01b8152600401602060405180830381865afa158015610317573d5f803e3d5ffd5b505050506040513d601f19601f8201168201806040525081019061033b9190610be6565b60ff1690505f8183111561039e5781836103559190610c3e565b600a6103619190610da0565b905082600a6103709190610da0565b81868861037d9190610dea565b6103879190610dea565b6103919190610e58565b9650505050505050610427565b818310156103fb5782826103b29190610c3e565b600a6103be9190610da0565b905082600a6103cd9190610da0565b8186886103da9190610dea565b6103e49190610e58565b6103ee9190610e58565b9650505050505050610427565b81600a6104089190610da0565b85876104149190610dea565b61041e9190610e58565b96505050505050505b90565b5f80670de0b6b3a764000090505f621e848090505f805f9054906101000a900473ffffffffffffffffffffffffffffffffffffffff1673ffffffffffffffffffffffffffffffffffffffff166343cd8f7e6040518163ffffffff1660e01b8152600401602060405180830381865afa1580156104a8573d5f803e3d5ffd5b505050506040513d601f19601f820116820180604052508101906104cc9190610b85565b90505f8173ffffffffffffffffffffffffffffffffffffffff1663313ce5676040518163ffffffff1660e01b8152600401602060405180830381865afa158015610518573d5f803e3d5ffd5b505050506040513d601f19601f8201168201806040525081019061053c9190610be6565b60ff1690505f60015f9054906101000a900473ffffffffffffffffffffffffffffffffffffffff1673ffffffffffffffffffffffffffffffffffffffff1663313ce5676040518163ffffffff1660e01b8152600401602060405180830381865afa1580156105ac573d5f803e3d5ffd5b505050506040513d601f19601f820116820180604052508101906105d09190610be6565b60ff1690508082111561062e5781600a6105ea9190610da0565b81836105f69190610c3e565b600a6106029190610da0565b858761060e9190610dea565b6106189190610dea565b6106229190610e58565b955050505050506106b2565b808210156106875781600a6106439190610da0565b828261064f9190610c3e565b600a61065b9190610da0565b85876106679190610dea565b6106719190610e58565b61067b9190610e58565b955050505050506106b2565b80600a6106949190610da0565b84866106a09190610dea565b6106aa9190610e58565b955050505050505b90565b5f80670de0b6b3a764000090505f621e848090505f600354600254111561072e576003546002546106e69190610c3e565b600a6106f29190610da0565b9050600254600a6107039190610da0565b8183856107109190610dea565b61071a9190610dea565b6107249190610e58565b93505050506107bd565b60035460025410156107925760025460035461074a9190610c3e565b600a6107569190610da0565b9050600254600a6107679190610da0565b8183856107749190610dea565b61077e9190610e58565b6107889190610e58565b93505050506107bd565b600354600a6107a19190610da0565b82846107ad9190610dea565b6107b79190610e58565b93505050505b90565b805f806101000a81548173ffffffffffffffffffffffffffffffffffffffff021916908373ffffffffffffffffffffffffffffffffffffffff1602179055505f805f9054906101000a900473ffffffffffffffffffffffffffffffffffffffff1673ffffffffffffffffffffffffffffffffffffffff166343cd8f7e6040518163ffffffff1660e01b8152600401602060405180830381865afa158015610869573d5f803e3d5ffd5b505050506040513d601f19601f8201168201806040525081019061088d9190610b85565b90508073ffffffffffffffffffffffffffffffffffffffff1663313ce5676040518163ffffffff1660e01b8152600401602060405180830381865afa1580156108d8573d5f803e3d5ffd5b505050506040513d601f19601f820116820180604052508101906108fc9190610be6565b60ff1660028190555060015f9054906101000a900473ffffffffffffffffffffffffffffffffffffffff1673ffffffffffffffffffffffffffffffffffffffff1663313ce5676040518163ffffffff1660e01b8152600401602060405180830381865afa15801561096f573d5f803e3d5ffd5b505050506040513d601f19601f820116820180604052508101906109939190610be6565b60ff166003819055505050565b8060015f6101000a81548173ffffffffffffffffffffffffffffffffffffffff021916908373ffffffffffffffffffffffffffffffffffffffff16021790555050565b5f73ffffffffffffffffffffffffffffffffffffffff82169050919050565b5f819050919050565b5f610a25610a20610a1b846109e3565b610a02565b6109e3565b9050919050565b5f610a3682610a0b565b9050919050565b5f610a4782610a2c565b9050919050565b610a5781610a3d565b82525050565b5f602082019050610a705f830184610a4e565b92915050565b5f610a8082610a2c565b9050919050565b610a9081610a76565b82525050565b5f602082019050610aa95f830184610a87565b92915050565b5f819050919050565b610ac181610aaf565b82525050565b5f602082019050610ada5f830184610ab8565b92915050565b5f80fd5b5f610aee826109e3565b9050919050565b610afe81610ae4565b8114610b08575f80fd5b50565b5f81359050610b1981610af5565b92915050565b5f60208284031215610b3457610b33610ae0565b5b5f610b4184828501610b0b565b91505092915050565b5f610b5482610ae4565b9050919050565b610b6481610b4a565b8114610b6e575f80fd5b50565b5f81519050610b7f81610b5b565b92915050565b5f60208284031215610b9a57610b99610ae0565b5b5f610ba784828501610b71565b91505092915050565b5f60ff82169050919050565b610bc581610bb0565b8114610bcf575f80fd5b50565b5f81519050610be081610bbc565b92915050565b5f60208284031215610bfb57610bfa610ae0565b5b5f610c0884828501610bd2565b91505092915050565b7f4e487b71000000000000000000000000000000000000000000000000000000005f52601160045260245ffd5b5f610c4882610aaf565b9150610c5383610aaf565b9250828203905081811115610c6b57610c6a610c11565b5b92915050565b5f8160011c9050919050565b5f808291508390505b6001851115610cc657808604811115610ca257610ca1610c11565b5b6001851615610cb15780820291505b8081029050610cbf85610c71565b9450610c86565b94509492505050565b5f82610cde5760019050610d99565b81610ceb575f9050610d99565b8160018114610d015760028114610d0b57610d3a565b6001915050610d99565b60ff841115610d1d57610d1c610c11565b5b8360020a915084821115610d3457610d33610c11565b5b50610d99565b5060208310610133831016604e8410600b8410161715610d6f5782820a905083811115610d6a57610d69610c11565b5b610d99565b610d7c8484846001610c7d565b92509050818404811115610d9357610d92610c11565b5b81810290505b9392505050565b5f610daa82610aaf565b9150610db583610aaf565b9250610de27fffffffffffffffffffffffffffffffffffffffffffffffffffffffffffffffff8484610ccf565b905092915050565b5f610df482610aaf565b9150610dff83610aaf565b9250828202610e0d81610aaf565b91508282048414831517610e2457610e23610c11565b5b5092915050565b7f4e487b71000000000000000000000000000000000000000000000000000000005f52601260045260245ffd5b5f610e6282610aaf565b9150610e6d83610aaf565b925082610e7d57610e7c610e2b565b5b82820490509291505056fea2646970667358221220993d71bb92f2659513d94eb6777b50094a91e4f788410b28c954f5c761d903a164736f6c63430008140033",
					"opcodes": "PUSH1 0x80 PUSH1 0x40 MSTORE CALLVALUE DUP1 ISZERO PUSH2 0xF JUMPI PUSH0 DUP1 REVERT JUMPDEST POP PUSH2 0xEBE DUP1 PUSH2 0x1D PUSH0 CODECOPY PUSH0 RETURN INVALID PUSH1 0x80 PUSH1 0x40 MSTORE CALLVALUE DUP1 ISZERO PUSH2 0xF JUMPI PUSH0 DUP1 REVERT JUMPDEST POP PUSH1 0x4 CALLDATASIZE LT PUSH2 0x7B JUMPI PUSH0 CALLDATALOAD PUSH1 0xE0 SHR DUP1 PUSH4 0x83781FA9 GT PUSH2 0x59 JUMPI DUP1 PUSH4 0x83781FA9 EQ PUSH2 0xD9 JUMPI DUP1 PUSH4 0x9B3E9AB8 EQ PUSH2 0xF7 JUMPI DUP1 PUSH4 0xCD5C645C EQ PUSH2 0x115 JUMPI DUP1 PUSH4 0xF141B52B EQ PUSH2 0x131 JUMPI PUSH2 0x7B JUMP JUMPDEST DUP1 PUSH4 0x38D52E0F EQ PUSH2 0x7F JUMPI DUP1 PUSH4 0x5B8BEC55 EQ PUSH2 0x9D JUMPI DUP1 PUSH4 0x5D0B41F8 EQ PUSH2 0xBB JUMPI JUMPDEST PUSH0 DUP1 REVERT JUMPDEST PUSH2 0x87 PUSH2 0x14D JUMP JUMPDEST PUSH1 0x40 MLOAD PUSH2 0x94 SWAP2 SWAP1 PUSH2 0xA5D JUMP JUMPDEST PUSH1 0x40 MLOAD DUP1 SWAP2 SUB SWAP1 RETURN JUMPDEST PUSH2 0xA5 PUSH2 0x172 JUMP JUMPDEST PUSH1 0x40 MLOAD PUSH2 0xB2 SWAP2 SWAP1 PUSH2 0xA96 JUMP JUMPDEST PUSH1 0x40 MLOAD DUP1 SWAP2 SUB SWAP1 RETURN JUMPDEST PUSH2 0xC3 PUSH2 0x195 JUMP JUMPDEST PUSH1 0x40 MLOAD PUSH2 0xD0 SWAP2 SWAP1 PUSH2 0xAC7 JUMP JUMPDEST PUSH1 0x40 MLOAD DUP1 SWAP2 SUB SWAP1 RETURN JUMPDEST PUSH2 0xE1 PUSH2 0x42A JUMP JUMPDEST PUSH1 0x40 MLOAD PUSH2 0xEE SWAP2 SWAP1 PUSH2 0xAC7 JUMP JUMPDEST PUSH1 0x40 MLOAD DUP1 SWAP2 SUB SWAP1 RETURN JUMPDEST PUSH2 0xFF PUSH2 0x6B5 JUMP JUMPDEST PUSH1 0x40 MLOAD PUSH2 0x10C SWAP2 SWAP1 PUSH2 0xAC7 JUMP JUMPDEST PUSH1 0x40 MLOAD DUP1 SWAP2 SUB SWAP1 RETURN JUMPDEST PUSH2 0x12F PUSH1 0x4 DUP1 CALLDATASIZE SUB DUP2 ADD SWAP1 PUSH2 0x12A SWAP2 SWAP1 PUSH2 0xB1F JUMP JUMPDEST PUSH2 0x7C0 JUMP JUMPDEST STOP JUMPDEST PUSH2 0x14B PUSH1 0x4 DUP1 CALLDATASIZE SUB DUP2 ADD SWAP1 PUSH2 0x146 SWAP2 SWAP1 PUSH2 0xB1F JUMP JUMPDEST PUSH2 0x9A0 JUMP JUMPDEST STOP JUMPDEST PUSH1 0x1 PUSH0 SWAP1 SLOAD SWAP1 PUSH2 0x100 EXP SWAP1 DIV PUSH20 0xFFFFFFFFFFFFFFFFFFFFFFFFFFFFFFFFFFFFFFFF AND DUP2 JUMP JUMPDEST PUSH0 DUP1 SLOAD SWAP1 PUSH2 0x100 EXP SWAP1 DIV PUSH20 0xFFFFFFFFFFFFFFFFFFFFFFFFFFFFFFFFFFFFFFFF AND DUP2 JUMP JUMPDEST PUSH0 DUP1 PUSH8 0xDE0B6B3A7640000 SWAP1 POP PUSH0 PUSH3 0x1E8480 SWAP1 POP PUSH0 DUP1 PUSH0 SWAP1 SLOAD SWAP1 PUSH2 0x100 EXP SWAP1 DIV PUSH20 0xFFFFFFFFFFFFFFFFFFFFFFFFFFFFFFFFFFFFFFFF AND PUSH20 0xFFFFFFFFFFFFFFFFFFFFFFFFFFFFFFFFFFFFFFFF AND PUSH4 0x43CD8F7E PUSH1 0x40 MLOAD DUP2 PUSH4 0xFFFFFFFF AND PUSH1 0xE0 SHL DUP2 MSTORE PUSH1 0x4 ADD PUSH1 0x20 PUSH1 0x40 MLOAD DUP1 DUP4 SUB DUP2 DUP7 GAS STATICCALL ISZERO DUP1 ISZERO PUSH2 0x213 JUMPI RETURNDATASIZE PUSH0 DUP1 RETURNDATACOPY RETURNDATASIZE PUSH0 REVERT JUMPDEST POP POP POP POP PUSH1 0x40 MLOAD RETURNDATASIZE PUSH1 0x1F NOT PUSH1 0x1F DUP3 ADD AND DUP3 ADD DUP1 PUSH1 0x40 MSTORE POP DUP2 ADD SWAP1 PUSH2 0x237 SWAP2 SWAP1 PUSH2 0xB85 JUMP JUMPDEST SWAP1 POP PUSH0 DUP2 PUSH20 0xFFFFFFFFFFFFFFFFFFFFFFFFFFFFFFFFFFFFFFFF AND PUSH4 0x313CE567 PUSH1 0x40 MLOAD DUP2 PUSH4 0xFFFFFFFF AND PUSH1 0xE0 SHL DUP2 MSTORE PUSH1 0x4 ADD PUSH1 0x20 PUSH1 0x40 MLOAD DUP1 DUP4 SUB DUP2 DUP7 GAS STATICCALL ISZERO DUP1 ISZERO PUSH2 0x283 JUMPI RETURNDATASIZE PUSH0 DUP1 RETURNDATACOPY RETURNDATASIZE PUSH0 REVERT JUMPDEST POP POP POP POP PUSH1 0x40 MLOAD RETURNDATASIZE PUSH1 0x1F NOT PUSH1 0x1F DUP3 ADD AND DUP3 ADD DUP1 PUSH1 0x40 MSTORE POP DUP2 ADD SWAP1 PUSH2 0x2A7 SWAP2 SWAP1 PUSH2 0xBE6 JUMP JUMPDEST PUSH1 0xFF AND SWAP1 POP PUSH0 PUSH1 0x1 PUSH0 SWAP1 SLOAD SWAP1 PUSH2 0x100 EXP SWAP1 DIV PUSH20 0xFFFFFFFFFFFFFFFFFFFFFFFFFFFFFFFFFFFFFFFF AND PUSH20 0xFFFFFFFFFFFFFFFFFFFFFFFFFFFFFFFFFFFFFFFF AND PUSH4 0x313CE567 PUSH1 0x40 MLOAD DUP2 PUSH4 0xFFFFFFFF AND PUSH1 0xE0 SHL DUP2 MSTORE PUSH1 0x4 ADD PUSH1 0x20 PUSH1 0x40 MLOAD DUP1 DUP4 SUB DUP2 DUP7 GAS STATICCALL ISZERO DUP1 ISZERO PUSH2 0x317 JUMPI RETURNDATASIZE PUSH0 DUP1 RETURNDATACOPY RETURNDATASIZE PUSH0 REVERT JUMPDEST POP POP POP POP PUSH1 0x40 MLOAD RETURNDATASIZE PUSH1 0x1F NOT PUSH1 0x1F DUP3 ADD AND DUP3 ADD DUP1 PUSH1 0x40 MSTORE POP DUP2 ADD SWAP1 PUSH2 0x33B SWAP2 SWAP1 PUSH2 0xBE6 JUMP JUMPDEST PUSH1 0xFF AND SWAP1 POP PUSH0 DUP2 DUP4 GT ISZERO PUSH2 0x39E JUMPI DUP2 DUP4 PUSH2 0x355 SWAP2 SWAP1 PUSH2 0xC3E JUMP JUMPDEST PUSH1 0xA PUSH2 0x361 SWAP2 SWAP1 PUSH2 0xDA0 JUMP JUMPDEST SWAP1 POP DUP3 PUSH1 0xA PUSH2 0x370 SWAP2 SWAP1 PUSH2 0xDA0 JUMP JUMPDEST DUP2 DUP7 DUP9 PUSH2 0x37D SWAP2 SWAP1 PUSH2 0xDEA JUMP JUMPDEST PUSH2 0x387 SWAP2 SWAP1 PUSH2 0xDEA JUMP JUMPDEST PUSH2 0x391 SWAP2 SWAP1 PUSH2 0xE58 JUMP JUMPDEST SWAP7 POP POP POP POP POP POP POP PUSH2 0x427 JUMP JUMPDEST DUP2 DUP4 LT ISZERO PUSH2 0x3FB JUMPI DUP3 DUP3 PUSH2 0x3B2 SWAP2 SWAP1 PUSH2 0xC3E JUMP JUMPDEST PUSH1 0xA PUSH2 0x3BE SWAP2 SWAP1 PUSH2 0xDA0 JUMP JUMPDEST SWAP1 POP DUP3 PUSH1 0xA PUSH2 0x3CD SWAP2 SWAP1 PUSH2 0xDA0 JUMP JUMPDEST DUP2 DUP7 DUP9 PUSH2 0x3DA SWAP2 SWAP1 PUSH2 0xDEA JUMP JUMPDEST PUSH2 0x3E4 SWAP2 SWAP1 PUSH2 0xE58 JUMP JUMPDEST PUSH2 0x3EE SWAP2 SWAP1 PUSH2 0xE58 JUMP JUMPDEST SWAP7 POP POP POP POP POP POP POP PUSH2 0x427 JUMP JUMPDEST DUP2 PUSH1 0xA PUSH2 0x408 SWAP2 SWAP1 PUSH2 0xDA0 JUMP JUMPDEST DUP6 DUP8 PUSH2 0x414 SWAP2 SWAP1 PUSH2 0xDEA JUMP JUMPDEST PUSH2 0x41E SWAP2 SWAP1 PUSH2 0xE58 JUMP JUMPDEST SWAP7 POP POP POP POP POP POP POP JUMPDEST SWAP1 JUMP JUMPDEST PUSH0 DUP1 PUSH8 0xDE0B6B3A7640000 SWAP1 POP PUSH0 PUSH3 0x1E8480 SWAP1 POP PUSH0 DUP1 PUSH0 SWAP1 SLOAD SWAP1 PUSH2 0x100 EXP SWAP1 DIV PUSH20 0xFFFFFFFFFFFFFFFFFFFFFFFFFFFFFFFFFFFFFFFF AND PUSH20 0xFFFFFFFFFFFFFFFFFFFFFFFFFFFFFFFFFFFFFFFF AND PUSH4 0x43CD8F7E PUSH1 0x40 MLOAD DUP2 PUSH4 0xFFFFFFFF AND PUSH1 0xE0 SHL DUP2 MSTORE PUSH1 0x4 ADD PUSH1 0x20 PUSH1 0x40 MLOAD DUP1 DUP4 SUB DUP2 DUP7 GAS STATICCALL ISZERO DUP1 ISZERO PUSH2 0x4A8 JUMPI RETURNDATASIZE PUSH0 DUP1 RETURNDATACOPY RETURNDATASIZE PUSH0 REVERT JUMPDEST POP POP POP POP PUSH1 0x40 MLOAD RETURNDATASIZE PUSH1 0x1F NOT PUSH1 0x1F DUP3 ADD AND DUP3 ADD DUP1 PUSH1 0x40 MSTORE POP DUP2 ADD SWAP1 PUSH2 0x4CC SWAP2 SWAP1 PUSH2 0xB85 JUMP JUMPDEST SWAP1 POP PUSH0 DUP2 PUSH20 0xFFFFFFFFFFFFFFFFFFFFFFFFFFFFFFFFFFFFFFFF AND PUSH4 0x313CE567 PUSH1 0x40 MLOAD DUP2 PUSH4 0xFFFFFFFF AND PUSH1 0xE0 SHL DUP2 MSTORE PUSH1 0x4 ADD PUSH1 0x20 PUSH1 0x40 MLOAD DUP1 DUP4 SUB DUP2 DUP7 GAS STATICCALL ISZERO DUP1 ISZERO PUSH2 0x518 JUMPI RETURNDATASIZE PUSH0 DUP1 RETURNDATACOPY RETURNDATASIZE PUSH0 REVERT JUMPDEST POP POP POP POP PUSH1 0x40 MLOAD RETURNDATASIZE PUSH1 0x1F NOT PUSH1 0x1F DUP3 ADD AND DUP3 ADD DUP1 PUSH1 0x40 MSTORE POP DUP2 ADD SWAP1 PUSH2 0x53C SWAP2 SWAP1 PUSH2 0xBE6 JUMP JUMPDEST PUSH1 0xFF AND SWAP1 POP PUSH0 PUSH1 0x1 PUSH0 SWAP1 SLOAD SWAP1 PUSH2 0x100 EXP SWAP1 DIV PUSH20 0xFFFFFFFFFFFFFFFFFFFFFFFFFFFFFFFFFFFFFFFF AND PUSH20 0xFFFFFFFFFFFFFFFFFFFFFFFFFFFFFFFFFFFFFFFF AND PUSH4 0x313CE567 PUSH1 0x40 MLOAD DUP2 PUSH4 0xFFFFFFFF AND PUSH1 0xE0 SHL DUP2 MSTORE PUSH1 0x4 ADD PUSH1 0x20 PUSH1 0x40 MLOAD DUP1 DUP4 SUB DUP2 DUP7 GAS STATICCALL ISZERO DUP1 ISZERO PUSH2 0x5AC JUMPI RETURNDATASIZE PUSH0 DUP1 RETURNDATACOPY RETURNDATASIZE PUSH0 REVERT JUMPDEST POP POP POP POP PUSH1 0x40 MLOAD RETURNDATASIZE PUSH1 0x1F NOT PUSH1 0x1F DUP3 ADD AND DUP3 ADD DUP1 PUSH1 0x40 MSTORE POP DUP2 ADD SWAP1 PUSH2 0x5D0 SWAP2 SWAP1 PUSH2 0xBE6 JUMP JUMPDEST PUSH1 0xFF AND SWAP1 POP DUP1 DUP3 GT ISZERO PUSH2 0x62E JUMPI DUP2 PUSH1 0xA PUSH2 0x5EA SWAP2 SWAP1 PUSH2 0xDA0 JUMP JUMPDEST DUP2 DUP4 PUSH2 0x5F6 SWAP2 SWAP1 PUSH2 0xC3E JUMP JUMPDEST PUSH1 0xA PUSH2 0x602 SWAP2 SWAP1 PUSH2 0xDA0 JUMP JUMPDEST DUP6 DUP8 PUSH2 0x60E SWAP2 SWAP1 PUSH2 0xDEA JUMP JUMPDEST PUSH2 0x618 SWAP2 SWAP1 PUSH2 0xDEA JUMP JUMPDEST PUSH2 0x622 SWAP2 SWAP1 PUSH2 0xE58 JUMP JUMPDEST SWAP6 POP POP POP POP POP POP PUSH2 0x6B2 JUMP JUMPDEST DUP1 DUP3 LT ISZERO PUSH2 0x687 JUMPI DUP2 PUSH1 0xA PUSH2 0x643 SWAP2 SWAP1 PUSH2 0xDA0 JUMP JUMPDEST DUP3 DUP3 PUSH2 0x64F SWAP2 SWAP1 PUSH2 0xC3E JUMP JUMPDEST PUSH1 0xA PUSH2 0x65B SWAP2 SWAP1 PUSH2 0xDA0 JUMP JUMPDEST DUP6 DUP8 PUSH2 0x667 SWAP2 SWAP1 PUSH2 0xDEA JUMP JUMPDEST PUSH2 0x671 SWAP2 SWAP1 PUSH2 0xE58 JUMP JUMPDEST PUSH2 0x67B SWAP2 SWAP1 PUSH2 0xE58 JUMP JUMPDEST SWAP6 POP POP POP POP POP POP PUSH2 0x6B2 JUMP JUMPDEST DUP1 PUSH1 0xA PUSH2 0x694 SWAP2 SWAP1 PUSH2 0xDA0 JUMP JUMPDEST DUP5 DUP7 PUSH2 0x6A0 SWAP2 SWAP1 PUSH2 0xDEA JUMP JUMPDEST PUSH2 0x6AA SWAP2 SWAP1 PUSH2 0xE58 JUMP JUMPDEST SWAP6 POP POP POP POP POP POP JUMPDEST SWAP1 JUMP JUMPDEST PUSH0 DUP1 PUSH8 0xDE0B6B3A7640000 SWAP1 POP PUSH0 PUSH3 0x1E8480 SWAP1 POP PUSH0 PUSH1 0x3 SLOAD PUSH1 0x2 SLOAD GT ISZERO PUSH2 0x72E JUMPI PUSH1 0x3 SLOAD PUSH1 0x2 SLOAD PUSH2 0x6E6 SWAP2 SWAP1 PUSH2 0xC3E JUMP JUMPDEST PUSH1 0xA PUSH2 0x6F2 SWAP2 SWAP1 PUSH2 0xDA0 JUMP JUMPDEST SWAP1 POP PUSH1 0x2 SLOAD PUSH1 0xA PUSH2 0x703 SWAP2 SWAP1 PUSH2 0xDA0 JUMP JUMPDEST DUP2 DUP4 DUP6 PUSH2 0x710 SWAP2 SWAP1 PUSH2 0xDEA JUMP JUMPDEST PUSH2 0x71A SWAP2 SWAP1 PUSH2 0xDEA JUMP JUMPDEST PUSH2 0x724 SWAP2 SWAP1 PUSH2 0xE58 JUMP JUMPDEST SWAP4 POP POP POP POP PUSH2 0x7BD JUMP JUMPDEST PUSH1 0x3 SLOAD PUSH1 0x2 SLOAD LT ISZERO PUSH2 0x792 JUMPI PUSH1 0x2 SLOAD PUSH1 0x3 SLOAD PUSH2 0x74A SWAP2 SWAP1 PUSH2 0xC3E JUMP JUMPDEST PUSH1 0xA PUSH2 0x756 SWAP2 SWAP1 PUSH2 0xDA0 JUMP JUMPDEST SWAP1 POP PUSH1 0x2 SLOAD PUSH1 0xA PUSH2 0x767 SWAP2 SWAP1 PUSH2 0xDA0 JUMP JUMPDEST DUP2 DUP4 DUP6 PUSH2 0x774 SWAP2 SWAP1 PUSH2 0xDEA JUMP JUMPDEST PUSH2 0x77E SWAP2 SWAP1 PUSH2 0xE58 JUMP JUMPDEST PUSH2 0x788 SWAP2 SWAP1 PUSH2 0xE58 JUMP JUMPDEST SWAP4 POP POP POP POP PUSH2 0x7BD JUMP JUMPDEST PUSH1 0x3 SLOAD PUSH1 0xA PUSH2 0x7A1 SWAP2 SWAP1 PUSH2 0xDA0 JUMP JUMPDEST DUP3 DUP5 PUSH2 0x7AD SWAP2 SWAP1 PUSH2 0xDEA JUMP JUMPDEST PUSH2 0x7B7 SWAP2 SWAP1 PUSH2 0xE58 JUMP JUMPDEST SWAP4 POP POP POP POP JUMPDEST SWAP1 JUMP JUMPDEST DUP1 PUSH0 DUP1 PUSH2 0x100 EXP DUP2 SLOAD DUP2 PUSH20 0xFFFFFFFFFFFFFFFFFFFFFFFFFFFFFFFFFFFFFFFF MUL NOT AND SWAP1 DUP4 PUSH20 0xFFFFFFFFFFFFFFFFFFFFFFFFFFFFFFFFFFFFFFFF AND MUL OR SWAP1 SSTORE POP PUSH0 DUP1 PUSH0 SWAP1 SLOAD SWAP1 PUSH2 0x100 EXP SWAP1 DIV PUSH20 0xFFFFFFFFFFFFFFFFFFFFFFFFFFFFFFFFFFFFFFFF AND PUSH20 0xFFFFFFFFFFFFFFFFFFFFFFFFFFFFFFFFFFFFFFFF AND PUSH4 0x43CD8F7E PUSH1 0x40 MLOAD DUP2 PUSH4 0xFFFFFFFF AND PUSH1 0xE0 SHL DUP2 MSTORE PUSH1 0x4 ADD PUSH1 0x20 PUSH1 0x40 MLOAD DUP1 DUP4 SUB DUP2 DUP7 GAS STATICCALL ISZERO DUP1 ISZERO PUSH2 0x869 JUMPI RETURNDATASIZE PUSH0 DUP1 RETURNDATACOPY RETURNDATASIZE PUSH0 REVERT JUMPDEST POP POP POP POP PUSH1 0x40 MLOAD RETURNDATASIZE PUSH1 0x1F NOT PUSH1 0x1F DUP3 ADD AND DUP3 ADD DUP1 PUSH1 0x40 MSTORE POP DUP2 ADD SWAP1 PUSH2 0x88D SWAP2 SWAP1 PUSH2 0xB85 JUMP JUMPDEST SWAP1 POP DUP1 PUSH20 0xFFFFFFFFFFFFFFFFFFFFFFFFFFFFFFFFFFFFFFFF AND PUSH4 0x313CE567 PUSH1 0x40 MLOAD DUP2 PUSH4 0xFFFFFFFF AND PUSH1 0xE0 SHL DUP2 MSTORE PUSH1 0x4 ADD PUSH1 0x20 PUSH1 0x40 MLOAD DUP1 DUP4 SUB DUP2 DUP7 GAS STATICCALL ISZERO DUP1 ISZERO PUSH2 0x8D8 JUMPI RETURNDATASIZE PUSH0 DUP1 RETURNDATACOPY RETURNDATASIZE PUSH0 REVERT JUMPDEST POP POP POP POP PUSH1 0x40 MLOAD RETURNDATASIZE PUSH1 0x1F NOT PUSH1 0x1F DUP3 ADD AND DUP3 ADD DUP1 PUSH1 0x40 MSTORE POP DUP2 ADD SWAP1 PUSH2 0x8FC SWAP2 SWAP1 PUSH2 0xBE6 JUMP JUMPDEST PUSH1 0xFF AND PUSH1 0x2 DUP2 SWAP1 SSTORE POP PUSH1 0x1 PUSH0 SWAP1 SLOAD SWAP1 PUSH2 0x100 EXP SWAP1 DIV PUSH20 0xFFFFFFFFFFFFFFFFFFFFFFFFFFFFFFFFFFFFFFFF AND PUSH20 0xFFFFFFFFFFFFFFFFFFFFFFFFFFFFFFFFFFFFFFFF AND PUSH4 0x313CE567 PUSH1 0x40 MLOAD DUP2 PUSH4 0xFFFFFFFF AND PUSH1 0xE0 SHL DUP2 MSTORE PUSH1 0x4 ADD PUSH1 0x20 PUSH1 0x40 MLOAD DUP1 DUP4 SUB DUP2 DUP7 GAS STATICCALL ISZERO DUP1 ISZERO PUSH2 0x96F JUMPI RETURNDATASIZE PUSH0 DUP1 RETURNDATACOPY RETURNDATASIZE PUSH0 REVERT JUMPDEST POP POP POP POP PUSH1 0x40 MLOAD RETURNDATASIZE PUSH1 0x1F NOT PUSH1 0x1F DUP3 ADD AND DUP3 ADD DUP1 PUSH1 0x40 MSTORE POP DUP2 ADD SWAP1 PUSH2 0x993 SWAP2 SWAP1 PUSH2 0xBE6 JUMP JUMPDEST PUSH1 0xFF AND PUSH1 0x3 DUP2 SWAP1 SSTORE POP POP POP JUMP JUMPDEST DUP1 PUSH1 0x1 PUSH0 PUSH2 0x100 EXP DUP2 SLOAD DUP2 PUSH20 0xFFFFFFFFFFFFFFFFFFFFFFFFFFFFFFFFFFFFFFFF MUL NOT AND SWAP1 DUP4 PUSH20 0xFFFFFFFFFFFFFFFFFFFFFFFFFFFFFFFFFFFFFFFF AND MUL OR SWAP1 SSTORE POP POP JUMP JUMPDEST PUSH0 PUSH20 0xFFFFFFFFFFFFFFFFFFFFFFFFFFFFFFFFFFFFFFFF DUP3 AND SWAP1 POP SWAP2 SWAP1 POP JUMP JUMPDEST PUSH0 DUP2 SWAP1 POP SWAP2 SWAP1 POP JUMP JUMPDEST PUSH0 PUSH2 0xA25 PUSH2 0xA20 PUSH2 0xA1B DUP5 PUSH2 0x9E3 JUMP JUMPDEST PUSH2 0xA02 JUMP JUMPDEST PUSH2 0x9E3 JUMP JUMPDEST SWAP1 POP SWAP2 SWAP1 POP JUMP JUMPDEST PUSH0 PUSH2 0xA36 DUP3 PUSH2 0xA0B JUMP JUMPDEST SWAP1 POP SWAP2 SWAP1 POP JUMP JUMPDEST PUSH0 PUSH2 0xA47 DUP3 PUSH2 0xA2C JUMP JUMPDEST SWAP1 POP SWAP2 SWAP1 POP JUMP JUMPDEST PUSH2 0xA57 DUP2 PUSH2 0xA3D JUMP JUMPDEST DUP3 MSTORE POP POP JUMP JUMPDEST PUSH0 PUSH1 0x20 DUP3 ADD SWAP1 POP PUSH2 0xA70 PUSH0 DUP4 ADD DUP5 PUSH2 0xA4E JUMP JUMPDEST SWAP3 SWAP2 POP POP JUMP JUMPDEST PUSH0 PUSH2 0xA80 DUP3 PUSH2 0xA2C JUMP JUMPDEST SWAP1 POP SWAP2 SWAP1 POP JUMP JUMPDEST PUSH2 0xA90 DUP2 PUSH2 0xA76 JUMP JUMPDEST DUP3 MSTORE POP POP JUMP JUMPDEST PUSH0 PUSH1 0x20 DUP3 ADD SWAP1 POP PUSH2 0xAA9 PUSH0 DUP4 ADD DUP5 PUSH2 0xA87 JUMP JUMPDEST SWAP3 SWAP2 POP POP JUMP JUMPDEST PUSH0 DUP2 SWAP1 POP SWAP2 SWAP1 POP JUMP JUMPDEST PUSH2 0xAC1 DUP2 PUSH2 0xAAF JUMP JUMPDEST DUP3 MSTORE POP POP JUMP JUMPDEST PUSH0 PUSH1 0x20 DUP3 ADD SWAP1 POP PUSH2 0xADA PUSH0 DUP4 ADD DUP5 PUSH2 0xAB8 JUMP JUMPDEST SWAP3 SWAP2 POP POP JUMP JUMPDEST PUSH0 DUP1 REVERT JUMPDEST PUSH0 PUSH2 0xAEE DUP3 PUSH2 0x9E3 JUMP JUMPDEST SWAP1 POP SWAP2 SWAP1 POP JUMP JUMPDEST PUSH2 0xAFE DUP2 PUSH2 0xAE4 JUMP JUMPDEST DUP2 EQ PUSH2 0xB08 JUMPI PUSH0 DUP1 REVERT JUMPDEST POP JUMP JUMPDEST PUSH0 DUP2 CALLDATALOAD SWAP1 POP PUSH2 0xB19 DUP2 PUSH2 0xAF5 JUMP JUMPDEST SWAP3 SWAP2 POP POP JUMP JUMPDEST PUSH0 PUSH1 0x20 DUP3 DUP5 SUB SLT ISZERO PUSH2 0xB34 JUMPI PUSH2 0xB33 PUSH2 0xAE0 JUMP JUMPDEST JUMPDEST PUSH0 PUSH2 0xB41 DUP5 DUP3 DUP6 ADD PUSH2 0xB0B JUMP JUMPDEST SWAP2 POP POP SWAP3 SWAP2 POP POP JUMP JUMPDEST PUSH0 PUSH2 0xB54 DUP3 PUSH2 0xAE4 JUMP JUMPDEST SWAP1 POP SWAP2 SWAP1 POP JUMP JUMPDEST PUSH2 0xB64 DUP2 PUSH2 0xB4A JUMP JUMPDEST DUP2 EQ PUSH2 0xB6E JUMPI PUSH0 DUP1 REVERT JUMPDEST POP JUMP JUMPDEST PUSH0 DUP2 MLOAD SWAP1 POP PUSH2 0xB7F DUP2 PUSH2 0xB5B JUMP JUMPDEST SWAP3 SWAP2 POP POP JUMP JUMPDEST PUSH0 PUSH1 0x20 DUP3 DUP5 SUB SLT ISZERO PUSH2 0xB9A JUMPI PUSH2 0xB99 PUSH2 0xAE0 JUMP JUMPDEST JUMPDEST PUSH0 PUSH2 0xBA7 DUP5 DUP3 DUP6 ADD PUSH2 0xB71 JUMP JUMPDEST SWAP2 POP POP SWAP3 SWAP2 POP POP JUMP JUMPDEST PUSH0 PUSH1 0xFF DUP3 AND SWAP1 POP SWAP2 SWAP1 POP JUMP JUMPDEST PUSH2 0xBC5 DUP2 PUSH2 0xBB0 JUMP JUMPDEST DUP2 EQ PUSH2 0xBCF JUMPI PUSH0 DUP1 REVERT JUMPDEST POP JUMP JUMPDEST PUSH0 DUP2 MLOAD SWAP1 POP PUSH2 0xBE0 DUP2 PUSH2 0xBBC JUMP JUMPDEST SWAP3 SWAP2 POP POP JUMP JUMPDEST PUSH0 PUSH1 0x20 DUP3 DUP5 SUB SLT ISZERO PUSH2 0xBFB JUMPI PUSH2 0xBFA PUSH2 0xAE0 JUMP JUMPDEST JUMPDEST PUSH0 PUSH2 0xC08 DUP5 DUP3 DUP6 ADD PUSH2 0xBD2 JUMP JUMPDEST SWAP2 POP POP SWAP3 SWAP2 POP POP JUMP JUMPDEST PUSH32 0x4E487B7100000000000000000000000000000000000000000000000000000000 PUSH0 MSTORE PUSH1 0x11 PUSH1 0x4 MSTORE PUSH1 0x24 PUSH0 REVERT JUMPDEST PUSH0 PUSH2 0xC48 DUP3 PUSH2 0xAAF JUMP JUMPDEST SWAP2 POP PUSH2 0xC53 DUP4 PUSH2 0xAAF JUMP JUMPDEST SWAP3 POP DUP3 DUP3 SUB SWAP1 POP DUP2 DUP2 GT ISZERO PUSH2 0xC6B JUMPI PUSH2 0xC6A PUSH2 0xC11 JUMP JUMPDEST JUMPDEST SWAP3 SWAP2 POP POP JUMP JUMPDEST PUSH0 DUP2 PUSH1 0x1 SHR SWAP1 POP SWAP2 SWAP1 POP JUMP JUMPDEST PUSH0 DUP1 DUP3 SWAP2 POP DUP4 SWAP1 POP JUMPDEST PUSH1 0x1 DUP6 GT ISZERO PUSH2 0xCC6 JUMPI DUP1 DUP7 DIV DUP2 GT ISZERO PUSH2 0xCA2 JUMPI PUSH2 0xCA1 PUSH2 0xC11 JUMP JUMPDEST JUMPDEST PUSH1 0x1 DUP6 AND ISZERO PUSH2 0xCB1 JUMPI DUP1 DUP3 MUL SWAP2 POP JUMPDEST DUP1 DUP2 MUL SWAP1 POP PUSH2 0xCBF DUP6 PUSH2 0xC71 JUMP JUMPDEST SWAP5 POP PUSH2 0xC86 JUMP JUMPDEST SWAP5 POP SWAP5 SWAP3 POP POP POP JUMP JUMPDEST PUSH0 DUP3 PUSH2 0xCDE JUMPI PUSH1 0x1 SWAP1 POP PUSH2 0xD99 JUMP JUMPDEST DUP2 PUSH2 0xCEB JUMPI PUSH0 SWAP1 POP PUSH2 0xD99 JUMP JUMPDEST DUP2 PUSH1 0x1 DUP2 EQ PUSH2 0xD01 JUMPI PUSH1 0x2 DUP2 EQ PUSH2 0xD0B JUMPI PUSH2 0xD3A JUMP JUMPDEST PUSH1 0x1 SWAP2 POP POP PUSH2 0xD99 JUMP JUMPDEST PUSH1 0xFF DUP5 GT ISZERO PUSH2 0xD1D JUMPI PUSH2 0xD1C PUSH2 0xC11 JUMP JUMPDEST JUMPDEST DUP4 PUSH1 0x2 EXP SWAP2 POP DUP5 DUP3 GT ISZERO PUSH2 0xD34 JUMPI PUSH2 0xD33 PUSH2 0xC11 JUMP JUMPDEST JUMPDEST POP PUSH2 0xD99 JUMP JUMPDEST POP PUSH1 0x20 DUP4 LT PUSH2 0x133 DUP4 LT AND PUSH1 0x4E DUP5 LT PUSH1 0xB DUP5 LT AND OR ISZERO PUSH2 0xD6F JUMPI DUP3 DUP3 EXP SWAP1 POP DUP4 DUP2 GT ISZERO PUSH2 0xD6A JUMPI PUSH2 0xD69 PUSH2 0xC11 JUMP JUMPDEST JUMPDEST PUSH2 0xD99 JUMP JUMPDEST PUSH2 0xD7C DUP5 DUP5 DUP5 PUSH1 0x1 PUSH2 0xC7D JUMP JUMPDEST SWAP3 POP SWAP1 POP DUP2 DUP5 DIV DUP2 GT ISZERO PUSH2 0xD93 JUMPI PUSH2 0xD92 PUSH2 0xC11 JUMP JUMPDEST JUMPDEST DUP2 DUP2 MUL SWAP1 POP JUMPDEST SWAP4 SWAP3 POP POP POP JUMP JUMPDEST PUSH0 PUSH2 0xDAA DUP3 PUSH2 0xAAF JUMP JUMPDEST SWAP2 POP PUSH2 0xDB5 DUP4 PUSH2 0xAAF JUMP JUMPDEST SWAP3 POP PUSH2 0xDE2 PUSH32 0xFFFFFFFFFFFFFFFFFFFFFFFFFFFFFFFFFFFFFFFFFFFFFFFFFFFFFFFFFFFFFFFF DUP5 DUP5 PUSH2 0xCCF JUMP JUMPDEST SWAP1 POP SWAP3 SWAP2 POP POP JUMP JUMPDEST PUSH0 PUSH2 0xDF4 DUP3 PUSH2 0xAAF JUMP JUMPDEST SWAP2 POP PUSH2 0xDFF DUP4 PUSH2 0xAAF JUMP JUMPDEST SWAP3 POP DUP3 DUP3 MUL PUSH2 0xE0D DUP2 PUSH2 0xAAF JUMP JUMPDEST SWAP2 POP DUP3 DUP3 DIV DUP5 EQ DUP4 ISZERO OR PUSH2 0xE24 JUMPI PUSH2 0xE23 PUSH2 0xC11 JUMP JUMPDEST JUMPDEST POP SWAP3 SWAP2 POP POP JUMP JUMPDEST PUSH32 0x4E487B7100000000000000000000000000000000000000000000000000000000 PUSH0 MSTORE PUSH1 0x12 PUSH1 0x4 MSTORE PUSH1 0x24 PUSH0 REVERT JUMPDEST PUSH0 PUSH2 0xE62 DUP3 PUSH2 0xAAF JUMP JUMPDEST SWAP2 POP PUSH2 0xE6D DUP4 PUSH2 0xAAF JUMP JUMPDEST SWAP3 POP DUP3 PUSH2 0xE7D JUMPI PUSH2 0xE7C PUSH2 0xE2B JUMP JUMPDEST JUMPDEST DUP3 DUP3 DIV SWAP1 POP SWAP3 SWAP2 POP POP JUMP INVALID LOG2 PUSH5 0x6970667358 0x22 SLT KECCAK256 SWAP10 RETURNDATASIZE PUSH18 0xBB92F2659513D94EB6777B50094A91E4F788 COINBASE SIGNEXTEND 0x28 0xC9 SLOAD CREATE2 0xC7 PUSH2 0xD903 LOG1 PUSH5 0x736F6C6343 STOP ADDMOD EQ STOP CALLER "
				},
				"gasEstimates": {
					"creation": {
						"codeDepositCost": "754800",
						"executionCost": "784",
						"totalCost": "755584"
					},
					"external": {
						"asset()": "infinite",
						"calculateOrig()": "infinite",
						"calculateWithCachedDecimals()": "infinite",
						"calculateWithScalingFactor()": "infinite",
						"liquidityProvider()": "infinite",
						"updateAsset(address)": "24781",
						"updateLiquidityProvider(address)": "infinite"
					}
				},
				"methodIdentifiers": {
					"asset()": "38d52e0f",
					"calculateOrig()": "83781fa9",
					"calculateWithCachedDecimals()": "9b3e9ab8",
					"calculateWithScalingFactor()": "5d0b41f8",
					"liquidityProvider()": "5b8bec55",
					"updateAsset(address)": "f141b52b",
					"updateLiquidityProvider(address)": "cd5c645c"
				}
			},
			"storageLayout": {
				"storage": [
					{
						"astId": 855,
						"contract": "contracts/SecuritizeRedemption.sol:SecuritizeRedemption",
						"label": "liquidityProvider",
						"offset": 0,
						"slot": "0",
						"type": "t_contract(ILiquidityProvider)796"
					},
					{
						"astId": 858,
						"contract": "contracts/SecuritizeRedemption.sol:SecuritizeRedemption",
						"label": "asset",
						"offset": 0,
						"slot": "1",
						"type": "t_contract(ERC20)651"
					},
					{
						"astId": 860,
						"contract": "contracts/SecuritizeRedemption.sol:SecuritizeRedemption",
						"label": "cachedLiquidityDecimals",
						"offset": 0,
						"slot": "2",
						"type": "t_uint256"
					},
					{
						"astId": 862,
						"contract": "contracts/SecuritizeRedemption.sol:SecuritizeRedemption",
						"label": "cachedAssetDecimals",
						"offset": 0,
						"slot": "3",
						"type": "t_uint256"
					}
				],
				"types": {
					"t_contract(ERC20)651": {
						"encoding": "inplace",
						"label": "contract ERC20",
						"numberOfBytes": "20"
					},
					"t_contract(ILiquidityProvider)796": {
						"encoding": "inplace",
						"label": "contract ILiquidityProvider",
						"numberOfBytes": "20"
					},
					"t_uint256": {
						"encoding": "inplace",
						"label": "uint256",
						"numberOfBytes": "32"
					}
				}
			},
			"userdoc": {
				"kind": "user",
				"methods": {},
				"version": 1
			}
		}
	}
}