{
	"data": {
		"bytecode": {
			"linkReferences": {},
			"object": "608060405234801561000f575f80fd5b50610fe88061001d5f395ff3fe608060405234801561000f575f80fd5b5060043610610086575f3560e01c80639b3e9ab8116100595780639b3e9ab814610102578063cd5c645c14610120578063dcffa7f71461013c578063f141b52b1461015a57610086565b806338d52e0f1461008a5780635b8bec55146100a85780635d0b41f8146100c657806383781fa9146100e4575b5f80fd5b610092610176565b60405161009f9190610b87565b60405180910390f35b6100b061019b565b6040516100bd9190610bc0565b60405180910390f35b6100ce6101be565b6040516100db9190610bf1565b60405180910390f35b6100ec610453565b6040516100f99190610bf1565b60405180910390f35b61010a6106de565b6040516101179190610bf1565b60405180910390f35b61013a60048036038101906101359190610c49565b6107df565b005b6101446109bf565b6040516101519190610bf1565b60405180910390f35b610174600480360381019061016f9190610c49565b610aca565b005b60015f9054906101000a900473ffffffffffffffffffffffffffffffffffffffff1681565b5f8054906101000a900473ffffffffffffffffffffffffffffffffffffffff1681565b5f80670de0b6b3a764000090505f621e848090505f805f9054906101000a900473ffffffffffffffffffffffffffffffffffffffff1673ffffffffffffffffffffffffffffffffffffffff166343cd8f7e6040518163ffffffff1660e01b8152600401602060405180830381865afa15801561023c573d5f803e3d5ffd5b505050506040513d601f19601f820116820180604052508101906102609190610caf565b90505f8173ffffffffffffffffffffffffffffffffffffffff1663313ce5676040518163ffffffff1660e01b8152600401602060405180830381865afa1580156102ac573d5f803e3d5ffd5b505050506040513d601f19601f820116820180604052508101906102d09190610d10565b60ff1690505f60015f9054906101000a900473ffffffffffffffffffffffffffffffffffffffff1673ffffffffffffffffffffffffffffffffffffffff1663313ce5676040518163ffffffff1660e01b8152600401602060405180830381865afa158015610340573d5f803e3d5ffd5b505050506040513d601f19601f820116820180604052508101906103649190610d10565b60ff1690505f818311156103c757818361037e9190610d68565b600a61038a9190610eca565b905082600a6103999190610eca565b8186886103a69190610f14565b6103b09190610f14565b6103ba9190610f82565b9650505050505050610450565b818310156104245782826103db9190610d68565b600a6103e79190610eca565b905082600a6103f69190610eca565b8186886104039190610f14565b61040d9190610f82565b6104179190610f82565b9650505050505050610450565b81600a6104319190610eca565b858761043d9190610f14565b6104479190610f82565b96505050505050505b90565b5f80670de0b6b3a764000090505f621e848090505f805f9054906101000a900473ffffffffffffffffffffffffffffffffffffffff1673ffffffffffffffffffffffffffffffffffffffff166343cd8f7e6040518163ffffffff1660e01b8152600401602060405180830381865afa1580156104d1573d5f803e3d5ffd5b505050506040513d601f19601f820116820180604052508101906104f59190610caf565b90505f8173ffffffffffffffffffffffffffffffffffffffff1663313ce5676040518163ffffffff1660e01b8152600401602060405180830381865afa158015610541573d5f803e3d5ffd5b505050506040513d601f19601f820116820180604052508101906105659190610d10565b60ff1690505f60015f9054906101000a900473ffffffffffffffffffffffffffffffffffffffff1673ffffffffffffffffffffffffffffffffffffffff1663313ce5676040518163ffffffff1660e01b8152600401602060405180830381865afa1580156105d5573d5f803e3d5ffd5b505050506040513d601f19601f820116820180604052508101906105f99190610d10565b60ff169050808211156106575781600a6106139190610eca565b818361061f9190610d68565b600a61062b9190610eca565b85876106379190610f14565b6106419190610f14565b61064b9190610f82565b955050505050506106db565b808210156106b05781600a61066c9190610eca565b82826106789190610d68565b600a6106849190610eca565b85876106909190610f14565b61069a9190610f82565b6106a49190610f82565b955050505050506106db565b80600a6106bd9190610eca565b84866106c99190610f14565b6106d39190610f82565b955050505050505b90565b5f80670de0b6b3a764000090505f621e84809050600354600254111561075257600254600a61070d9190610eca565b60035460025461071d9190610d68565b600a6107299190610eca565b82846107359190610f14565b61073f9190610f14565b6107499190610f82565b925050506107dc565b60035460025410156107b257600254600a61076d9190610eca565b60025460035461077d9190610d68565b600a6107899190610eca565b82846107959190610f14565b61079f9190610f82565b6107a99190610f82565b925050506107dc565b600354600a6107c19190610eca565b81836107cd9190610f14565b6107d79190610f82565b925050505b90565b805f806101000a81548173ffffffffffffffffffffffffffffffffffffffff021916908373ffffffffffffffffffffffffffffffffffffffff1602179055505f805f9054906101000a900473ffffffffffffffffffffffffffffffffffffffff1673ffffffffffffffffffffffffffffffffffffffff166343cd8f7e6040518163ffffffff1660e01b8152600401602060405180830381865afa158015610888573d5f803e3d5ffd5b505050506040513d601f19601f820116820180604052508101906108ac9190610caf565b90508073ffffffffffffffffffffffffffffffffffffffff1663313ce5676040518163ffffffff1660e01b8152600401602060405180830381865afa1580156108f7573d5f803e3d5ffd5b505050506040513d601f19601f8201168201806040525081019061091b9190610d10565b60ff1660028190555060015f9054906101000a900473ffffffffffffffffffffffffffffffffffffffff1673ffffffffffffffffffffffffffffffffffffffff1663313ce5676040518163ffffffff1660e01b8152600401602060405180830381865afa15801561098e573d5f803e3d5ffd5b505050506040513d601f19601f820116820180604052508101906109b29190610d10565b60ff166003819055505050565b5f80670de0b6b3a764000090505f621e848090505f6003546002541115610a38576003546002546109f09190610d68565b600a6109fc9190610eca565b9050600254600a610a0d9190610eca565b818385610a1a9190610f14565b610a249190610f14565b610a2e9190610f82565b9350505050610ac7565b6003546002541015610a9c57600254600354610a549190610d68565b600a610a609190610eca565b9050600254600a610a719190610eca565b818385610a7e9190610f14565b610a889190610f82565b610a929190610f82565b9350505050610ac7565b600354600a610aab9190610eca565b8284610ab79190610f14565b610ac19190610f82565b93505050505b90565b8060015f6101000a81548173ffffffffffffffffffffffffffffffffffffffff021916908373ffffffffffffffffffffffffffffffffffffffff16021790555050565b5f73ffffffffffffffffffffffffffffffffffffffff82169050919050565b5f819050919050565b5f610b4f610b4a610b4584610b0d565b610b2c565b610b0d565b9050919050565b5f610b6082610b35565b9050919050565b5f610b7182610b56565b9050919050565b610b8181610b67565b82525050565b5f602082019050610b9a5f830184610b78565b92915050565b5f610baa82610b56565b9050919050565b610bba81610ba0565b82525050565b5f602082019050610bd35f830184610bb1565b92915050565b5f819050919050565b610beb81610bd9565b82525050565b5f602082019050610c045f830184610be2565b92915050565b5f80fd5b5f610c1882610b0d565b9050919050565b610c2881610c0e565b8114610c32575f80fd5b50565b5f81359050610c4381610c1f565b92915050565b5f60208284031215610c5e57610c5d610c0a565b5b5f610c6b84828501610c35565b91505092915050565b5f610c7e82610c0e565b9050919050565b610c8e81610c74565b8114610c98575f80fd5b50565b5f81519050610ca981610c85565b92915050565b5f60208284031215610cc457610cc3610c0a565b5b5f610cd184828501610c9b565b91505092915050565b5f60ff82169050919050565b610cef81610cda565b8114610cf9575f80fd5b50565b5f81519050610d0a81610ce6565b92915050565b5f60208284031215610d2557610d24610c0a565b5b5f610d3284828501610cfc565b91505092915050565b7f4e487b71000000000000000000000000000000000000000000000000000000005f52601160045260245ffd5b5f610d7282610bd9565b9150610d7d83610bd9565b9250828203905081811115610d9557610d94610d3b565b5b92915050565b5f8160011c9050919050565b5f808291508390505b6001851115610df057808604811115610dcc57610dcb610d3b565b5b6001851615610ddb5780820291505b8081029050610de985610d9b565b9450610db0565b94509492505050565b5f82610e085760019050610ec3565b81610e15575f9050610ec3565b8160018114610e2b5760028114610e3557610e64565b6001915050610ec3565b60ff841115610e4757610e46610d3b565b5b8360020a915084821115610e5e57610e5d610d3b565b5b50610ec3565b5060208310610133831016604e8410600b8410161715610e995782820a905083811115610e9457610e93610d3b565b5b610ec3565b610ea68484846001610da7565b92509050818404811115610ebd57610ebc610d3b565b5b81810290505b9392505050565b5f610ed482610bd9565b9150610edf83610bd9565b9250610f0c7fffffffffffffffffffffffffffffffffffffffffffffffffffffffffffffffff8484610df9565b905092915050565b5f610f1e82610bd9565b9150610f2983610bd9565b9250828202610f3781610bd9565b91508282048414831517610f4e57610f4d610d3b565b5b5092915050565b7f4e487b71000000000000000000000000000000000000000000000000000000005f52601260045260245ffd5b5f610f8c82610bd9565b9150610f9783610bd9565b925082610fa757610fa6610f55565b5b82820490509291505056fea26469706673582212203be9dda36b5eef4181ba38bdddcf3ab7de08b03f3095f1f4ce5d3e84b48ed9f664736f6c63430008140033",
			"opcodes": "PUSH1 0x80 PUSH1 0x40 MSTORE CALLVALUE DUP1 ISZERO PUSH2 0xF JUMPI PUSH0 DUP1 REVERT JUMPDEST POP PUSH2 0xFE8 DUP1 PUSH2 0x1D PUSH0 CODECOPY PUSH0 RETURN INVALID PUSH1 0x80 PUSH1 0x40 MSTORE CALLVALUE DUP1 ISZERO PUSH2 0xF JUMPI PUSH0 DUP1 REVERT JUMPDEST POP PUSH1 0x4 CALLDATASIZE LT PUSH2 0x86 JUMPI PUSH0 CALLDATALOAD PUSH1 0xE0 SHR DUP1 PUSH4 0x9B3E9AB8 GT PUSH2 0x59 JUMPI DUP1 PUSH4 0x9B3E9AB8 EQ PUSH2 0x102 JUMPI DUP1 PUSH4 0xCD5C645C EQ PUSH2 0x120 JUMPI DUP1 PUSH4 0xDCFFA7F7 EQ PUSH2 0x13C JUMPI DUP1 PUSH4 0xF141B52B EQ PUSH2 0x15A JUMPI PUSH2 0x86 JUMP JUMPDEST DUP1 PUSH4 0x38D52E0F EQ PUSH2 0x8A JUMPI DUP1 PUSH4 0x5B8BEC55 EQ PUSH2 0xA8 JUMPI DUP1 PUSH4 0x5D0B41F8 EQ PUSH2 0xC6 JUMPI DUP1 PUSH4 0x83781FA9 EQ PUSH2 0xE4 JUMPI JUMPDEST PUSH0 DUP1 REVERT JUMPDEST PUSH2 0x92 PUSH2 0x176 JUMP JUMPDEST PUSH1 0x40 MLOAD PUSH2 0x9F SWAP2 SWAP1 PUSH2 0xB87 JUMP JUMPDEST PUSH1 0x40 MLOAD DUP1 SWAP2 SUB SWAP1 RETURN JUMPDEST PUSH2 0xB0 PUSH2 0x19B JUMP JUMPDEST PUSH1 0x40 MLOAD PUSH2 0xBD SWAP2 SWAP1 PUSH2 0xBC0 JUMP JUMPDEST PUSH1 0x40 MLOAD DUP1 SWAP2 SUB SWAP1 RETURN JUMPDEST PUSH2 0xCE PUSH2 0x1BE JUMP JUMPDEST PUSH1 0x40 MLOAD PUSH2 0xDB SWAP2 SWAP1 PUSH2 0xBF1 JUMP JUMPDEST PUSH1 0x40 MLOAD DUP1 SWAP2 SUB SWAP1 RETURN JUMPDEST PUSH2 0xEC PUSH2 0x453 JUMP JUMPDEST PUSH1 0x40 MLOAD PUSH2 0xF9 SWAP2 SWAP1 PUSH2 0xBF1 JUMP JUMPDEST PUSH1 0x40 MLOAD DUP1 SWAP2 SUB SWAP1 RETURN JUMPDEST PUSH2 0x10A PUSH2 0x6DE JUMP JUMPDEST PUSH1 0x40 MLOAD PUSH2 0x117 SWAP2 SWAP1 PUSH2 0xBF1 JUMP JUMPDEST PUSH1 0x40 MLOAD DUP1 SWAP2 SUB SWAP1 RETURN JUMPDEST PUSH2 0x13A PUSH1 0x4 DUP1 CALLDATASIZE SUB DUP2 ADD SWAP1 PUSH2 0x135 SWAP2 SWAP1 PUSH2 0xC49 JUMP JUMPDEST PUSH2 0x7DF JUMP JUMPDEST STOP JUMPDEST PUSH2 0x144 PUSH2 0x9BF JUMP JUMPDEST PUSH1 0x40 MLOAD PUSH2 0x151 SWAP2 SWAP1 PUSH2 0xBF1 JUMP JUMPDEST PUSH1 0x40 MLOAD DUP1 SWAP2 SUB SWAP1 RETURN JUMPDEST PUSH2 0x174 PUSH1 0x4 DUP1 CALLDATASIZE SUB DUP2 ADD SWAP1 PUSH2 0x16F SWAP2 SWAP1 PUSH2 0xC49 JUMP JUMPDEST PUSH2 0xACA JUMP JUMPDEST STOP JUMPDEST PUSH1 0x1 PUSH0 SWAP1 SLOAD SWAP1 PUSH2 0x100 EXP SWAP1 DIV PUSH20 0xFFFFFFFFFFFFFFFFFFFFFFFFFFFFFFFFFFFFFFFF AND DUP2 JUMP JUMPDEST PUSH0 DUP1 SLOAD SWAP1 PUSH2 0x100 EXP SWAP1 DIV PUSH20 0xFFFFFFFFFFFFFFFFFFFFFFFFFFFFFFFFFFFFFFFF AND DUP2 JUMP JUMPDEST PUSH0 DUP1 PUSH8 0xDE0B6B3A7640000 SWAP1 POP PUSH0 PUSH3 0x1E8480 SWAP1 POP PUSH0 DUP1 PUSH0 SWAP1 SLOAD SWAP1 PUSH2 0x100 EXP SWAP1 DIV PUSH20 0xFFFFFFFFFFFFFFFFFFFFFFFFFFFFFFFFFFFFFFFF AND PUSH20 0xFFFFFFFFFFFFFFFFFFFFFFFFFFFFFFFFFFFFFFFF AND PUSH4 0x43CD8F7E PUSH1 0x40 MLOAD DUP2 PUSH4 0xFFFFFFFF AND PUSH1 0xE0 SHL DUP2 MSTORE PUSH1 0x4 ADD PUSH1 0x20 PUSH1 0x40 MLOAD DUP1 DUP4 SUB DUP2 DUP7 GAS STATICCALL ISZERO DUP1 ISZERO PUSH2 0x23C JUMPI RETURNDATASIZE PUSH0 DUP1 RETURNDATACOPY RETURNDATASIZE PUSH0 REVERT JUMPDEST POP POP POP POP PUSH1 0x40 MLOAD RETURNDATASIZE PUSH1 0x1F NOT PUSH1 0x1F DUP3 ADD AND DUP3 ADD DUP1 PUSH1 0x40 MSTORE POP DUP2 ADD SWAP1 PUSH2 0x260 SWAP2 SWAP1 PUSH2 0xCAF JUMP JUMPDEST SWAP1 POP PUSH0 DUP2 PUSH20 0xFFFFFFFFFFFFFFFFFFFFFFFFFFFFFFFFFFFFFFFF AND PUSH4 0x313CE567 PUSH1 0x40 MLOAD DUP2 PUSH4 0xFFFFFFFF AND PUSH1 0xE0 SHL DUP2 MSTORE PUSH1 0x4 ADD PUSH1 0x20 PUSH1 0x40 MLOAD DUP1 DUP4 SUB DUP2 DUP7 GAS STATICCALL ISZERO DUP1 ISZERO PUSH2 0x2AC JUMPI RETURNDATASIZE PUSH0 DUP1 RETURNDATACOPY RETURNDATASIZE PUSH0 REVERT JUMPDEST POP POP POP POP PUSH1 0x40 MLOAD RETURNDATASIZE PUSH1 0x1F NOT PUSH1 0x1F DUP3 ADD AND DUP3 ADD DUP1 PUSH1 0x40 MSTORE POP DUP2 ADD SWAP1 PUSH2 0x2D0 SWAP2 SWAP1 PUSH2 0xD10 JUMP JUMPDEST PUSH1 0xFF AND SWAP1 POP PUSH0 PUSH1 0x1 PUSH0 SWAP1 SLOAD SWAP1 PUSH2 0x100 EXP SWAP1 DIV PUSH20 0xFFFFFFFFFFFFFFFFFFFFFFFFFFFFFFFFFFFFFFFF AND PUSH20 0xFFFFFFFFFFFFFFFFFFFFFFFFFFFFFFFFFFFFFFFF AND PUSH4 0x313CE567 PUSH1 0x40 MLOAD DUP2 PUSH4 0xFFFFFFFF AND PUSH1 0xE0 SHL DUP2 MSTORE PUSH1 0x4 ADD PUSH1 0x20 PUSH1 0x40 MLOAD DUP1 DUP4 SUB DUP2 DUP7 GAS STATICCALL ISZERO DUP1 ISZERO PUSH2 0x340 JUMPI RETURNDATASIZE PUSH0 DUP1 RETURNDATACOPY RETURNDATASIZE PUSH0 REVERT JUMPDEST POP POP POP POP PUSH1 0x40 MLOAD RETURNDATASIZE PUSH1 0x1F NOT PUSH1 0x1F DUP3 ADD AND DUP3 ADD DUP1 PUSH1 0x40 MSTORE POP DUP2 ADD SWAP1 PUSH2 0x364 SWAP2 SWAP1 PUSH2 0xD10 JUMP JUMPDEST PUSH1 0xFF AND SWAP1 POP PUSH0 DUP2 DUP4 GT ISZERO PUSH2 0x3C7 JUMPI DUP2 DUP4 PUSH2 0x37E SWAP2 SWAP1 PUSH2 0xD68 JUMP JUMPDEST PUSH1 0xA PUSH2 0x38A SWAP2 SWAP1 PUSH2 0xECA JUMP JUMPDEST SWAP1 POP DUP3 PUSH1 0xA PUSH2 0x399 SWAP2 SWAP1 PUSH2 0xECA JUMP JUMPDEST DUP2 DUP7 DUP9 PUSH2 0x3A6 SWAP2 SWAP1 PUSH2 0xF14 JUMP JUMPDEST PUSH2 0x3B0 SWAP2 SWAP1 PUSH2 0xF14 JUMP JUMPDEST PUSH2 0x3BA SWAP2 SWAP1 PUSH2 0xF82 JUMP JUMPDEST SWAP7 POP POP POP POP POP POP POP PUSH2 0x450 JUMP JUMPDEST DUP2 DUP4 LT ISZERO PUSH2 0x424 JUMPI DUP3 DUP3 PUSH2 0x3DB SWAP2 SWAP1 PUSH2 0xD68 JUMP JUMPDEST PUSH1 0xA PUSH2 0x3E7 SWAP2 SWAP1 PUSH2 0xECA JUMP JUMPDEST SWAP1 POP DUP3 PUSH1 0xA PUSH2 0x3F6 SWAP2 SWAP1 PUSH2 0xECA JUMP JUMPDEST DUP2 DUP7 DUP9 PUSH2 0x403 SWAP2 SWAP1 PUSH2 0xF14 JUMP JUMPDEST PUSH2 0x40D SWAP2 SWAP1 PUSH2 0xF82 JUMP JUMPDEST PUSH2 0x417 SWAP2 SWAP1 PUSH2 0xF82 JUMP JUMPDEST SWAP7 POP POP POP POP POP POP POP PUSH2 0x450 JUMP JUMPDEST DUP2 PUSH1 0xA PUSH2 0x431 SWAP2 SWAP1 PUSH2 0xECA JUMP JUMPDEST DUP6 DUP8 PUSH2 0x43D SWAP2 SWAP1 PUSH2 0xF14 JUMP JUMPDEST PUSH2 0x447 SWAP2 SWAP1 PUSH2 0xF82 JUMP JUMPDEST SWAP7 POP POP POP POP POP POP POP JUMPDEST SWAP1 JUMP JUMPDEST PUSH0 DUP1 PUSH8 0xDE0B6B3A7640000 SWAP1 POP PUSH0 PUSH3 0x1E8480 SWAP1 POP PUSH0 DUP1 PUSH0 SWAP1 SLOAD SWAP1 PUSH2 0x100 EXP SWAP1 DIV PUSH20 0xFFFFFFFFFFFFFFFFFFFFFFFFFFFFFFFFFFFFFFFF AND PUSH20 0xFFFFFFFFFFFFFFFFFFFFFFFFFFFFFFFFFFFFFFFF AND PUSH4 0x43CD8F7E PUSH1 0x40 MLOAD DUP2 PUSH4 0xFFFFFFFF AND PUSH1 0xE0 SHL DUP2 MSTORE PUSH1 0x4 ADD PUSH1 0x20 PUSH1 0x40 MLOAD DUP1 DUP4 SUB DUP2 DUP7 GAS STATICCALL ISZERO DUP1 ISZERO PUSH2 0x4D1 JUMPI RETURNDATASIZE PUSH0 DUP1 RETURNDATACOPY RETURNDATASIZE PUSH0 REVERT JUMPDEST POP POP POP POP PUSH1 0x40 MLOAD RETURNDATASIZE PUSH1 0x1F NOT PUSH1 0x1F DUP3 ADD AND DUP3 ADD DUP1 PUSH1 0x40 MSTORE POP DUP2 ADD SWAP1 PUSH2 0x4F5 SWAP2 SWAP1 PUSH2 0xCAF JUMP JUMPDEST SWAP1 POP PUSH0 DUP2 PUSH20 0xFFFFFFFFFFFFFFFFFFFFFFFFFFFFFFFFFFFFFFFF AND PUSH4 0x313CE567 PUSH1 0x40 MLOAD DUP2 PUSH4 0xFFFFFFFF AND PUSH1 0xE0 SHL DUP2 MSTORE PUSH1 0x4 ADD PUSH1 0x20 PUSH1 0x40 MLOAD DUP1 DUP4 SUB DUP2 DUP7 GAS STATICCALL ISZERO DUP1 ISZERO PUSH2 0x541 JUMPI RETURNDATASIZE PUSH0 DUP1 RETURNDATACOPY RETURNDATASIZE PUSH0 REVERT JUMPDEST POP POP POP POP PUSH1 0x40 MLOAD RETURNDATASIZE PUSH1 0x1F NOT PUSH1 0x1F DUP3 ADD AND DUP3 ADD DUP1 PUSH1 0x40 MSTORE POP DUP2 ADD SWAP1 PUSH2 0x565 SWAP2 SWAP1 PUSH2 0xD10 JUMP JUMPDEST PUSH1 0xFF AND SWAP1 POP PUSH0 PUSH1 0x1 PUSH0 SWAP1 SLOAD SWAP1 PUSH2 0x100 EXP SWAP1 DIV PUSH20 0xFFFFFFFFFFFFFFFFFFFFFFFFFFFFFFFFFFFFFFFF AND PUSH20 0xFFFFFFFFFFFFFFFFFFFFFFFFFFFFFFFFFFFFFFFF AND PUSH4 0x313CE567 PUSH1 0x40 MLOAD DUP2 PUSH4 0xFFFFFFFF AND PUSH1 0xE0 SHL DUP2 MSTORE PUSH1 0x4 ADD PUSH1 0x20 PUSH1 0x40 MLOAD DUP1 DUP4 SUB DUP2 DUP7 GAS STATICCALL ISZERO DUP1 ISZERO PUSH2 0x5D5 JUMPI RETURNDATASIZE PUSH0 DUP1 RETURNDATACOPY RETURNDATASIZE PUSH0 REVERT JUMPDEST POP POP POP POP PUSH1 0x40 MLOAD RETURNDATASIZE PUSH1 0x1F NOT PUSH1 0x1F DUP3 ADD AND DUP3 ADD DUP1 PUSH1 0x40 MSTORE POP DUP2 ADD SWAP1 PUSH2 0x5F9 SWAP2 SWAP1 PUSH2 0xD10 JUMP JUMPDEST PUSH1 0xFF AND SWAP1 POP DUP1 DUP3 GT ISZERO PUSH2 0x657 JUMPI DUP2 PUSH1 0xA PUSH2 0x613 SWAP2 SWAP1 PUSH2 0xECA JUMP JUMPDEST DUP2 DUP4 PUSH2 0x61F SWAP2 SWAP1 PUSH2 0xD68 JUMP JUMPDEST PUSH1 0xA PUSH2 0x62B SWAP2 SWAP1 PUSH2 0xECA JUMP JUMPDEST DUP6 DUP8 PUSH2 0x637 SWAP2 SWAP1 PUSH2 0xF14 JUMP JUMPDEST PUSH2 0x641 SWAP2 SWAP1 PUSH2 0xF14 JUMP JUMPDEST PUSH2 0x64B SWAP2 SWAP1 PUSH2 0xF82 JUMP JUMPDEST SWAP6 POP POP POP POP POP POP PUSH2 0x6DB JUMP JUMPDEST DUP1 DUP3 LT ISZERO PUSH2 0x6B0 JUMPI DUP2 PUSH1 0xA PUSH2 0x66C SWAP2 SWAP1 PUSH2 0xECA JUMP JUMPDEST DUP3 DUP3 PUSH2 0x678 SWAP2 SWAP1 PUSH2 0xD68 JUMP JUMPDEST PUSH1 0xA PUSH2 0x684 SWAP2 SWAP1 PUSH2 0xECA JUMP JUMPDEST DUP6 DUP8 PUSH2 0x690 SWAP2 SWAP1 PUSH2 0xF14 JUMP JUMPDEST PUSH2 0x69A SWAP2 SWAP1 PUSH2 0xF82 JUMP JUMPDEST PUSH2 0x6A4 SWAP2 SWAP1 PUSH2 0xF82 JUMP JUMPDEST SWAP6 POP POP POP POP POP POP PUSH2 0x6DB JUMP JUMPDEST DUP1 PUSH1 0xA PUSH2 0x6BD SWAP2 SWAP1 PUSH2 0xECA JUMP JUMPDEST DUP5 DUP7 PUSH2 0x6C9 SWAP2 SWAP1 PUSH2 0xF14 JUMP JUMPDEST PUSH2 0x6D3 SWAP2 SWAP1 PUSH2 0xF82 JUMP JUMPDEST SWAP6 POP POP POP POP POP POP JUMPDEST SWAP1 JUMP JUMPDEST PUSH0 DUP1 PUSH8 0xDE0B6B3A7640000 SWAP1 POP PUSH0 PUSH3 0x1E8480 SWAP1 POP PUSH1 0x3 SLOAD PUSH1 0x2 SLOAD GT ISZERO PUSH2 0x752 JUMPI PUSH1 0x2 SLOAD PUSH1 0xA PUSH2 0x70D SWAP2 SWAP1 PUSH2 0xECA JUMP JUMPDEST PUSH1 0x3 SLOAD PUSH1 0x2 SLOAD PUSH2 0x71D SWAP2 SWAP1 PUSH2 0xD68 JUMP JUMPDEST PUSH1 0xA PUSH2 0x729 SWAP2 SWAP1 PUSH2 0xECA JUMP JUMPDEST DUP3 DUP5 PUSH2 0x735 SWAP2 SWAP1 PUSH2 0xF14 JUMP JUMPDEST PUSH2 0x73F SWAP2 SWAP1 PUSH2 0xF14 JUMP JUMPDEST PUSH2 0x749 SWAP2 SWAP1 PUSH2 0xF82 JUMP JUMPDEST SWAP3 POP POP POP PUSH2 0x7DC JUMP JUMPDEST PUSH1 0x3 SLOAD PUSH1 0x2 SLOAD LT ISZERO PUSH2 0x7B2 JUMPI PUSH1 0x2 SLOAD PUSH1 0xA PUSH2 0x76D SWAP2 SWAP1 PUSH2 0xECA JUMP JUMPDEST PUSH1 0x2 SLOAD PUSH1 0x3 SLOAD PUSH2 0x77D SWAP2 SWAP1 PUSH2 0xD68 JUMP JUMPDEST PUSH1 0xA PUSH2 0x789 SWAP2 SWAP1 PUSH2 0xECA JUMP JUMPDEST DUP3 DUP5 PUSH2 0x795 SWAP2 SWAP1 PUSH2 0xF14 JUMP JUMPDEST PUSH2 0x79F SWAP2 SWAP1 PUSH2 0xF82 JUMP JUMPDEST PUSH2 0x7A9 SWAP2 SWAP1 PUSH2 0xF82 JUMP JUMPDEST SWAP3 POP POP POP PUSH2 0x7DC JUMP JUMPDEST PUSH1 0x3 SLOAD PUSH1 0xA PUSH2 0x7C1 SWAP2 SWAP1 PUSH2 0xECA JUMP JUMPDEST DUP2 DUP4 PUSH2 0x7CD SWAP2 SWAP1 PUSH2 0xF14 JUMP JUMPDEST PUSH2 0x7D7 SWAP2 SWAP1 PUSH2 0xF82 JUMP JUMPDEST SWAP3 POP POP POP JUMPDEST SWAP1 JUMP JUMPDEST DUP1 PUSH0 DUP1 PUSH2 0x100 EXP DUP2 SLOAD DUP2 PUSH20 0xFFFFFFFFFFFFFFFFFFFFFFFFFFFFFFFFFFFFFFFF MUL NOT AND SWAP1 DUP4 PUSH20 0xFFFFFFFFFFFFFFFFFFFFFFFFFFFFFFFFFFFFFFFF AND MUL OR SWAP1 SSTORE POP PUSH0 DUP1 PUSH0 SWAP1 SLOAD SWAP1 PUSH2 0x100 EXP SWAP1 DIV PUSH20 0xFFFFFFFFFFFFFFFFFFFFFFFFFFFFFFFFFFFFFFFF AND PUSH20 0xFFFFFFFFFFFFFFFFFFFFFFFFFFFFFFFFFFFFFFFF AND PUSH4 0x43CD8F7E PUSH1 0x40 MLOAD DUP2 PUSH4 0xFFFFFFFF AND PUSH1 0xE0 SHL DUP2 MSTORE PUSH1 0x4 ADD PUSH1 0x20 PUSH1 0x40 MLOAD DUP1 DUP4 SUB DUP2 DUP7 GAS STATICCALL ISZERO DUP1 ISZERO PUSH2 0x888 JUMPI RETURNDATASIZE PUSH0 DUP1 RETURNDATACOPY RETURNDATASIZE PUSH0 REVERT JUMPDEST POP POP POP POP PUSH1 0x40 MLOAD RETURNDATASIZE PUSH1 0x1F NOT PUSH1 0x1F DUP3 ADD AND DUP3 ADD DUP1 PUSH1 0x40 MSTORE POP DUP2 ADD SWAP1 PUSH2 0x8AC SWAP2 SWAP1 PUSH2 0xCAF JUMP JUMPDEST SWAP1 POP DUP1 PUSH20 0xFFFFFFFFFFFFFFFFFFFFFFFFFFFFFFFFFFFFFFFF AND PUSH4 0x313CE567 PUSH1 0x40 MLOAD DUP2 PUSH4 0xFFFFFFFF AND PUSH1 0xE0 SHL DUP2 MSTORE PUSH1 0x4 ADD PUSH1 0x20 PUSH1 0x40 MLOAD DUP1 DUP4 SUB DUP2 DUP7 GAS STATICCALL ISZERO DUP1 ISZERO PUSH2 0x8F7 JUMPI RETURNDATASIZE PUSH0 DUP1 RETURNDATACOPY RETURNDATASIZE PUSH0 REVERT JUMPDEST POP POP POP POP PUSH1 0x40 MLOAD RETURNDATASIZE PUSH1 0x1F NOT PUSH1 0x1F DUP3 ADD AND DUP3 ADD DUP1 PUSH1 0x40 MSTORE POP DUP2 ADD SWAP1 PUSH2 0x91B SWAP2 SWAP1 PUSH2 0xD10 JUMP JUMPDEST PUSH1 0xFF AND PUSH1 0x2 DUP2 SWAP1 SSTORE POP PUSH1 0x1 PUSH0 SWAP1 SLOAD SWAP1 PUSH2 0x100 EXP SWAP1 DIV PUSH20 0xFFFFFFFFFFFFFFFFFFFFFFFFFFFFFFFFFFFFFFFF AND PUSH20 0xFFFFFFFFFFFFFFFFFFFFFFFFFFFFFFFFFFFFFFFF AND PUSH4 0x313CE567 PUSH1 0x40 MLOAD DUP2 PUSH4 0xFFFFFFFF AND PUSH1 0xE0 SHL DUP2 MSTORE PUSH1 0x4 ADD PUSH1 0x20 PUSH1 0x40 MLOAD DUP1 DUP4 SUB DUP2 DUP7 GAS STATICCALL ISZERO DUP1 ISZERO PUSH2 0x98E JUMPI RETURNDATASIZE PUSH0 DUP1 RETURNDATACOPY RETURNDATASIZE PUSH0 REVERT JUMPDEST POP POP POP POP PUSH1 0x40 MLOAD RETURNDATASIZE PUSH1 0x1F NOT PUSH1 0x1F DUP3 ADD AND DUP3 ADD DUP1 PUSH1 0x40 MSTORE POP DUP2 ADD SWAP1 PUSH2 0x9B2 SWAP2 SWAP1 PUSH2 0xD10 JUMP JUMPDEST PUSH1 0xFF AND PUSH1 0x3 DUP2 SWAP1 SSTORE POP POP POP JUMP JUMPDEST PUSH0 DUP1 PUSH8 0xDE0B6B3A7640000 SWAP1 POP PUSH0 PUSH3 0x1E8480 SWAP1 POP PUSH0 PUSH1 0x3 SLOAD PUSH1 0x2 SLOAD GT ISZERO PUSH2 0xA38 JUMPI PUSH1 0x3 SLOAD PUSH1 0x2 SLOAD PUSH2 0x9F0 SWAP2 SWAP1 PUSH2 0xD68 JUMP JUMPDEST PUSH1 0xA PUSH2 0x9FC SWAP2 SWAP1 PUSH2 0xECA JUMP JUMPDEST SWAP1 POP PUSH1 0x2 SLOAD PUSH1 0xA PUSH2 0xA0D SWAP2 SWAP1 PUSH2 0xECA JUMP JUMPDEST DUP2 DUP4 DUP6 PUSH2 0xA1A SWAP2 SWAP1 PUSH2 0xF14 JUMP JUMPDEST PUSH2 0xA24 SWAP2 SWAP1 PUSH2 0xF14 JUMP JUMPDEST PUSH2 0xA2E SWAP2 SWAP1 PUSH2 0xF82 JUMP JUMPDEST SWAP4 POP POP POP POP PUSH2 0xAC7 JUMP JUMPDEST PUSH1 0x3 SLOAD PUSH1 0x2 SLOAD LT ISZERO PUSH2 0xA9C JUMPI PUSH1 0x2 SLOAD PUSH1 0x3 SLOAD PUSH2 0xA54 SWAP2 SWAP1 PUSH2 0xD68 JUMP JUMPDEST PUSH1 0xA PUSH2 0xA60 SWAP2 SWAP1 PUSH2 0xECA JUMP JUMPDEST SWAP1 POP PUSH1 0x2 SLOAD PUSH1 0xA PUSH2 0xA71 SWAP2 SWAP1 PUSH2 0xECA JUMP JUMPDEST DUP2 DUP4 DUP6 PUSH2 0xA7E SWAP2 SWAP1 PUSH2 0xF14 JUMP JUMPDEST PUSH2 0xA88 SWAP2 SWAP1 PUSH2 0xF82 JUMP JUMPDEST PUSH2 0xA92 SWAP2 SWAP1 PUSH2 0xF82 JUMP JUMPDEST SWAP4 POP POP POP POP PUSH2 0xAC7 JUMP JUMPDEST PUSH1 0x3 SLOAD PUSH1 0xA PUSH2 0xAAB SWAP2 SWAP1 PUSH2 0xECA JUMP JUMPDEST DUP3 DUP5 PUSH2 0xAB7 SWAP2 SWAP1 PUSH2 0xF14 JUMP JUMPDEST PUSH2 0xAC1 SWAP2 SWAP1 PUSH2 0xF82 JUMP JUMPDEST SWAP4 POP POP POP POP JUMPDEST SWAP1 JUMP JUMPDEST DUP1 PUSH1 0x1 PUSH0 PUSH2 0x100 EXP DUP2 SLOAD DUP2 PUSH20 0xFFFFFFFFFFFFFFFFFFFFFFFFFFFFFFFFFFFFFFFF MUL NOT AND SWAP1 DUP4 PUSH20 0xFFFFFFFFFFFFFFFFFFFFFFFFFFFFFFFFFFFFFFFF AND MUL OR SWAP1 SSTORE POP POP JUMP JUMPDEST PUSH0 PUSH20 0xFFFFFFFFFFFFFFFFFFFFFFFFFFFFFFFFFFFFFFFF DUP3 AND SWAP1 POP SWAP2 SWAP1 POP JUMP JUMPDEST PUSH0 DUP2 SWAP1 POP SWAP2 SWAP1 POP JUMP JUMPDEST PUSH0 PUSH2 0xB4F PUSH2 0xB4A PUSH2 0xB45 DUP5 PUSH2 0xB0D JUMP JUMPDEST PUSH2 0xB2C JUMP JUMPDEST PUSH2 0xB0D JUMP JUMPDEST SWAP1 POP SWAP2 SWAP1 POP JUMP JUMPDEST PUSH0 PUSH2 0xB60 DUP3 PUSH2 0xB35 JUMP JUMPDEST SWAP1 POP SWAP2 SWAP1 POP JUMP JUMPDEST PUSH0 PUSH2 0xB71 DUP3 PUSH2 0xB56 JUMP JUMPDEST SWAP1 POP SWAP2 SWAP1 POP JUMP JUMPDEST PUSH2 0xB81 DUP2 PUSH2 0xB67 JUMP JUMPDEST DUP3 MSTORE POP POP JUMP JUMPDEST PUSH0 PUSH1 0x20 DUP3 ADD SWAP1 POP PUSH2 0xB9A PUSH0 DUP4 ADD DUP5 PUSH2 0xB78 JUMP JUMPDEST SWAP3 SWAP2 POP POP JUMP JUMPDEST PUSH0 PUSH2 0xBAA DUP3 PUSH2 0xB56 JUMP JUMPDEST SWAP1 POP SWAP2 SWAP1 POP JUMP JUMPDEST PUSH2 0xBBA DUP2 PUSH2 0xBA0 JUMP JUMPDEST DUP3 MSTORE POP POP JUMP JUMPDEST PUSH0 PUSH1 0x20 DUP3 ADD SWAP1 POP PUSH2 0xBD3 PUSH0 DUP4 ADD DUP5 PUSH2 0xBB1 JUMP JUMPDEST SWAP3 SWAP2 POP POP JUMP JUMPDEST PUSH0 DUP2 SWAP1 POP SWAP2 SWAP1 POP JUMP JUMPDEST PUSH2 0xBEB DUP2 PUSH2 0xBD9 JUMP JUMPDEST DUP3 MSTORE POP POP JUMP JUMPDEST PUSH0 PUSH1 0x20 DUP3 ADD SWAP1 POP PUSH2 0xC04 PUSH0 DUP4 ADD DUP5 PUSH2 0xBE2 JUMP JUMPDEST SWAP3 SWAP2 POP POP JUMP JUMPDEST PUSH0 DUP1 REVERT JUMPDEST PUSH0 PUSH2 0xC18 DUP3 PUSH2 0xB0D JUMP JUMPDEST SWAP1 POP SWAP2 SWAP1 POP JUMP JUMPDEST PUSH2 0xC28 DUP2 PUSH2 0xC0E JUMP JUMPDEST DUP2 EQ PUSH2 0xC32 JUMPI PUSH0 DUP1 REVERT JUMPDEST POP JUMP JUMPDEST PUSH0 DUP2 CALLDATALOAD SWAP1 POP PUSH2 0xC43 DUP2 PUSH2 0xC1F JUMP JUMPDEST SWAP3 SWAP2 POP POP JUMP JUMPDEST PUSH0 PUSH1 0x20 DUP3 DUP5 SUB SLT ISZERO PUSH2 0xC5E JUMPI PUSH2 0xC5D PUSH2 0xC0A JUMP JUMPDEST JUMPDEST PUSH0 PUSH2 0xC6B DUP5 DUP3 DUP6 ADD PUSH2 0xC35 JUMP JUMPDEST SWAP2 POP POP SWAP3 SWAP2 POP POP JUMP JUMPDEST PUSH0 PUSH2 0xC7E DUP3 PUSH2 0xC0E JUMP JUMPDEST SWAP1 POP SWAP2 SWAP1 POP JUMP JUMPDEST PUSH2 0xC8E DUP2 PUSH2 0xC74 JUMP JUMPDEST DUP2 EQ PUSH2 0xC98 JUMPI PUSH0 DUP1 REVERT JUMPDEST POP JUMP JUMPDEST PUSH0 DUP2 MLOAD SWAP1 POP PUSH2 0xCA9 DUP2 PUSH2 0xC85 JUMP JUMPDEST SWAP3 SWAP2 POP POP JUMP JUMPDEST PUSH0 PUSH1 0x20 DUP3 DUP5 SUB SLT ISZERO PUSH2 0xCC4 JUMPI PUSH2 0xCC3 PUSH2 0xC0A JUMP JUMPDEST JUMPDEST PUSH0 PUSH2 0xCD1 DUP5 DUP3 DUP6 ADD PUSH2 0xC9B JUMP JUMPDEST SWAP2 POP POP SWAP3 SWAP2 POP POP JUMP JUMPDEST PUSH0 PUSH1 0xFF DUP3 AND SWAP1 POP SWAP2 SWAP1 POP JUMP JUMPDEST PUSH2 0xCEF DUP2 PUSH2 0xCDA JUMP JUMPDEST DUP2 EQ PUSH2 0xCF9 JUMPI PUSH0 DUP1 REVERT JUMPDEST POP JUMP JUMPDEST PUSH0 DUP2 MLOAD SWAP1 POP PUSH2 0xD0A DUP2 PUSH2 0xCE6 JUMP JUMPDEST SWAP3 SWAP2 POP POP JUMP JUMPDEST PUSH0 PUSH1 0x20 DUP3 DUP5 SUB SLT ISZERO PUSH2 0xD25 JUMPI PUSH2 0xD24 PUSH2 0xC0A JUMP JUMPDEST JUMPDEST PUSH0 PUSH2 0xD32 DUP5 DUP3 DUP6 ADD PUSH2 0xCFC JUMP JUMPDEST SWAP2 POP POP SWAP3 SWAP2 POP POP JUMP JUMPDEST PUSH32 0x4E487B7100000000000000000000000000000000000000000000000000000000 PUSH0 MSTORE PUSH1 0x11 PUSH1 0x4 MSTORE PUSH1 0x24 PUSH0 REVERT JUMPDEST PUSH0 PUSH2 0xD72 DUP3 PUSH2 0xBD9 JUMP JUMPDEST SWAP2 POP PUSH2 0xD7D DUP4 PUSH2 0xBD9 JUMP JUMPDEST SWAP3 POP DUP3 DUP3 SUB SWAP1 POP DUP2 DUP2 GT ISZERO PUSH2 0xD95 JUMPI PUSH2 0xD94 PUSH2 0xD3B JUMP JUMPDEST JUMPDEST SWAP3 SWAP2 POP POP JUMP JUMPDEST PUSH0 DUP2 PUSH1 0x1 SHR SWAP1 POP SWAP2 SWAP1 POP JUMP JUMPDEST PUSH0 DUP1 DUP3 SWAP2 POP DUP4 SWAP1 POP JUMPDEST PUSH1 0x1 DUP6 GT ISZERO PUSH2 0xDF0 JUMPI DUP1 DUP7 DIV DUP2 GT ISZERO PUSH2 0xDCC JUMPI PUSH2 0xDCB PUSH2 0xD3B JUMP JUMPDEST JUMPDEST PUSH1 0x1 DUP6 AND ISZERO PUSH2 0xDDB JUMPI DUP1 DUP3 MUL SWAP2 POP JUMPDEST DUP1 DUP2 MUL SWAP1 POP PUSH2 0xDE9 DUP6 PUSH2 0xD9B JUMP JUMPDEST SWAP5 POP PUSH2 0xDB0 JUMP JUMPDEST SWAP5 POP SWAP5 SWAP3 POP POP POP JUMP JUMPDEST PUSH0 DUP3 PUSH2 0xE08 JUMPI PUSH1 0x1 SWAP1 POP PUSH2 0xEC3 JUMP JUMPDEST DUP2 PUSH2 0xE15 JUMPI PUSH0 SWAP1 POP PUSH2 0xEC3 JUMP JUMPDEST DUP2 PUSH1 0x1 DUP2 EQ PUSH2 0xE2B JUMPI PUSH1 0x2 DUP2 EQ PUSH2 0xE35 JUMPI PUSH2 0xE64 JUMP JUMPDEST PUSH1 0x1 SWAP2 POP POP PUSH2 0xEC3 JUMP JUMPDEST PUSH1 0xFF DUP5 GT ISZERO PUSH2 0xE47 JUMPI PUSH2 0xE46 PUSH2 0xD3B JUMP JUMPDEST JUMPDEST DUP4 PUSH1 0x2 EXP SWAP2 POP DUP5 DUP3 GT ISZERO PUSH2 0xE5E JUMPI PUSH2 0xE5D PUSH2 0xD3B JUMP JUMPDEST JUMPDEST POP PUSH2 0xEC3 JUMP JUMPDEST POP PUSH1 0x20 DUP4 LT PUSH2 0x133 DUP4 LT AND PUSH1 0x4E DUP5 LT PUSH1 0xB DUP5 LT AND OR ISZERO PUSH2 0xE99 JUMPI DUP3 DUP3 EXP SWAP1 POP DUP4 DUP2 GT ISZERO PUSH2 0xE94 JUMPI PUSH2 0xE93 PUSH2 0xD3B JUMP JUMPDEST JUMPDEST PUSH2 0xEC3 JUMP JUMPDEST PUSH2 0xEA6 DUP5 DUP5 DUP5 PUSH1 0x1 PUSH2 0xDA7 JUMP JUMPDEST SWAP3 POP SWAP1 POP DUP2 DUP5 DIV DUP2 GT ISZERO PUSH2 0xEBD JUMPI PUSH2 0xEBC PUSH2 0xD3B JUMP JUMPDEST JUMPDEST DUP2 DUP2 MUL SWAP1 POP JUMPDEST SWAP4 SWAP3 POP POP POP JUMP JUMPDEST PUSH0 PUSH2 0xED4 DUP3 PUSH2 0xBD9 JUMP JUMPDEST SWAP2 POP PUSH2 0xEDF DUP4 PUSH2 0xBD9 JUMP JUMPDEST SWAP3 POP PUSH2 0xF0C PUSH32 0xFFFFFFFFFFFFFFFFFFFFFFFFFFFFFFFFFFFFFFFFFFFFFFFFFFFFFFFFFFFFFFFF DUP5 DUP5 PUSH2 0xDF9 JUMP JUMPDEST SWAP1 POP SWAP3 SWAP2 POP POP JUMP JUMPDEST PUSH0 PUSH2 0xF1E DUP3 PUSH2 0xBD9 JUMP JUMPDEST SWAP2 POP PUSH2 0xF29 DUP4 PUSH2 0xBD9 JUMP JUMPDEST SWAP3 POP DUP3 DUP3 MUL PUSH2 0xF37 DUP2 PUSH2 0xBD9 JUMP JUMPDEST SWAP2 POP DUP3 DUP3 DIV DUP5 EQ DUP4 ISZERO OR PUSH2 0xF4E JUMPI PUSH2 0xF4D PUSH2 0xD3B JUMP JUMPDEST JUMPDEST POP SWAP3 SWAP2 POP POP JUMP JUMPDEST PUSH32 0x4E487B7100000000000000000000000000000000000000000000000000000000 PUSH0 MSTORE PUSH1 0x12 PUSH1 0x4 MSTORE PUSH1 0x24 PUSH0 REVERT JUMPDEST PUSH0 PUSH2 0xF8C DUP3 PUSH2 0xBD9 JUMP JUMPDEST SWAP2 POP PUSH2 0xF97 DUP4 PUSH2 0xBD9 JUMP JUMPDEST SWAP3 POP DUP3 PUSH2 0xFA7 JUMPI PUSH2 0xFA6 PUSH2 0xF55 JUMP JUMPDEST JUMPDEST DUP3 DUP3 DIV SWAP1 POP SWAP3 SWAP2 POP POP JUMP INVALID LOG2 PUSH5 0x6970667358 0x22 SLT KECCAK256 EXTCODESIZE 0xE9 0xDD LOG3 PUSH12 0x5EEF4181BA38BDDDCF3AB7DE ADDMOD 0xB0 EXTCODEHASH ADDRESS SWAP6 CALL DELEGATECALL 0xCE 0x5D RETURNDATACOPY DUP5 0xB4 DUP15 0xD9 0xF6 PUSH5 0x736F6C6343 STOP ADDMOD EQ STOP CALLER "
		},
		"gasEstimates": {
			"creation": {
				"codeDepositCost": "814400",
				"executionCost": "849",
				"totalCost": "815249"
			},
			"external": {
				"asset()": "infinite",
				"calculateOrig()": "infinite",
				"calculateWithCachedDecimals()": "infinite",
				"calculateWithCachedDecimalsAndScalingFactor()": "infinite",
				"calculateWithScalingFactor()": "infinite",
				"liquidityProvider()": "infinite",
				"updateAsset(address)": "24781",
				"updateLiquidityProvider(address)": "infinite"
			}
		},
		"methodIdentifiers": {
			"asset()": "38d52e0f",
			"calculateOrig()": "83781fa9",
			"calculateWithCachedDecimals()": "9b3e9ab8",
			"calculateWithCachedDecimalsAndScalingFactor()": "dcffa7f7",
			"calculateWithScalingFactor()": "5d0b41f8",
			"liquidityProvider()": "5b8bec55",
			"updateAsset(address)": "f141b52b",
			"updateLiquidityProvider(address)": "cd5c645c"
		}
	},
	"abi": [
		{
			"inputs": [],
			"name": "asset",
			"outputs": [
				{
					"internalType": "contract ERC20",
					"name": "",
					"type": "address"
				}
			],
			"stateMutability": "view",
			"type": "function"
		},
		{
			"inputs": [],
			"name": "calculateOrig",
			"outputs": [
				{
					"internalType": "uint256",
					"name": "",
					"type": "uint256"
				}
			],
			"stateMutability": "view",
			"type": "function"
		},
		{
			"inputs": [],
			"name": "calculateWithCachedDecimals",
			"outputs": [
				{
					"internalType": "uint256",
					"name": "",
					"type": "uint256"
				}
			],
			"stateMutability": "view",
			"type": "function"
		},
		{
			"inputs": [],
			"name": "calculateWithCachedDecimalsAndScalingFactor",
			"outputs": [
				{
					"internalType": "uint256",
					"name": "",
					"type": "uint256"
				}
			],
			"stateMutability": "view",
			"type": "function"
		},
		{
			"inputs": [],
			"name": "calculateWithScalingFactor",
			"outputs": [
				{
					"internalType": "uint256",
					"name": "",
					"type": "uint256"
				}
			],
			"stateMutability": "view",
			"type": "function"
		},
		{
			"inputs": [],
			"name": "liquidityProvider",
			"outputs": [
				{
					"internalType": "contract ILiquidityProvider",
					"name": "",
					"type": "address"
				}
			],
			"stateMutability": "view",
			"type": "function"
		},
		{
			"inputs": [
				{
					"internalType": "address",
					"name": "_asset",
					"type": "address"
				}
			],
			"name": "updateAsset",
			"outputs": [],
			"stateMutability": "nonpayable",
			"type": "function"
		},
		{
			"inputs": [
				{
					"internalType": "address",
					"name": "_liquidityProvider",
					"type": "address"
				}
			],
			"name": "updateLiquidityProvider",
			"outputs": [],
			"stateMutability": "nonpayable",
			"type": "function"
		}
	]
}