{
	"data": {
		"bytecode": {
			"linkReferences": {},
			"object": "608060405234801561000f575f80fd5b50610ebe8061001d5f395ff3fe608060405234801561000f575f80fd5b506004361061007b575f3560e01c806383781fa91161005957806383781fa9146100d95780639b3e9ab8146100f7578063cd5c645c14610115578063f141b52b146101315761007b565b806338d52e0f1461007f5780635b8bec551461009d5780635d0b41f8146100bb575b5f80fd5b61008761014d565b6040516100949190610a5d565b60405180910390f35b6100a5610172565b6040516100b29190610a96565b60405180910390f35b6100c3610195565b6040516100d09190610ac7565b60405180910390f35b6100e161042a565b6040516100ee9190610ac7565b60405180910390f35b6100ff6106b5565b60405161010c9190610ac7565b60405180910390f35b61012f600480360381019061012a9190610b1f565b6107c0565b005b61014b60048036038101906101469190610b1f565b6109a0565b005b60015f9054906101000a900473ffffffffffffffffffffffffffffffffffffffff1681565b5f8054906101000a900473ffffffffffffffffffffffffffffffffffffffff1681565b5f80670de0b6b3a764000090505f621e848090505f805f9054906101000a900473ffffffffffffffffffffffffffffffffffffffff1673ffffffffffffffffffffffffffffffffffffffff166343cd8f7e6040518163ffffffff1660e01b8152600401602060405180830381865afa158015610213573d5f803e3d5ffd5b505050506040513d601f19601f820116820180604052508101906102379190610b85565b90505f8173ffffffffffffffffffffffffffffffffffffffff1663313ce5676040518163ffffffff1660e01b8152600401602060405180830381865afa158015610283573d5f803e3d5ffd5b505050506040513d601f19601f820116820180604052508101906102a79190610be6565b60ff1690505f60015f9054906101000a900473ffffffffffffffffffffffffffffffffffffffff1673ffffffffffffffffffffffffffffffffffffffff1663313ce5676040518163ffffffff1660e01b8152600401602060405180830381865afa158015610317573d5f803e3d5ffd5b505050506040513d601f19601f8201168201806040525081019061033b9190610be6565b60ff1690505f8183111561039e5781836103559190610c3e565b600a6103619190610da0565b905082600a6103709190610da0565b81868861037d9190610dea565b6103879190610dea565b6103919190610e58565b9650505050505050610427565b818310156103fb5782826103b29190610c3e565b600a6103be9190610da0565b905082600a6103cd9190610da0565b8186886103da9190610dea565b6103e49190610e58565b6103ee9190610e58565b9650505050505050610427565b81600a6104089190610da0565b85876104149190610dea565b61041e9190610e58565b96505050505050505b90565b5f80670de0b6b3a764000090505f621e848090505f805f9054906101000a900473ffffffffffffffffffffffffffffffffffffffff1673ffffffffffffffffffffffffffffffffffffffff166343cd8f7e6040518163ffffffff1660e01b8152600401602060405180830381865afa1580156104a8573d5f803e3d5ffd5b505050506040513d601f19601f820116820180604052508101906104cc9190610b85565b90505f8173ffffffffffffffffffffffffffffffffffffffff1663313ce5676040518163ffffffff1660e01b8152600401602060405180830381865afa158015610518573d5f803e3d5ffd5b505050506040513d601f19601f8201168201806040525081019061053c9190610be6565b60ff1690505f60015f9054906101000a900473ffffffffffffffffffffffffffffffffffffffff1673ffffffffffffffffffffffffffffffffffffffff1663313ce5676040518163ffffffff1660e01b8152600401602060405180830381865afa1580156105ac573d5f803e3d5ffd5b505050506040513d601f19601f820116820180604052508101906105d09190610be6565b60ff1690508082111561062e5781600a6105ea9190610da0565b81836105f69190610c3e565b600a6106029190610da0565b858761060e9190610dea565b6106189190610dea565b6106229190610e58565b955050505050506106b2565b808210156106875781600a6106439190610da0565b828261064f9190610c3e565b600a61065b9190610da0565b85876106679190610dea565b6106719190610e58565b61067b9190610e58565b955050505050506106b2565b80600a6106949190610da0565b84866106a09190610dea565b6106aa9190610e58565b955050505050505b90565b5f80670de0b6b3a764000090505f621e848090505f600354600254111561072e576003546002546106e69190610c3e565b600a6106f29190610da0565b9050600254600a6107039190610da0565b8183856107109190610dea565b61071a9190610dea565b6107249190610e58565b93505050506107bd565b60035460025410156107925760025460035461074a9190610c3e565b600a6107569190610da0565b9050600254600a6107679190610da0565b8183856107749190610dea565b61077e9190610e58565b6107889190610e58565b93505050506107bd565b600354600a6107a19190610da0565b82846107ad9190610dea565b6107b79190610e58565b93505050505b90565b805f806101000a81548173ffffffffffffffffffffffffffffffffffffffff021916908373ffffffffffffffffffffffffffffffffffffffff1602179055505f805f9054906101000a900473ffffffffffffffffffffffffffffffffffffffff1673ffffffffffffffffffffffffffffffffffffffff166343cd8f7e6040518163ffffffff1660e01b8152600401602060405180830381865afa158015610869573d5f803e3d5ffd5b505050506040513d601f19601f8201168201806040525081019061088d9190610b85565b90508073ffffffffffffffffffffffffffffffffffffffff1663313ce5676040518163ffffffff1660e01b8152600401602060405180830381865afa1580156108d8573d5f803e3d5ffd5b505050506040513d601f19601f820116820180604052508101906108fc9190610be6565b60ff1660028190555060015f9054906101000a900473ffffffffffffffffffffffffffffffffffffffff1673ffffffffffffffffffffffffffffffffffffffff1663313ce5676040518163ffffffff1660e01b8152600401602060405180830381865afa15801561096f573d5f803e3d5ffd5b505050506040513d601f19601f820116820180604052508101906109939190610be6565b60ff166003819055505050565b8060015f6101000a81548173ffffffffffffffffffffffffffffffffffffffff021916908373ffffffffffffffffffffffffffffffffffffffff16021790555050565b5f73ffffffffffffffffffffffffffffffffffffffff82169050919050565b5f819050919050565b5f610a25610a20610a1b846109e3565b610a02565b6109e3565b9050919050565b5f610a3682610a0b565b9050919050565b5f610a4782610a2c565b9050919050565b610a5781610a3d565b82525050565b5f602082019050610a705f830184610a4e565b92915050565b5f610a8082610a2c565b9050919050565b610a9081610a76565b82525050565b5f602082019050610aa95f830184610a87565b92915050565b5f819050919050565b610ac181610aaf565b82525050565b5f602082019050610ada5f830184610ab8565b92915050565b5f80fd5b5f610aee826109e3565b9050919050565b610afe81610ae4565b8114610b08575f80fd5b50565b5f81359050610b1981610af5565b92915050565b5f60208284031215610b3457610b33610ae0565b5b5f610b4184828501610b0b565b91505092915050565b5f610b5482610ae4565b9050919050565b610b6481610b4a565b8114610b6e575f80fd5b50565b5f81519050610b7f81610b5b565b92915050565b5f60208284031215610b9a57610b99610ae0565b5b5f610ba784828501610b71565b91505092915050565b5f60ff82169050919050565b610bc581610bb0565b8114610bcf575f80fd5b50565b5f81519050610be081610bbc565b92915050565b5f60208284031215610bfb57610bfa610ae0565b5b5f610c0884828501610bd2565b91505092915050565b7f4e487b71000000000000000000000000000000000000000000000000000000005f52601160045260245ffd5b5f610c4882610aaf565b9150610c5383610aaf565b9250828203905081811115610c6b57610c6a610c11565b5b92915050565b5f8160011c9050919050565b5f808291508390505b6001851115610cc657808604811115610ca257610ca1610c11565b5b6001851615610cb15780820291505b8081029050610cbf85610c71565b9450610c86565b94509492505050565b5f82610cde5760019050610d99565b81610ceb575f9050610d99565b8160018114610d015760028114610d0b57610d3a565b6001915050610d99565b60ff841115610d1d57610d1c610c11565b5b8360020a915084821115610d3457610d33610c11565b5b50610d99565b5060208310610133831016604e8410600b8410161715610d6f5782820a905083811115610d6a57610d69610c11565b5b610d99565b610d7c8484846001610c7d565b92509050818404811115610d9357610d92610c11565b5b81810290505b9392505050565b5f610daa82610aaf565b9150610db583610aaf565b9250610de27fffffffffffffffffffffffffffffffffffffffffffffffffffffffffffffffff8484610ccf565b905092915050565b5f610df482610aaf565b9150610dff83610aaf565b9250828202610e0d81610aaf565b91508282048414831517610e2457610e23610c11565b5b5092915050565b7f4e487b71000000000000000000000000000000000000000000000000000000005f52601260045260245ffd5b5f610e6282610aaf565b9150610e6d83610aaf565b925082610e7d57610e7c610e2b565b5b82820490509291505056fea2646970667358221220993d71bb92f2659513d94eb6777b50094a91e4f788410b28c954f5c761d903a164736f6c63430008140033",
			"opcodes": "PUSH1 0x80 PUSH1 0x40 MSTORE CALLVALUE DUP1 ISZERO PUSH2 0xF JUMPI PUSH0 DUP1 REVERT JUMPDEST POP PUSH2 0xEBE DUP1 PUSH2 0x1D PUSH0 CODECOPY PUSH0 RETURN INVALID PUSH1 0x80 PUSH1 0x40 MSTORE CALLVALUE DUP1 ISZERO PUSH2 0xF JUMPI PUSH0 DUP1 REVERT JUMPDEST POP PUSH1 0x4 CALLDATASIZE LT PUSH2 0x7B JUMPI PUSH0 CALLDATALOAD PUSH1 0xE0 SHR DUP1 PUSH4 0x83781FA9 GT PUSH2 0x59 JUMPI DUP1 PUSH4 0x83781FA9 EQ PUSH2 0xD9 JUMPI DUP1 PUSH4 0x9B3E9AB8 EQ PUSH2 0xF7 JUMPI DUP1 PUSH4 0xCD5C645C EQ PUSH2 0x115 JUMPI DUP1 PUSH4 0xF141B52B EQ PUSH2 0x131 JUMPI PUSH2 0x7B JUMP JUMPDEST DUP1 PUSH4 0x38D52E0F EQ PUSH2 0x7F JUMPI DUP1 PUSH4 0x5B8BEC55 EQ PUSH2 0x9D JUMPI DUP1 PUSH4 0x5D0B41F8 EQ PUSH2 0xBB JUMPI JUMPDEST PUSH0 DUP1 REVERT JUMPDEST PUSH2 0x87 PUSH2 0x14D JUMP JUMPDEST PUSH1 0x40 MLOAD PUSH2 0x94 SWAP2 SWAP1 PUSH2 0xA5D JUMP JUMPDEST PUSH1 0x40 MLOAD DUP1 SWAP2 SUB SWAP1 RETURN JUMPDEST PUSH2 0xA5 PUSH2 0x172 JUMP JUMPDEST PUSH1 0x40 MLOAD PUSH2 0xB2 SWAP2 SWAP1 PUSH2 0xA96 JUMP JUMPDEST PUSH1 0x40 MLOAD DUP1 SWAP2 SUB SWAP1 RETURN JUMPDEST PUSH2 0xC3 PUSH2 0x195 JUMP JUMPDEST PUSH1 0x40 MLOAD PUSH2 0xD0 SWAP2 SWAP1 PUSH2 0xAC7 JUMP JUMPDEST PUSH1 0x40 MLOAD DUP1 SWAP2 SUB SWAP1 RETURN JUMPDEST PUSH2 0xE1 PUSH2 0x42A JUMP JUMPDEST PUSH1 0x40 MLOAD PUSH2 0xEE SWAP2 SWAP1 PUSH2 0xAC7 JUMP JUMPDEST PUSH1 0x40 MLOAD DUP1 SWAP2 SUB SWAP1 RETURN JUMPDEST PUSH2 0xFF PUSH2 0x6B5 JUMP JUMPDEST PUSH1 0x40 MLOAD PUSH2 0x10C SWAP2 SWAP1 PUSH2 0xAC7 JUMP JUMPDEST PUSH1 0x40 MLOAD DUP1 SWAP2 SUB SWAP1 RETURN JUMPDEST PUSH2 0x12F PUSH1 0x4 DUP1 CALLDATASIZE SUB DUP2 ADD SWAP1 PUSH2 0x12A SWAP2 SWAP1 PUSH2 0xB1F JUMP JUMPDEST PUSH2 0x7C0 JUMP JUMPDEST STOP JUMPDEST PUSH2 0x14B PUSH1 0x4 DUP1 CALLDATASIZE SUB DUP2 ADD SWAP1 PUSH2 0x146 SWAP2 SWAP1 PUSH2 0xB1F JUMP JUMPDEST PUSH2 0x9A0 JUMP JUMPDEST STOP JUMPDEST PUSH1 0x1 PUSH0 SWAP1 SLOAD SWAP1 PUSH2 0x100 EXP SWAP1 DIV PUSH20 0xFFFFFFFFFFFFFFFFFFFFFFFFFFFFFFFFFFFFFFFF AND DUP2 JUMP JUMPDEST PUSH0 DUP1 SLOAD SWAP1 PUSH2 0x100 EXP SWAP1 DIV PUSH20 0xFFFFFFFFFFFFFFFFFFFFFFFFFFFFFFFFFFFFFFFF AND DUP2 JUMP JUMPDEST PUSH0 DUP1 PUSH8 0xDE0B6B3A7640000 SWAP1 POP PUSH0 PUSH3 0x1E8480 SWAP1 POP PUSH0 DUP1 PUSH0 SWAP1 SLOAD SWAP1 PUSH2 0x100 EXP SWAP1 DIV PUSH20 0xFFFFFFFFFFFFFFFFFFFFFFFFFFFFFFFFFFFFFFFF AND PUSH20 0xFFFFFFFFFFFFFFFFFFFFFFFFFFFFFFFFFFFFFFFF AND PUSH4 0x43CD8F7E PUSH1 0x40 MLOAD DUP2 PUSH4 0xFFFFFFFF AND PUSH1 0xE0 SHL DUP2 MSTORE PUSH1 0x4 ADD PUSH1 0x20 PUSH1 0x40 MLOAD DUP1 DUP4 SUB DUP2 DUP7 GAS STATICCALL ISZERO DUP1 ISZERO PUSH2 0x213 JUMPI RETURNDATASIZE PUSH0 DUP1 RETURNDATACOPY RETURNDATASIZE PUSH0 REVERT JUMPDEST POP POP POP POP PUSH1 0x40 MLOAD RETURNDATASIZE PUSH1 0x1F NOT PUSH1 0x1F DUP3 ADD AND DUP3 ADD DUP1 PUSH1 0x40 MSTORE POP DUP2 ADD SWAP1 PUSH2 0x237 SWAP2 SWAP1 PUSH2 0xB85 JUMP JUMPDEST SWAP1 POP PUSH0 DUP2 PUSH20 0xFFFFFFFFFFFFFFFFFFFFFFFFFFFFFFFFFFFFFFFF AND PUSH4 0x313CE567 PUSH1 0x40 MLOAD DUP2 PUSH4 0xFFFFFFFF AND PUSH1 0xE0 SHL DUP2 MSTORE PUSH1 0x4 ADD PUSH1 0x20 PUSH1 0x40 MLOAD DUP1 DUP4 SUB DUP2 DUP7 GAS STATICCALL ISZERO DUP1 ISZERO PUSH2 0x283 JUMPI RETURNDATASIZE PUSH0 DUP1 RETURNDATACOPY RETURNDATASIZE PUSH0 REVERT JUMPDEST POP POP POP POP PUSH1 0x40 MLOAD RETURNDATASIZE PUSH1 0x1F NOT PUSH1 0x1F DUP3 ADD AND DUP3 ADD DUP1 PUSH1 0x40 MSTORE POP DUP2 ADD SWAP1 PUSH2 0x2A7 SWAP2 SWAP1 PUSH2 0xBE6 JUMP JUMPDEST PUSH1 0xFF AND SWAP1 POP PUSH0 PUSH1 0x1 PUSH0 SWAP1 SLOAD SWAP1 PUSH2 0x100 EXP SWAP1 DIV PUSH20 0xFFFFFFFFFFFFFFFFFFFFFFFFFFFFFFFFFFFFFFFF AND PUSH20 0xFFFFFFFFFFFFFFFFFFFFFFFFFFFFFFFFFFFFFFFF AND PUSH4 0x313CE567 PUSH1 0x40 MLOAD DUP2 PUSH4 0xFFFFFFFF AND PUSH1 0xE0 SHL DUP2 MSTORE PUSH1 0x4 ADD PUSH1 0x20 PUSH1 0x40 MLOAD DUP1 DUP4 SUB DUP2 DUP7 GAS STATICCALL ISZERO DUP1 ISZERO PUSH2 0x317 JUMPI RETURNDATASIZE PUSH0 DUP1 RETURNDATACOPY RETURNDATASIZE PUSH0 REVERT JUMPDEST POP POP POP POP PUSH1 0x40 MLOAD RETURNDATASIZE PUSH1 0x1F NOT PUSH1 0x1F DUP3 ADD AND DUP3 ADD DUP1 PUSH1 0x40 MSTORE POP DUP2 ADD SWAP1 PUSH2 0x33B SWAP2 SWAP1 PUSH2 0xBE6 JUMP JUMPDEST PUSH1 0xFF AND SWAP1 POP PUSH0 DUP2 DUP4 GT ISZERO PUSH2 0x39E JUMPI DUP2 DUP4 PUSH2 0x355 SWAP2 SWAP1 PUSH2 0xC3E JUMP JUMPDEST PUSH1 0xA PUSH2 0x361 SWAP2 SWAP1 PUSH2 0xDA0 JUMP JUMPDEST SWAP1 POP DUP3 PUSH1 0xA PUSH2 0x370 SWAP2 SWAP1 PUSH2 0xDA0 JUMP JUMPDEST DUP2 DUP7 DUP9 PUSH2 0x37D SWAP2 SWAP1 PUSH2 0xDEA JUMP JUMPDEST PUSH2 0x387 SWAP2 SWAP1 PUSH2 0xDEA JUMP JUMPDEST PUSH2 0x391 SWAP2 SWAP1 PUSH2 0xE58 JUMP JUMPDEST SWAP7 POP POP POP POP POP POP POP PUSH2 0x427 JUMP JUMPDEST DUP2 DUP4 LT ISZERO PUSH2 0x3FB JUMPI DUP3 DUP3 PUSH2 0x3B2 SWAP2 SWAP1 PUSH2 0xC3E JUMP JUMPDEST PUSH1 0xA PUSH2 0x3BE SWAP2 SWAP1 PUSH2 0xDA0 JUMP JUMPDEST SWAP1 POP DUP3 PUSH1 0xA PUSH2 0x3CD SWAP2 SWAP1 PUSH2 0xDA0 JUMP JUMPDEST DUP2 DUP7 DUP9 PUSH2 0x3DA SWAP2 SWAP1 PUSH2 0xDEA JUMP JUMPDEST PUSH2 0x3E4 SWAP2 SWAP1 PUSH2 0xE58 JUMP JUMPDEST PUSH2 0x3EE SWAP2 SWAP1 PUSH2 0xE58 JUMP JUMPDEST SWAP7 POP POP POP POP POP POP POP PUSH2 0x427 JUMP JUMPDEST DUP2 PUSH1 0xA PUSH2 0x408 SWAP2 SWAP1 PUSH2 0xDA0 JUMP JUMPDEST DUP6 DUP8 PUSH2 0x414 SWAP2 SWAP1 PUSH2 0xDEA JUMP JUMPDEST PUSH2 0x41E SWAP2 SWAP1 PUSH2 0xE58 JUMP JUMPDEST SWAP7 POP POP POP POP POP POP POP JUMPDEST SWAP1 JUMP JUMPDEST PUSH0 DUP1 PUSH8 0xDE0B6B3A7640000 SWAP1 POP PUSH0 PUSH3 0x1E8480 SWAP1 POP PUSH0 DUP1 PUSH0 SWAP1 SLOAD SWAP1 PUSH2 0x100 EXP SWAP1 DIV PUSH20 0xFFFFFFFFFFFFFFFFFFFFFFFFFFFFFFFFFFFFFFFF AND PUSH20 0xFFFFFFFFFFFFFFFFFFFFFFFFFFFFFFFFFFFFFFFF AND PUSH4 0x43CD8F7E PUSH1 0x40 MLOAD DUP2 PUSH4 0xFFFFFFFF AND PUSH1 0xE0 SHL DUP2 MSTORE PUSH1 0x4 ADD PUSH1 0x20 PUSH1 0x40 MLOAD DUP1 DUP4 SUB DUP2 DUP7 GAS STATICCALL ISZERO DUP1 ISZERO PUSH2 0x4A8 JUMPI RETURNDATASIZE PUSH0 DUP1 RETURNDATACOPY RETURNDATASIZE PUSH0 REVERT JUMPDEST POP POP POP POP PUSH1 0x40 MLOAD RETURNDATASIZE PUSH1 0x1F NOT PUSH1 0x1F DUP3 ADD AND DUP3 ADD DUP1 PUSH1 0x40 MSTORE POP DUP2 ADD SWAP1 PUSH2 0x4CC SWAP2 SWAP1 PUSH2 0xB85 JUMP JUMPDEST SWAP1 POP PUSH0 DUP2 PUSH20 0xFFFFFFFFFFFFFFFFFFFFFFFFFFFFFFFFFFFFFFFF AND PUSH4 0x313CE567 PUSH1 0x40 MLOAD DUP2 PUSH4 0xFFFFFFFF AND PUSH1 0xE0 SHL DUP2 MSTORE PUSH1 0x4 ADD PUSH1 0x20 PUSH1 0x40 MLOAD DUP1 DUP4 SUB DUP2 DUP7 GAS STATICCALL ISZERO DUP1 ISZERO PUSH2 0x518 JUMPI RETURNDATASIZE PUSH0 DUP1 RETURNDATACOPY RETURNDATASIZE PUSH0 REVERT JUMPDEST POP POP POP POP PUSH1 0x40 MLOAD RETURNDATASIZE PUSH1 0x1F NOT PUSH1 0x1F DUP3 ADD AND DUP3 ADD DUP1 PUSH1 0x40 MSTORE POP DUP2 ADD SWAP1 PUSH2 0x53C SWAP2 SWAP1 PUSH2 0xBE6 JUMP JUMPDEST PUSH1 0xFF AND SWAP1 POP PUSH0 PUSH1 0x1 PUSH0 SWAP1 SLOAD SWAP1 PUSH2 0x100 EXP SWAP1 DIV PUSH20 0xFFFFFFFFFFFFFFFFFFFFFFFFFFFFFFFFFFFFFFFF AND PUSH20 0xFFFFFFFFFFFFFFFFFFFFFFFFFFFFFFFFFFFFFFFF AND PUSH4 0x313CE567 PUSH1 0x40 MLOAD DUP2 PUSH4 0xFFFFFFFF AND PUSH1 0xE0 SHL DUP2 MSTORE PUSH1 0x4 ADD PUSH1 0x20 PUSH1 0x40 MLOAD DUP1 DUP4 SUB DUP2 DUP7 GAS STATICCALL ISZERO DUP1 ISZERO PUSH2 0x5AC JUMPI RETURNDATASIZE PUSH0 DUP1 RETURNDATACOPY RETURNDATASIZE PUSH0 REVERT JUMPDEST POP POP POP POP PUSH1 0x40 MLOAD RETURNDATASIZE PUSH1 0x1F NOT PUSH1 0x1F DUP3 ADD AND DUP3 ADD DUP1 PUSH1 0x40 MSTORE POP DUP2 ADD SWAP1 PUSH2 0x5D0 SWAP2 SWAP1 PUSH2 0xBE6 JUMP JUMPDEST PUSH1 0xFF AND SWAP1 POP DUP1 DUP3 GT ISZERO PUSH2 0x62E JUMPI DUP2 PUSH1 0xA PUSH2 0x5EA SWAP2 SWAP1 PUSH2 0xDA0 JUMP JUMPDEST DUP2 DUP4 PUSH2 0x5F6 SWAP2 SWAP1 PUSH2 0xC3E JUMP JUMPDEST PUSH1 0xA PUSH2 0x602 SWAP2 SWAP1 PUSH2 0xDA0 JUMP JUMPDEST DUP6 DUP8 PUSH2 0x60E SWAP2 SWAP1 PUSH2 0xDEA JUMP JUMPDEST PUSH2 0x618 SWAP2 SWAP1 PUSH2 0xDEA JUMP JUMPDEST PUSH2 0x622 SWAP2 SWAP1 PUSH2 0xE58 JUMP JUMPDEST SWAP6 POP POP POP POP POP POP PUSH2 0x6B2 JUMP JUMPDEST DUP1 DUP3 LT ISZERO PUSH2 0x687 JUMPI DUP2 PUSH1 0xA PUSH2 0x643 SWAP2 SWAP1 PUSH2 0xDA0 JUMP JUMPDEST DUP3 DUP3 PUSH2 0x64F SWAP2 SWAP1 PUSH2 0xC3E JUMP JUMPDEST PUSH1 0xA PUSH2 0x65B SWAP2 SWAP1 PUSH2 0xDA0 JUMP JUMPDEST DUP6 DUP8 PUSH2 0x667 SWAP2 SWAP1 PUSH2 0xDEA JUMP JUMPDEST PUSH2 0x671 SWAP2 SWAP1 PUSH2 0xE58 JUMP JUMPDEST PUSH2 0x67B SWAP2 SWAP1 PUSH2 0xE58 JUMP JUMPDEST SWAP6 POP POP POP POP POP POP PUSH2 0x6B2 JUMP JUMPDEST DUP1 PUSH1 0xA PUSH2 0x694 SWAP2 SWAP1 PUSH2 0xDA0 JUMP JUMPDEST DUP5 DUP7 PUSH2 0x6A0 SWAP2 SWAP1 PUSH2 0xDEA JUMP JUMPDEST PUSH2 0x6AA SWAP2 SWAP1 PUSH2 0xE58 JUMP JUMPDEST SWAP6 POP POP POP POP POP POP JUMPDEST SWAP1 JUMP JUMPDEST PUSH0 DUP1 PUSH8 0xDE0B6B3A7640000 SWAP1 POP PUSH0 PUSH3 0x1E8480 SWAP1 POP PUSH0 PUSH1 0x3 SLOAD PUSH1 0x2 SLOAD GT ISZERO PUSH2 0x72E JUMPI PUSH1 0x3 SLOAD PUSH1 0x2 SLOAD PUSH2 0x6E6 SWAP2 SWAP1 PUSH2 0xC3E JUMP JUMPDEST PUSH1 0xA PUSH2 0x6F2 SWAP2 SWAP1 PUSH2 0xDA0 JUMP JUMPDEST SWAP1 POP PUSH1 0x2 SLOAD PUSH1 0xA PUSH2 0x703 SWAP2 SWAP1 PUSH2 0xDA0 JUMP JUMPDEST DUP2 DUP4 DUP6 PUSH2 0x710 SWAP2 SWAP1 PUSH2 0xDEA JUMP JUMPDEST PUSH2 0x71A SWAP2 SWAP1 PUSH2 0xDEA JUMP JUMPDEST PUSH2 0x724 SWAP2 SWAP1 PUSH2 0xE58 JUMP JUMPDEST SWAP4 POP POP POP POP PUSH2 0x7BD JUMP JUMPDEST PUSH1 0x3 SLOAD PUSH1 0x2 SLOAD LT ISZERO PUSH2 0x792 JUMPI PUSH1 0x2 SLOAD PUSH1 0x3 SLOAD PUSH2 0x74A SWAP2 SWAP1 PUSH2 0xC3E JUMP JUMPDEST PUSH1 0xA PUSH2 0x756 SWAP2 SWAP1 PUSH2 0xDA0 JUMP JUMPDEST SWAP1 POP PUSH1 0x2 SLOAD PUSH1 0xA PUSH2 0x767 SWAP2 SWAP1 PUSH2 0xDA0 JUMP JUMPDEST DUP2 DUP4 DUP6 PUSH2 0x774 SWAP2 SWAP1 PUSH2 0xDEA JUMP JUMPDEST PUSH2 0x77E SWAP2 SWAP1 PUSH2 0xE58 JUMP JUMPDEST PUSH2 0x788 SWAP2 SWAP1 PUSH2 0xE58 JUMP JUMPDEST SWAP4 POP POP POP POP PUSH2 0x7BD JUMP JUMPDEST PUSH1 0x3 SLOAD PUSH1 0xA PUSH2 0x7A1 SWAP2 SWAP1 PUSH2 0xDA0 JUMP JUMPDEST DUP3 DUP5 PUSH2 0x7AD SWAP2 SWAP1 PUSH2 0xDEA JUMP JUMPDEST PUSH2 0x7B7 SWAP2 SWAP1 PUSH2 0xE58 JUMP JUMPDEST SWAP4 POP POP POP POP JUMPDEST SWAP1 JUMP JUMPDEST DUP1 PUSH0 DUP1 PUSH2 0x100 EXP DUP2 SLOAD DUP2 PUSH20 0xFFFFFFFFFFFFFFFFFFFFFFFFFFFFFFFFFFFFFFFF MUL NOT AND SWAP1 DUP4 PUSH20 0xFFFFFFFFFFFFFFFFFFFFFFFFFFFFFFFFFFFFFFFF AND MUL OR SWAP1 SSTORE POP PUSH0 DUP1 PUSH0 SWAP1 SLOAD SWAP1 PUSH2 0x100 EXP SWAP1 DIV PUSH20 0xFFFFFFFFFFFFFFFFFFFFFFFFFFFFFFFFFFFFFFFF AND PUSH20 0xFFFFFFFFFFFFFFFFFFFFFFFFFFFFFFFFFFFFFFFF AND PUSH4 0x43CD8F7E PUSH1 0x40 MLOAD DUP2 PUSH4 0xFFFFFFFF AND PUSH1 0xE0 SHL DUP2 MSTORE PUSH1 0x4 ADD PUSH1 0x20 PUSH1 0x40 MLOAD DUP1 DUP4 SUB DUP2 DUP7 GAS STATICCALL ISZERO DUP1 ISZERO PUSH2 0x869 JUMPI RETURNDATASIZE PUSH0 DUP1 RETURNDATACOPY RETURNDATASIZE PUSH0 REVERT JUMPDEST POP POP POP POP PUSH1 0x40 MLOAD RETURNDATASIZE PUSH1 0x1F NOT PUSH1 0x1F DUP3 ADD AND DUP3 ADD DUP1 PUSH1 0x40 MSTORE POP DUP2 ADD SWAP1 PUSH2 0x88D SWAP2 SWAP1 PUSH2 0xB85 JUMP JUMPDEST SWAP1 POP DUP1 PUSH20 0xFFFFFFFFFFFFFFFFFFFFFFFFFFFFFFFFFFFFFFFF AND PUSH4 0x313CE567 PUSH1 0x40 MLOAD DUP2 PUSH4 0xFFFFFFFF AND PUSH1 0xE0 SHL DUP2 MSTORE PUSH1 0x4 ADD PUSH1 0x20 PUSH1 0x40 MLOAD DUP1 DUP4 SUB DUP2 DUP7 GAS STATICCALL ISZERO DUP1 ISZERO PUSH2 0x8D8 JUMPI RETURNDATASIZE PUSH0 DUP1 RETURNDATACOPY RETURNDATASIZE PUSH0 REVERT JUMPDEST POP POP POP POP PUSH1 0x40 MLOAD RETURNDATASIZE PUSH1 0x1F NOT PUSH1 0x1F DUP3 ADD AND DUP3 ADD DUP1 PUSH1 0x40 MSTORE POP DUP2 ADD SWAP1 PUSH2 0x8FC SWAP2 SWAP1 PUSH2 0xBE6 JUMP JUMPDEST PUSH1 0xFF AND PUSH1 0x2 DUP2 SWAP1 SSTORE POP PUSH1 0x1 PUSH0 SWAP1 SLOAD SWAP1 PUSH2 0x100 EXP SWAP1 DIV PUSH20 0xFFFFFFFFFFFFFFFFFFFFFFFFFFFFFFFFFFFFFFFF AND PUSH20 0xFFFFFFFFFFFFFFFFFFFFFFFFFFFFFFFFFFFFFFFF AND PUSH4 0x313CE567 PUSH1 0x40 MLOAD DUP2 PUSH4 0xFFFFFFFF AND PUSH1 0xE0 SHL DUP2 MSTORE PUSH1 0x4 ADD PUSH1 0x20 PUSH1 0x40 MLOAD DUP1 DUP4 SUB DUP2 DUP7 GAS STATICCALL ISZERO DUP1 ISZERO PUSH2 0x96F JUMPI RETURNDATASIZE PUSH0 DUP1 RETURNDATACOPY RETURNDATASIZE PUSH0 REVERT JUMPDEST POP POP POP POP PUSH1 0x40 MLOAD RETURNDATASIZE PUSH1 0x1F NOT PUSH1 0x1F DUP3 ADD AND DUP3 ADD DUP1 PUSH1 0x40 MSTORE POP DUP2 ADD SWAP1 PUSH2 0x993 SWAP2 SWAP1 PUSH2 0xBE6 JUMP JUMPDEST PUSH1 0xFF AND PUSH1 0x3 DUP2 SWAP1 SSTORE POP POP POP JUMP JUMPDEST DUP1 PUSH1 0x1 PUSH0 PUSH2 0x100 EXP DUP2 SLOAD DUP2 PUSH20 0xFFFFFFFFFFFFFFFFFFFFFFFFFFFFFFFFFFFFFFFF MUL NOT AND SWAP1 DUP4 PUSH20 0xFFFFFFFFFFFFFFFFFFFFFFFFFFFFFFFFFFFFFFFF AND MUL OR SWAP1 SSTORE POP POP JUMP JUMPDEST PUSH0 PUSH20 0xFFFFFFFFFFFFFFFFFFFFFFFFFFFFFFFFFFFFFFFF DUP3 AND SWAP1 POP SWAP2 SWAP1 POP JUMP JUMPDEST PUSH0 DUP2 SWAP1 POP SWAP2 SWAP1 POP JUMP JUMPDEST PUSH0 PUSH2 0xA25 PUSH2 0xA20 PUSH2 0xA1B DUP5 PUSH2 0x9E3 JUMP JUMPDEST PUSH2 0xA02 JUMP JUMPDEST PUSH2 0x9E3 JUMP JUMPDEST SWAP1 POP SWAP2 SWAP1 POP JUMP JUMPDEST PUSH0 PUSH2 0xA36 DUP3 PUSH2 0xA0B JUMP JUMPDEST SWAP1 POP SWAP2 SWAP1 POP JUMP JUMPDEST PUSH0 PUSH2 0xA47 DUP3 PUSH2 0xA2C JUMP JUMPDEST SWAP1 POP SWAP2 SWAP1 POP JUMP JUMPDEST PUSH2 0xA57 DUP2 PUSH2 0xA3D JUMP JUMPDEST DUP3 MSTORE POP POP JUMP JUMPDEST PUSH0 PUSH1 0x20 DUP3 ADD SWAP1 POP PUSH2 0xA70 PUSH0 DUP4 ADD DUP5 PUSH2 0xA4E JUMP JUMPDEST SWAP3 SWAP2 POP POP JUMP JUMPDEST PUSH0 PUSH2 0xA80 DUP3 PUSH2 0xA2C JUMP JUMPDEST SWAP1 POP SWAP2 SWAP1 POP JUMP JUMPDEST PUSH2 0xA90 DUP2 PUSH2 0xA76 JUMP JUMPDEST DUP3 MSTORE POP POP JUMP JUMPDEST PUSH0 PUSH1 0x20 DUP3 ADD SWAP1 POP PUSH2 0xAA9 PUSH0 DUP4 ADD DUP5 PUSH2 0xA87 JUMP JUMPDEST SWAP3 SWAP2 POP POP JUMP JUMPDEST PUSH0 DUP2 SWAP1 POP SWAP2 SWAP1 POP JUMP JUMPDEST PUSH2 0xAC1 DUP2 PUSH2 0xAAF JUMP JUMPDEST DUP3 MSTORE POP POP JUMP JUMPDEST PUSH0 PUSH1 0x20 DUP3 ADD SWAP1 POP PUSH2 0xADA PUSH0 DUP4 ADD DUP5 PUSH2 0xAB8 JUMP JUMPDEST SWAP3 SWAP2 POP POP JUMP JUMPDEST PUSH0 DUP1 REVERT JUMPDEST PUSH0 PUSH2 0xAEE DUP3 PUSH2 0x9E3 JUMP JUMPDEST SWAP1 POP SWAP2 SWAP1 POP JUMP JUMPDEST PUSH2 0xAFE DUP2 PUSH2 0xAE4 JUMP JUMPDEST DUP2 EQ PUSH2 0xB08 JUMPI PUSH0 DUP1 REVERT JUMPDEST POP JUMP JUMPDEST PUSH0 DUP2 CALLDATALOAD SWAP1 POP PUSH2 0xB19 DUP2 PUSH2 0xAF5 JUMP JUMPDEST SWAP3 SWAP2 POP POP JUMP JUMPDEST PUSH0 PUSH1 0x20 DUP3 DUP5 SUB SLT ISZERO PUSH2 0xB34 JUMPI PUSH2 0xB33 PUSH2 0xAE0 JUMP JUMPDEST JUMPDEST PUSH0 PUSH2 0xB41 DUP5 DUP3 DUP6 ADD PUSH2 0xB0B JUMP JUMPDEST SWAP2 POP POP SWAP3 SWAP2 POP POP JUMP JUMPDEST PUSH0 PUSH2 0xB54 DUP3 PUSH2 0xAE4 JUMP JUMPDEST SWAP1 POP SWAP2 SWAP1 POP JUMP JUMPDEST PUSH2 0xB64 DUP2 PUSH2 0xB4A JUMP JUMPDEST DUP2 EQ PUSH2 0xB6E JUMPI PUSH0 DUP1 REVERT JUMPDEST POP JUMP JUMPDEST PUSH0 DUP2 MLOAD SWAP1 POP PUSH2 0xB7F DUP2 PUSH2 0xB5B JUMP JUMPDEST SWAP3 SWAP2 POP POP JUMP JUMPDEST PUSH0 PUSH1 0x20 DUP3 DUP5 SUB SLT ISZERO PUSH2 0xB9A JUMPI PUSH2 0xB99 PUSH2 0xAE0 JUMP JUMPDEST JUMPDEST PUSH0 PUSH2 0xBA7 DUP5 DUP3 DUP6 ADD PUSH2 0xB71 JUMP JUMPDEST SWAP2 POP POP SWAP3 SWAP2 POP POP JUMP JUMPDEST PUSH0 PUSH1 0xFF DUP3 AND SWAP1 POP SWAP2 SWAP1 POP JUMP JUMPDEST PUSH2 0xBC5 DUP2 PUSH2 0xBB0 JUMP JUMPDEST DUP2 EQ PUSH2 0xBCF JUMPI PUSH0 DUP1 REVERT JUMPDEST POP JUMP JUMPDEST PUSH0 DUP2 MLOAD SWAP1 POP PUSH2 0xBE0 DUP2 PUSH2 0xBBC JUMP JUMPDEST SWAP3 SWAP2 POP POP JUMP JUMPDEST PUSH0 PUSH1 0x20 DUP3 DUP5 SUB SLT ISZERO PUSH2 0xBFB JUMPI PUSH2 0xBFA PUSH2 0xAE0 JUMP JUMPDEST JUMPDEST PUSH0 PUSH2 0xC08 DUP5 DUP3 DUP6 ADD PUSH2 0xBD2 JUMP JUMPDEST SWAP2 POP POP SWAP3 SWAP2 POP POP JUMP JUMPDEST PUSH32 0x4E487B7100000000000000000000000000000000000000000000000000000000 PUSH0 MSTORE PUSH1 0x11 PUSH1 0x4 MSTORE PUSH1 0x24 PUSH0 REVERT JUMPDEST PUSH0 PUSH2 0xC48 DUP3 PUSH2 0xAAF JUMP JUMPDEST SWAP2 POP PUSH2 0xC53 DUP4 PUSH2 0xAAF JUMP JUMPDEST SWAP3 POP DUP3 DUP3 SUB SWAP1 POP DUP2 DUP2 GT ISZERO PUSH2 0xC6B JUMPI PUSH2 0xC6A PUSH2 0xC11 JUMP JUMPDEST JUMPDEST SWAP3 SWAP2 POP POP JUMP JUMPDEST PUSH0 DUP2 PUSH1 0x1 SHR SWAP1 POP SWAP2 SWAP1 POP JUMP JUMPDEST PUSH0 DUP1 DUP3 SWAP2 POP DUP4 SWAP1 POP JUMPDEST PUSH1 0x1 DUP6 GT ISZERO PUSH2 0xCC6 JUMPI DUP1 DUP7 DIV DUP2 GT ISZERO PUSH2 0xCA2 JUMPI PUSH2 0xCA1 PUSH2 0xC11 JUMP JUMPDEST JUMPDEST PUSH1 0x1 DUP6 AND ISZERO PUSH2 0xCB1 JUMPI DUP1 DUP3 MUL SWAP2 POP JUMPDEST DUP1 DUP2 MUL SWAP1 POP PUSH2 0xCBF DUP6 PUSH2 0xC71 JUMP JUMPDEST SWAP5 POP PUSH2 0xC86 JUMP JUMPDEST SWAP5 POP SWAP5 SWAP3 POP POP POP JUMP JUMPDEST PUSH0 DUP3 PUSH2 0xCDE JUMPI PUSH1 0x1 SWAP1 POP PUSH2 0xD99 JUMP JUMPDEST DUP2 PUSH2 0xCEB JUMPI PUSH0 SWAP1 POP PUSH2 0xD99 JUMP JUMPDEST DUP2 PUSH1 0x1 DUP2 EQ PUSH2 0xD01 JUMPI PUSH1 0x2 DUP2 EQ PUSH2 0xD0B JUMPI PUSH2 0xD3A JUMP JUMPDEST PUSH1 0x1 SWAP2 POP POP PUSH2 0xD99 JUMP JUMPDEST PUSH1 0xFF DUP5 GT ISZERO PUSH2 0xD1D JUMPI PUSH2 0xD1C PUSH2 0xC11 JUMP JUMPDEST JUMPDEST DUP4 PUSH1 0x2 EXP SWAP2 POP DUP5 DUP3 GT ISZERO PUSH2 0xD34 JUMPI PUSH2 0xD33 PUSH2 0xC11 JUMP JUMPDEST JUMPDEST POP PUSH2 0xD99 JUMP JUMPDEST POP PUSH1 0x20 DUP4 LT PUSH2 0x133 DUP4 LT AND PUSH1 0x4E DUP5 LT PUSH1 0xB DUP5 LT AND OR ISZERO PUSH2 0xD6F JUMPI DUP3 DUP3 EXP SWAP1 POP DUP4 DUP2 GT ISZERO PUSH2 0xD6A JUMPI PUSH2 0xD69 PUSH2 0xC11 JUMP JUMPDEST JUMPDEST PUSH2 0xD99 JUMP JUMPDEST PUSH2 0xD7C DUP5 DUP5 DUP5 PUSH1 0x1 PUSH2 0xC7D JUMP JUMPDEST SWAP3 POP SWAP1 POP DUP2 DUP5 DIV DUP2 GT ISZERO PUSH2 0xD93 JUMPI PUSH2 0xD92 PUSH2 0xC11 JUMP JUMPDEST JUMPDEST DUP2 DUP2 MUL SWAP1 POP JUMPDEST SWAP4 SWAP3 POP POP POP JUMP JUMPDEST PUSH0 PUSH2 0xDAA DUP3 PUSH2 0xAAF JUMP JUMPDEST SWAP2 POP PUSH2 0xDB5 DUP4 PUSH2 0xAAF JUMP JUMPDEST SWAP3 POP PUSH2 0xDE2 PUSH32 0xFFFFFFFFFFFFFFFFFFFFFFFFFFFFFFFFFFFFFFFFFFFFFFFFFFFFFFFFFFFFFFFF DUP5 DUP5 PUSH2 0xCCF JUMP JUMPDEST SWAP1 POP SWAP3 SWAP2 POP POP JUMP JUMPDEST PUSH0 PUSH2 0xDF4 DUP3 PUSH2 0xAAF JUMP JUMPDEST SWAP2 POP PUSH2 0xDFF DUP4 PUSH2 0xAAF JUMP JUMPDEST SWAP3 POP DUP3 DUP3 MUL PUSH2 0xE0D DUP2 PUSH2 0xAAF JUMP JUMPDEST SWAP2 POP DUP3 DUP3 DIV DUP5 EQ DUP4 ISZERO OR PUSH2 0xE24 JUMPI PUSH2 0xE23 PUSH2 0xC11 JUMP JUMPDEST JUMPDEST POP SWAP3 SWAP2 POP POP JUMP JUMPDEST PUSH32 0x4E487B7100000000000000000000000000000000000000000000000000000000 PUSH0 MSTORE PUSH1 0x12 PUSH1 0x4 MSTORE PUSH1 0x24 PUSH0 REVERT JUMPDEST PUSH0 PUSH2 0xE62 DUP3 PUSH2 0xAAF JUMP JUMPDEST SWAP2 POP PUSH2 0xE6D DUP4 PUSH2 0xAAF JUMP JUMPDEST SWAP3 POP DUP3 PUSH2 0xE7D JUMPI PUSH2 0xE7C PUSH2 0xE2B JUMP JUMPDEST JUMPDEST DUP3 DUP3 DIV SWAP1 POP SWAP3 SWAP2 POP POP JUMP INVALID LOG2 PUSH5 0x6970667358 0x22 SLT KECCAK256 SWAP10 RETURNDATASIZE PUSH18 0xBB92F2659513D94EB6777B50094A91E4F788 COINBASE SIGNEXTEND 0x28 0xC9 SLOAD CREATE2 0xC7 PUSH2 0xD903 LOG1 PUSH5 0x736F6C6343 STOP ADDMOD EQ STOP CALLER "
		},
		"gasEstimates": {
			"creation": {
				"codeDepositCost": "754800",
				"executionCost": "784",
				"totalCost": "755584"
			},
			"external": {
				"asset()": "infinite",
				"calculateOrig()": "infinite",
				"calculateWithCachedDecimals()": "infinite",
				"calculateWithScalingFactor()": "infinite",
				"liquidityProvider()": "infinite",
				"updateAsset(address)": "24781",
				"updateLiquidityProvider(address)": "infinite"
			}
		},
		"methodIdentifiers": {
			"asset()": "38d52e0f",
			"calculateOrig()": "83781fa9",
			"calculateWithCachedDecimals()": "9b3e9ab8",
			"calculateWithScalingFactor()": "5d0b41f8",
			"liquidityProvider()": "5b8bec55",
			"updateAsset(address)": "f141b52b",
			"updateLiquidityProvider(address)": "cd5c645c"
		}
	},
	"abi": [
		{
			"inputs": [],
			"name": "asset",
			"outputs": [
				{
					"internalType": "contract ERC20",
					"name": "",
					"type": "address"
				}
			],
			"stateMutability": "view",
			"type": "function"
		},
		{
			"inputs": [],
			"name": "calculateOrig",
			"outputs": [
				{
					"internalType": "uint256",
					"name": "",
					"type": "uint256"
				}
			],
			"stateMutability": "view",
			"type": "function"
		},
		{
			"inputs": [],
			"name": "calculateWithCachedDecimals",
			"outputs": [
				{
					"internalType": "uint256",
					"name": "",
					"type": "uint256"
				}
			],
			"stateMutability": "view",
			"type": "function"
		},
		{
			"inputs": [],
			"name": "calculateWithScalingFactor",
			"outputs": [
				{
					"internalType": "uint256",
					"name": "",
					"type": "uint256"
				}
			],
			"stateMutability": "view",
			"type": "function"
		},
		{
			"inputs": [],
			"name": "liquidityProvider",
			"outputs": [
				{
					"internalType": "contract ILiquidityProvider",
					"name": "",
					"type": "address"
				}
			],
			"stateMutability": "view",
			"type": "function"
		},
		{
			"inputs": [
				{
					"internalType": "address",
					"name": "_asset",
					"type": "address"
				}
			],
			"name": "updateAsset",
			"outputs": [],
			"stateMutability": "nonpayable",
			"type": "function"
		},
		{
			"inputs": [
				{
					"internalType": "address",
					"name": "_liquidityProvider",
					"type": "address"
				}
			],
			"name": "updateLiquidityProvider",
			"outputs": [],
			"stateMutability": "nonpayable",
			"type": "function"
		}
	]
}